{
  "contractName": "ERC721Land",
  "abi": [
    {
      "inputs": [
        {
          "internalType": "string",
          "name": "name",
          "type": "string"
        },
        {
          "internalType": "string",
          "name": "symbol",
          "type": "string"
        },
        {
          "internalType": "string",
          "name": "baseTokenURI",
          "type": "string"
        },
        {
          "internalType": "contract ERC20PresetMinterPauser",
          "name": "_erc20",
          "type": "address"
        }
      ],
      "stateMutability": "nonpayable",
      "type": "constructor"
    },
    {
      "anonymous": false,
      "inputs": [
        {
          "indexed": true,
          "internalType": "address",
          "name": "owner",
          "type": "address"
        },
        {
          "indexed": true,
          "internalType": "address",
          "name": "approved",
          "type": "address"
        },
        {
          "indexed": true,
          "internalType": "uint256",
          "name": "tokenId",
          "type": "uint256"
        }
      ],
      "name": "Approval",
      "type": "event"
    },
    {
      "anonymous": false,
      "inputs": [
        {
          "indexed": true,
          "internalType": "address",
          "name": "owner",
          "type": "address"
        },
        {
          "indexed": true,
          "internalType": "address",
          "name": "operator",
          "type": "address"
        },
        {
          "indexed": false,
          "internalType": "bool",
          "name": "approved",
          "type": "bool"
        }
      ],
      "name": "ApprovalForAll",
      "type": "event"
    },
    {
      "anonymous": false,
      "inputs": [
        {
          "indexed": false,
          "internalType": "address",
          "name": "account",
          "type": "address"
        }
      ],
      "name": "Paused",
      "type": "event"
    },
    {
      "anonymous": false,
      "inputs": [
        {
          "indexed": true,
          "internalType": "bytes32",
          "name": "role",
          "type": "bytes32"
        },
        {
          "indexed": true,
          "internalType": "bytes32",
          "name": "previousAdminRole",
          "type": "bytes32"
        },
        {
          "indexed": true,
          "internalType": "bytes32",
          "name": "newAdminRole",
          "type": "bytes32"
        }
      ],
      "name": "RoleAdminChanged",
      "type": "event"
    },
    {
      "anonymous": false,
      "inputs": [
        {
          "indexed": true,
          "internalType": "bytes32",
          "name": "role",
          "type": "bytes32"
        },
        {
          "indexed": true,
          "internalType": "address",
          "name": "account",
          "type": "address"
        },
        {
          "indexed": true,
          "internalType": "address",
          "name": "sender",
          "type": "address"
        }
      ],
      "name": "RoleGranted",
      "type": "event"
    },
    {
      "anonymous": false,
      "inputs": [
        {
          "indexed": true,
          "internalType": "bytes32",
          "name": "role",
          "type": "bytes32"
        },
        {
          "indexed": true,
          "internalType": "address",
          "name": "account",
          "type": "address"
        },
        {
          "indexed": true,
          "internalType": "address",
          "name": "sender",
          "type": "address"
        }
      ],
      "name": "RoleRevoked",
      "type": "event"
    },
    {
      "anonymous": false,
      "inputs": [
        {
          "indexed": true,
          "internalType": "address",
          "name": "from",
          "type": "address"
        },
        {
          "indexed": true,
          "internalType": "address",
          "name": "to",
          "type": "address"
        },
        {
          "indexed": true,
          "internalType": "uint256",
          "name": "tokenId",
          "type": "uint256"
        }
      ],
      "name": "Transfer",
      "type": "event"
    },
    {
      "anonymous": false,
      "inputs": [
        {
          "indexed": false,
          "internalType": "address",
          "name": "account",
          "type": "address"
        }
      ],
      "name": "Unpaused",
      "type": "event"
    },
    {
      "anonymous": false,
      "inputs": [
        {
          "indexed": false,
          "internalType": "address",
          "name": "from",
          "type": "address"
        },
        {
          "indexed": false,
          "internalType": "address",
          "name": "to",
          "type": "address"
        },
        {
          "indexed": false,
          "internalType": "uint256",
          "name": "price",
          "type": "uint256"
        },
        {
          "indexed": false,
          "internalType": "uint256",
          "name": "tokenId",
          "type": "uint256"
        }
      ],
      "name": "tradeMaded",
      "type": "event"
    },
    {
      "inputs": [],
      "name": "DEFAULT_ADMIN_ROLE",
      "outputs": [
        {
          "internalType": "bytes32",
          "name": "",
          "type": "bytes32"
        }
      ],
      "stateMutability": "view",
      "type": "function"
    },
    {
      "inputs": [],
      "name": "MINTER_ROLE",
      "outputs": [
        {
          "internalType": "bytes32",
          "name": "",
          "type": "bytes32"
        }
      ],
      "stateMutability": "view",
      "type": "function"
    },
    {
      "inputs": [],
      "name": "PAUSER_ROLE",
      "outputs": [
        {
          "internalType": "bytes32",
          "name": "",
          "type": "bytes32"
        }
      ],
      "stateMutability": "view",
      "type": "function"
    },
    {
      "inputs": [
        {
          "internalType": "address",
          "name": "to",
          "type": "address"
        },
        {
          "internalType": "uint256",
          "name": "tokenId",
          "type": "uint256"
        }
      ],
      "name": "approve",
      "outputs": [],
      "stateMutability": "nonpayable",
      "type": "function"
    },
    {
      "inputs": [
        {
          "internalType": "address",
          "name": "owner",
          "type": "address"
        }
      ],
      "name": "balanceOf",
      "outputs": [
        {
          "internalType": "uint256",
          "name": "",
          "type": "uint256"
        }
      ],
      "stateMutability": "view",
      "type": "function"
    },
    {
      "inputs": [
        {
          "internalType": "uint256",
          "name": "tokenId",
          "type": "uint256"
        }
      ],
      "name": "burn",
      "outputs": [],
      "stateMutability": "nonpayable",
      "type": "function"
    },
    {
      "inputs": [
        {
          "internalType": "uint256",
          "name": "tokenId",
          "type": "uint256"
        }
      ],
      "name": "buy",
      "outputs": [],
      "stateMutability": "nonpayable",
      "type": "function"
    },
    {
      "inputs": [
        {
          "internalType": "uint256",
          "name": "tokenId",
          "type": "uint256"
        }
      ],
      "name": "getApproved",
      "outputs": [
        {
          "internalType": "address",
          "name": "",
          "type": "address"
        }
      ],
      "stateMutability": "view",
      "type": "function"
    },
    {
      "inputs": [
        {
          "internalType": "bytes32",
          "name": "role",
          "type": "bytes32"
        }
      ],
      "name": "getRoleAdmin",
      "outputs": [
        {
          "internalType": "bytes32",
          "name": "",
          "type": "bytes32"
        }
      ],
      "stateMutability": "view",
      "type": "function"
    },
    {
      "inputs": [
        {
          "internalType": "bytes32",
          "name": "role",
          "type": "bytes32"
        },
        {
          "internalType": "uint256",
          "name": "index",
          "type": "uint256"
        }
      ],
      "name": "getRoleMember",
      "outputs": [
        {
          "internalType": "address",
          "name": "",
          "type": "address"
        }
      ],
      "stateMutability": "view",
      "type": "function"
    },
    {
      "inputs": [
        {
          "internalType": "bytes32",
          "name": "role",
          "type": "bytes32"
        }
      ],
      "name": "getRoleMemberCount",
      "outputs": [
        {
          "internalType": "uint256",
          "name": "",
          "type": "uint256"
        }
      ],
      "stateMutability": "view",
      "type": "function"
    },
    {
      "inputs": [
        {
          "internalType": "bytes32",
          "name": "role",
          "type": "bytes32"
        },
        {
          "internalType": "address",
          "name": "account",
          "type": "address"
        }
      ],
      "name": "grantRole",
      "outputs": [],
      "stateMutability": "nonpayable",
      "type": "function"
    },
    {
      "inputs": [
        {
          "internalType": "bytes32",
          "name": "role",
          "type": "bytes32"
        },
        {
          "internalType": "address",
          "name": "account",
          "type": "address"
        }
      ],
      "name": "hasRole",
      "outputs": [
        {
          "internalType": "bool",
          "name": "",
          "type": "bool"
        }
      ],
      "stateMutability": "view",
      "type": "function"
    },
    {
      "inputs": [
        {
          "internalType": "address",
          "name": "owner",
          "type": "address"
        },
        {
          "internalType": "address",
          "name": "operator",
          "type": "address"
        }
      ],
      "name": "isApprovedForAll",
      "outputs": [
        {
          "internalType": "bool",
          "name": "",
          "type": "bool"
        }
      ],
      "stateMutability": "view",
      "type": "function"
    },
    {
      "inputs": [],
      "name": "name",
      "outputs": [
        {
          "internalType": "string",
          "name": "",
          "type": "string"
        }
      ],
      "stateMutability": "view",
      "type": "function"
    },
    {
      "inputs": [
        {
          "internalType": "uint256",
          "name": "tokenId",
          "type": "uint256"
        }
      ],
      "name": "ownerOf",
      "outputs": [
        {
          "internalType": "address",
          "name": "",
          "type": "address"
        }
      ],
      "stateMutability": "view",
      "type": "function"
    },
    {
      "inputs": [],
      "name": "pause",
      "outputs": [],
      "stateMutability": "nonpayable",
      "type": "function"
    },
    {
      "inputs": [],
      "name": "paused",
      "outputs": [
        {
          "internalType": "bool",
          "name": "",
          "type": "bool"
        }
      ],
      "stateMutability": "view",
      "type": "function"
    },
    {
      "inputs": [
        {
          "internalType": "bytes32",
          "name": "role",
          "type": "bytes32"
        },
        {
          "internalType": "address",
          "name": "account",
          "type": "address"
        }
      ],
      "name": "renounceRole",
      "outputs": [],
      "stateMutability": "nonpayable",
      "type": "function"
    },
    {
      "inputs": [
        {
          "internalType": "bytes32",
          "name": "role",
          "type": "bytes32"
        },
        {
          "internalType": "address",
          "name": "account",
          "type": "address"
        }
      ],
      "name": "revokeRole",
      "outputs": [],
      "stateMutability": "nonpayable",
      "type": "function"
    },
    {
      "inputs": [
        {
          "internalType": "address",
          "name": "from",
          "type": "address"
        },
        {
          "internalType": "address",
          "name": "to",
          "type": "address"
        },
        {
          "internalType": "uint256",
          "name": "tokenId",
          "type": "uint256"
        }
      ],
      "name": "safeTransferFrom",
      "outputs": [],
      "stateMutability": "nonpayable",
      "type": "function"
    },
    {
      "inputs": [
        {
          "internalType": "address",
          "name": "from",
          "type": "address"
        },
        {
          "internalType": "address",
          "name": "to",
          "type": "address"
        },
        {
          "internalType": "uint256",
          "name": "tokenId",
          "type": "uint256"
        },
        {
          "internalType": "bytes",
          "name": "_data",
          "type": "bytes"
        }
      ],
      "name": "safeTransferFrom",
      "outputs": [],
      "stateMutability": "nonpayable",
      "type": "function"
    },
    {
      "inputs": [
        {
          "internalType": "uint256",
          "name": "tokenId",
          "type": "uint256"
        },
        {
          "internalType": "uint256",
          "name": "_price",
          "type": "uint256"
        }
      ],
      "name": "sale",
      "outputs": [],
      "stateMutability": "nonpayable",
      "type": "function"
    },
    {
      "inputs": [
        {
          "internalType": "address",
          "name": "operator",
          "type": "address"
        },
        {
          "internalType": "bool",
          "name": "approved",
          "type": "bool"
        }
      ],
      "name": "setApprovalForAll",
      "outputs": [],
      "stateMutability": "nonpayable",
      "type": "function"
    },
    {
      "inputs": [
        {
          "internalType": "bytes4",
          "name": "interfaceId",
          "type": "bytes4"
        }
      ],
      "name": "supportsInterface",
      "outputs": [
        {
          "internalType": "bool",
          "name": "",
          "type": "bool"
        }
      ],
      "stateMutability": "view",
      "type": "function"
    },
    {
      "inputs": [],
      "name": "symbol",
      "outputs": [
        {
          "internalType": "string",
          "name": "",
          "type": "string"
        }
      ],
      "stateMutability": "view",
      "type": "function"
    },
    {
      "inputs": [
        {
          "internalType": "uint256",
          "name": "index",
          "type": "uint256"
        }
      ],
      "name": "tokenByIndex",
      "outputs": [
        {
          "internalType": "uint256",
          "name": "",
          "type": "uint256"
        }
      ],
      "stateMutability": "view",
      "type": "function"
    },
    {
      "inputs": [
        {
          "internalType": "address",
          "name": "owner",
          "type": "address"
        },
        {
          "internalType": "uint256",
          "name": "index",
          "type": "uint256"
        }
      ],
      "name": "tokenOfOwnerByIndex",
      "outputs": [
        {
          "internalType": "uint256",
          "name": "",
          "type": "uint256"
        }
      ],
      "stateMutability": "view",
      "type": "function"
    },
    {
      "inputs": [
        {
          "internalType": "uint256",
          "name": "tokenId",
          "type": "uint256"
        }
      ],
      "name": "tokenURI",
      "outputs": [
        {
          "internalType": "string",
          "name": "",
          "type": "string"
        }
      ],
      "stateMutability": "view",
      "type": "function"
    },
    {
      "inputs": [],
      "name": "totalSupply",
      "outputs": [
        {
          "internalType": "uint256",
          "name": "",
          "type": "uint256"
        }
      ],
      "stateMutability": "view",
      "type": "function"
    },
    {
      "inputs": [
        {
          "internalType": "address",
          "name": "from",
          "type": "address"
        },
        {
          "internalType": "address",
          "name": "to",
          "type": "address"
        },
        {
          "internalType": "uint256",
          "name": "tokenId",
          "type": "uint256"
        }
      ],
      "name": "transferFrom",
      "outputs": [],
      "stateMutability": "nonpayable",
      "type": "function"
    },
    {
      "inputs": [
        {
          "internalType": "uint256",
          "name": "tokenId",
          "type": "uint256"
        }
      ],
      "name": "unSale",
      "outputs": [],
      "stateMutability": "nonpayable",
      "type": "function"
    },
    {
      "inputs": [],
      "name": "unpause",
      "outputs": [],
      "stateMutability": "nonpayable",
      "type": "function"
    },
    {
      "inputs": [
        {
          "internalType": "address",
          "name": "to",
          "type": "address"
        }
      ],
      "name": "mint",
      "outputs": [],
      "stateMutability": "nonpayable",
      "type": "function"
    },
    {
      "inputs": [
        {
          "internalType": "address",
          "name": "to",
          "type": "address"
        }
      ],
      "name": "mintReturnTokenId",
      "outputs": [
        {
          "internalType": "uint256",
          "name": "",
          "type": "uint256"
        }
      ],
      "stateMutability": "nonpayable",
      "type": "function"
    },
    {
      "inputs": [
        {
          "internalType": "uint256",
          "name": "tokenId",
          "type": "uint256"
        },
        {
          "internalType": "int256",
          "name": "splitX",
          "type": "int256"
        },
        {
          "internalType": "int256",
          "name": "splitY",
          "type": "int256"
        }
      ],
      "name": "splitToken",
      "outputs": [],
      "stateMutability": "nonpayable",
      "type": "function"
    },
    {
      "inputs": [
        {
          "internalType": "uint256",
          "name": "tokenIdA",
          "type": "uint256"
        },
        {
          "internalType": "uint256",
          "name": "tokenIdB",
          "type": "uint256"
        }
      ],
      "name": "mergeToken",
      "outputs": [],
      "stateMutability": "nonpayable",
      "type": "function"
    },
    {
      "inputs": [
        {
          "internalType": "uint256",
          "name": "tokenId",
          "type": "uint256"
        },
        {
          "components": [
            {
              "internalType": "int256",
              "name": "minX",
              "type": "int256"
            },
            {
              "internalType": "int256",
              "name": "maxX",
              "type": "int256"
            },
            {
              "internalType": "int256",
              "name": "minY",
              "type": "int256"
            },
            {
              "internalType": "int256",
              "name": "maxY",
              "type": "int256"
            },
            {
              "internalType": "bool",
              "name": "getFired",
              "type": "bool"
            }
          ],
          "internalType": "struct ERC721Land.Land",
          "name": "land",
          "type": "tuple"
        }
      ],
      "name": "setTokenLand",
      "outputs": [],
      "stateMutability": "nonpayable",
      "type": "function"
    },
    {
      "inputs": [
        {
          "internalType": "uint256",
          "name": "tokenId",
          "type": "uint256"
        }
      ],
      "name": "queryTokenLand",
      "outputs": [
        {
          "components": [
            {
              "internalType": "int256",
              "name": "minX",
              "type": "int256"
            },
            {
              "internalType": "int256",
              "name": "maxX",
              "type": "int256"
            },
            {
              "internalType": "int256",
              "name": "minY",
              "type": "int256"
            },
            {
              "internalType": "int256",
              "name": "maxY",
              "type": "int256"
            },
            {
              "internalType": "bool",
              "name": "getFired",
              "type": "bool"
            }
          ],
          "internalType": "struct ERC721Land.Land",
          "name": "",
          "type": "tuple"
        }
      ],
      "stateMutability": "view",
      "type": "function"
    }
  ],
  "bytecode": "0x60806040523480156200001157600080fd5b5060405162006747380380620067478339818101604052810190620000379190620006f6565b80848484828281600290805190602001906200005592919062000430565b5080600390805190602001906200006e92919062000430565b5050506000600c60006101000a81548160ff02191690831515021790555080600e9080519060200190620000a492919062000430565b50620000c96000801b620000bd6200019a60201b60201c565b620001a260201b60201c565b6200010a7f9f2df0fed2c77648de5860a4cc508cd0818c85b8b8a1ab4ceeef8d981c8956a6620000fe6200019a60201b60201c565b620001a260201b60201c565b6200014b7f65d7a28e3265b37a6474929f336521b332c1681b933f6cb9f3376673440d862a6200013f6200019a60201b60201c565b620001a260201b60201c565b50505080600f60006101000a81548173ffffffffffffffffffffffffffffffffffffffff021916908373ffffffffffffffffffffffffffffffffffffffff160217905550505050505062000829565b600033905090565b620001b48282620001b860201b60201c565b5050565b620001cf82826200020060201b62001f221760201c565b620001fb8160016000858152602001908152602001600020620002f160201b620020021790919060201c565b505050565b6200021282826200032960201b60201c565b620002ed57600160008084815260200190815260200160002060000160008373ffffffffffffffffffffffffffffffffffffffff1673ffffffffffffffffffffffffffffffffffffffff16815260200190815260200160002060006101000a81548160ff021916908315150217905550620002926200019a60201b60201c565b73ffffffffffffffffffffffffffffffffffffffff168173ffffffffffffffffffffffffffffffffffffffff16837f2f8788117e7eff1d82e926ec794901d17c78024a50270940304540a733656f0d60405160405180910390a45b5050565b600062000321836000018373ffffffffffffffffffffffffffffffffffffffff1660001b6200039360201b60201c565b905092915050565b600080600084815260200190815260200160002060000160008373ffffffffffffffffffffffffffffffffffffffff1673ffffffffffffffffffffffffffffffffffffffff16815260200190815260200160002060009054906101000a900460ff16905092915050565b6000620003a783836200040d60201b60201c565b6200040257826000018290806001815401808255809150506001900390600052602060002001600090919091909150558260000180549050836001016000848152602001908152602001600020819055506001905062000407565b600090505b92915050565b600080836001016000848152602001908152602001600020541415905092915050565b8280546200043e90620007f4565b90600052602060002090601f016020900481019282620004625760008555620004ae565b82601f106200047d57805160ff1916838001178555620004ae565b82800160010185558215620004ae579182015b82811115620004ad57825182559160200191906001019062000490565b5b509050620004bd9190620004c1565b5090565b5b80821115620004dc576000816000905550600101620004c2565b5090565b6000604051905090565b600080fd5b600080fd5b600080fd5b600080fd5b6000601f19601f8301169050919050565b7f4e487b7100000000000000000000000000000000000000000000000000000000600052604160045260246000fd5b6200054982620004fe565b810181811067ffffffffffffffff821117156200056b576200056a6200050f565b5b80604052505050565b600062000580620004e0565b90506200058e82826200053e565b919050565b600067ffffffffffffffff821115620005b157620005b06200050f565b5b620005bc82620004fe565b9050602081019050919050565b60005b83811015620005e9578082015181840152602081019050620005cc565b83811115620005f9576000848401525b50505050565b600062000616620006108462000593565b62000574565b905082815260208101848484011115620006355762000634620004f9565b5b62000642848285620005c9565b509392505050565b600082601f830112620006625762000661620004f4565b5b815162000674848260208601620005ff565b91505092915050565b600073ffffffffffffffffffffffffffffffffffffffff82169050919050565b6000620006aa826200067d565b9050919050565b6000620006be826200069d565b9050919050565b620006d081620006b1565b8114620006dc57600080fd5b50565b600081519050620006f081620006c5565b92915050565b60008060008060808587031215620007135762000712620004ea565b5b600085015167ffffffffffffffff811115620007345762000733620004ef565b5b62000742878288016200064a565b945050602085015167ffffffffffffffff811115620007665762000765620004ef565b5b62000774878288016200064a565b935050604085015167ffffffffffffffff811115620007985762000797620004ef565b5b620007a6878288016200064a565b9250506060620007b987828801620006df565b91505092959194509250565b7f4e487b7100000000000000000000000000000000000000000000000000000000600052602260045260246000fd5b600060028204905060018216806200080d57607f821691505b602082108103620008235762000822620007c5565b5b50919050565b615f0e80620008396000396000f3fe608060405234801561001057600080fd5b506004361061023d5760003560e01c80636a6278421161013b578063a22cb465116100b8578063d53913931161007c578063d5391393146106e4578063d547741f14610702578063d96a094a1461071e578063e63ab1e91461073a578063e985e9c5146107585761023d565b8063a22cb4651461061c578063b0105be514610638578063b88d4fde14610668578063c87b56dd14610684578063ca15c873146106b45761023d565b80639010d07c116100ff5780639010d07c1461056457806391d148541461059457806395d89b41146105c45780639773b6f4146105e2578063a217fddf146105fe5761023d565b80636a627842146104c257806370a08231146104de5780637415cd871461050e57806383ef18fa1461053e5780638456cb591461055a5761023d565b80632f2ff15d116101c957806342966c681161018d57806342966c681461040c5780634a453485146104285780634f6ccce7146104445780635c975abb146104745780636352211e146104925761023d565b80632f2ff15d1461037e5780632f745c591461039a57806336568abe146103ca5780633f4ba83a146103e657806342842e0e146103f05761023d565b806318160ddd1161021057806318160ddd146102dc5780631c35f962146102fa5780631ef65b121461031657806323b872dd14610332578063248a9ca31461034e5761023d565b806301ffc9a71461024257806306fdde0314610272578063081812fc14610290578063095ea7b3146102c0575b600080fd5b61025c60048036038101906102579190613d2e565b610788565b6040516102699190613d76565b60405180910390f35b61027a61079a565b6040516102879190613e2a565b60405180910390f35b6102aa60048036038101906102a59190613e82565b61082c565b6040516102b79190613ef0565b60405180910390f35b6102da60048036038101906102d59190613f37565b6108b1565b005b6102e46109c8565b6040516102f19190613f86565b60405180910390f35b610314600480360381019061030f9190613fa1565b6109d5565b005b610330600480360381019061032b9190613fa1565b610b0f565b005b61034c60048036038101906103479190613fe1565b610eb4565b005b6103686004803603810190610363919061406a565b610f14565b60405161037591906140a6565b60405180910390f35b610398600480360381019061039391906140c1565b610f33565b005b6103b460048036038101906103af9190613f37565b610f54565b6040516103c19190613f86565b60405180910390f35b6103e460048036038101906103df91906140c1565b610ff9565b005b6103ee61107c565b005b61040a60048036038101906104059190613fe1565b6110f6565b005b61042660048036038101906104219190613e82565b611116565b005b610442600480360381019061043d919061426f565b611172565b005b61045e60048036038101906104599190613e82565b61128d565b60405161046b9190613f86565b60405180910390f35b61047c6112fe565b6040516104899190613d76565b60405180910390f35b6104ac60048036038101906104a79190613e82565b611315565b6040516104b99190613ef0565b60405180910390f35b6104dc60048036038101906104d791906142af565b6113c6565b005b6104f860048036038101906104f391906142af565b6113d3565b6040516105059190613f86565b60405180910390f35b610528600480360381019061052391906142af565b61148a565b6040516105359190613f86565b60405180910390f35b610558600480360381019061055391906142dc565b611530565b005b610562611757565b005b61057e6004803603810190610579919061432f565b6117d1565b60405161058b9190613ef0565b60405180910390f35b6105ae60048036038101906105a991906140c1565b611800565b6040516105bb9190613d76565b60405180910390f35b6105cc61186a565b6040516105d99190613e2a565b60405180910390f35b6105fc60048036038101906105f79190613e82565b6118fc565b005b610606611a11565b60405161061391906140a6565b60405180910390f35b6106366004803603810190610631919061436f565b611a18565b005b610652600480360381019061064d9190613e82565b611a2e565b60405161065f9190614435565b60405180910390f35b610682600480360381019061067d919061450a565b611ae6565b005b61069e60048036038101906106999190613e82565b611b48565b6040516106ab9190613e2a565b60405180910390f35b6106ce60048036038101906106c9919061406a565b611bef565b6040516106db9190613f86565b60405180910390f35b6106ec611c13565b6040516106f991906140a6565b60405180910390f35b61071c600480360381019061071791906140c1565b611c37565b005b61073860048036038101906107339190613e82565b611c58565b005b610742611e6a565b60405161074f91906140a6565b60405180910390f35b610772600480360381019061076d919061458d565b611e8e565b60405161077f9190613d76565b60405180910390f35b600061079382612032565b9050919050565b6060600280546107a9906145fc565b80601f01602080910402602001604051908101604052809291908181526020018280546107d5906145fc565b80156108225780601f106107f757610100808354040283529160200191610822565b820191906000526020600020905b81548152906001019060200180831161080557829003601f168201915b5050505050905090565b6000610837826120ac565b610876576040517f08c379a000000000000000000000000000000000000000000000000000000000815260040161086d9061469f565b60405180910390fd5b6006600083815260200190815260200160002060009054906101000a900473ffffffffffffffffffffffffffffffffffffffff169050919050565b60006108bc82611315565b90508073ffffffffffffffffffffffffffffffffffffffff168373ffffffffffffffffffffffffffffffffffffffff160361092c576040517f08c379a000000000000000000000000000000000000000000000000000000000815260040161092390614731565b60405180910390fd5b8073ffffffffffffffffffffffffffffffffffffffff1661094b612118565b73ffffffffffffffffffffffffffffffffffffffff16148061097a575061097981610974612118565b611e8e565b5b6109b9576040517f08c379a00000000000000000000000000000000000000000000000000000000081526004016109b0906147c3565b60405180910390fd5b6109c38383612120565b505050565b6000600a80549050905090565b6109e66109e0612118565b836121d9565b610a25576040517f08c379a0000000000000000000000000000000000000000000000000000000008152600401610a1c90614855565b60405180910390fd5b610a2e826120ac565b610a6d576040517f08c379a0000000000000000000000000000000000000000000000000000000008152600401610a64906148e7565b60405180910390fd5b60016010600084815260200190815260200160002060006101000a81548160ff021916908315150217905550806011600084815260200190815260200160002081905550610aba82611315565b6012600084815260200190815260200160002060006101000a81548173ffffffffffffffffffffffffffffffffffffffff021916908373ffffffffffffffffffffffffffffffffffffffff1602179055505050565b610b18826120ac565b610b57576040517f08c379a0000000000000000000000000000000000000000000000000000000008152600401610b4e90614953565b60405180910390fd5b610b60816120ac565b610b9f576040517f08c379a0000000000000000000000000000000000000000000000000000000008152600401610b9690614953565b60405180910390fd5b610bb0610baa612118565b836121d9565b610bef576040517f08c379a0000000000000000000000000000000000000000000000000000000008152600401610be6906149e5565b60405180910390fd5b610c00610bfa612118565b826121d9565b610c3f576040517f08c379a0000000000000000000000000000000000000000000000000000000008152600401610c36906149e5565b60405180910390fd5b6000601460008481526020019081526020016000206040518060a0016040529081600082015481526020016001820154815260200160028201548152602001600382015481526020016004820160009054906101000a900460ff16151515158152505090506000601460008481526020019081526020016000206040518060a0016040529081600082015481526020016001820154815260200160028201548152602001600382015481526020016004820160009054906101000a900460ff1615151515815250509050610d11613c91565b81604001518360400151148015610d2f575081606001518360600151145b8015610d545750816000015183602001511480610d53575081602001518360000151145b5b15610db4576040518060a00160405280610d76856000015185600001516122b7565b8152602001610d8d856020015185602001516122d1565b81526020018460400151815260200184606001518152602001600015158152509050610e9a565b81600001518360000151148015610dd2575081602001518360200151145b8015610df75750816040015183606001511480610df6575081606001518360400151145b5b15610e57576040518060a001604052808460000151815260200184602001518152602001610e2d856040015185604001516122b7565b8152602001610e44856060015185606001516122d1565b8152602001600015158152509050610e99565b6000610e98576040517f08c379a0000000000000000000000000000000000000000000000000000000008152600401610e8f90614a77565b60405180910390fd5b5b5b610ea384611116565b610ead8582611172565b5050505050565b610ec5610ebf612118565b826121d9565b610f04576040517f08c379a0000000000000000000000000000000000000000000000000000000008152600401610efb90614b09565b60405180910390fd5b610f0f8383836122eb565b505050565b6000806000838152602001908152602001600020600101549050919050565b610f3c82610f14565b610f4581612551565b610f4f8383612565565b505050565b6000610f5f836113d3565b8210610fa0576040517f08c379a0000000000000000000000000000000000000000000000000000000008152600401610f9790614b9b565b60405180910390fd5b600860008473ffffffffffffffffffffffffffffffffffffffff1673ffffffffffffffffffffffffffffffffffffffff168152602001908152602001600020600083815260200190815260200160002054905092915050565b611001612118565b73ffffffffffffffffffffffffffffffffffffffff168173ffffffffffffffffffffffffffffffffffffffff161461106e576040517f08c379a000000000000000000000000000000000000000000000000000000000815260040161106590614c2d565b60405180910390fd5b6110788282612599565b5050565b6110ad7f65d7a28e3265b37a6474929f336521b332c1681b933f6cb9f3376673440d862a6110a8612118565b611800565b6110ec576040517f08c379a00000000000000000000000000000000000000000000000000000000081526004016110e390614cbf565b60405180910390fd5b6110f46125cd565b565b61111183838360405180602001604052806000815250611ae6565b505050565b611127611121612118565b826121d9565b611166576040517f08c379a000000000000000000000000000000000000000000000000000000000815260040161115d90614d51565b60405180910390fd5b61116f8161266f565b50565b61117b826120ac565b6111ba576040517f08c379a00000000000000000000000000000000000000000000000000000000081526004016111b190614953565b60405180910390fd5b6111eb7f9f2df0fed2c77648de5860a4cc508cd0818c85b8b8a1ab4ceeef8d981c8956a66111e6612118565b611800565b61122a576040517f08c379a000000000000000000000000000000000000000000000000000000000815260040161122190614de3565b60405180910390fd5b80601460008481526020019081526020016000206000820151816000015560208201518160010155604082015181600201556060820151816003015560808201518160040160006101000a81548160ff0219169083151502179055509050505050565b60006112976109c8565b82106112d8576040517f08c379a00000000000000000000000000000000000000000000000000000000081526004016112cf90614e75565b60405180910390fd5b600a82815481106112ec576112eb614e95565b5b90600052602060002001549050919050565b6000600c60009054906101000a900460ff16905090565b6000806004600084815260200190815260200160002060009054906101000a900473ffffffffffffffffffffffffffffffffffffffff169050600073ffffffffffffffffffffffffffffffffffffffff168173ffffffffffffffffffffffffffffffffffffffff16036113bd576040517f08c379a00000000000000000000000000000000000000000000000000000000081526004016113b490614f36565b60405180910390fd5b80915050919050565b6113cf8161148a565b5050565b60008073ffffffffffffffffffffffffffffffffffffffff168273ffffffffffffffffffffffffffffffffffffffff1603611443576040517f08c379a000000000000000000000000000000000000000000000000000000000815260040161143a90614fc8565b60405180910390fd5b600560008373ffffffffffffffffffffffffffffffffffffffff1673ffffffffffffffffffffffffffffffffffffffff168152602001908152602001600020549050919050565b60006114bd7f9f2df0fed2c77648de5860a4cc508cd0818c85b8b8a1ab4ceeef8d981c8956a66114b8612118565b611800565b6114fc576040517f08c379a00000000000000000000000000000000000000000000000000000000081526004016114f39061505a565b60405180910390fd5b61150f8261150a601361278c565b61279a565b600061151b601361278c565b90506115276013612973565b80915050919050565b611539836120ac565b611578576040517f08c379a000000000000000000000000000000000000000000000000000000000815260040161156f90614953565b60405180910390fd5b611589611583612118565b846121d9565b6115c8576040517f08c379a00000000000000000000000000000000000000000000000000000000081526004016115bf906149e5565b60405180910390fd5b6115d18361266f565b6000601460008581526020019081526020016000209050600060405180608001604052806040518060a0016040528085600001548152602001878152602001856002015481526020018681526020016000151581525081526020016040518060a0016040528087815260200185600101548152602001856002015481526020018681526020016000151581525081526020016040518060a0016040528085600001548152602001878152602001868152602001856003015481526020016000151581525081526020016040518060a00160405280878152602001856001015481526020018681526020018560030154815260200160001515815250815250905060005b600481101561174f5760006116ff8383600481106116f5576116f4614e95565b5b6020020151612989565b131561173c576000611717611712612118565b61148a565b905061173a818484600481106117305761172f614e95565b5b6020020151611172565b505b8080611747906150a9565b9150506116d4565b505050505050565b6117887f65d7a28e3265b37a6474929f336521b332c1681b933f6cb9f3376673440d862a611783612118565b611800565b6117c7576040517f08c379a00000000000000000000000000000000000000000000000000000000081526004016117be90615163565b60405180910390fd5b6117cf6129c4565b565b60006117f88260016000868152602001908152602001600020612a6790919063ffffffff16565b905092915050565b600080600084815260200190815260200160002060000160008373ffffffffffffffffffffffffffffffffffffffff1673ffffffffffffffffffffffffffffffffffffffff16815260200190815260200160002060009054906101000a900460ff16905092915050565b606060038054611879906145fc565b80601f01602080910402602001604051908101604052809291908181526020018280546118a5906145fc565b80156118f25780601f106118c7576101008083540402835291602001916118f2565b820191906000526020600020905b8154815290600101906020018083116118d557829003601f168201915b5050505050905090565b611904612118565b73ffffffffffffffffffffffffffffffffffffffff166012600083815260200190815260200160002060009054906101000a900473ffffffffffffffffffffffffffffffffffffffff1673ffffffffffffffffffffffffffffffffffffffff16146119a4576040517f08c379a000000000000000000000000000000000000000000000000000000000815260040161199b906151f5565b60405180910390fd5b60006010600083815260200190815260200160002060006101000a81548160ff021916908315150217905550611a0e306012600084815260200190815260200160002060009054906101000a900473ffffffffffffffffffffffffffffffffffffffff1683610eb4565b50565b6000801b81565b611a2a611a23612118565b8383612a81565b5050565b611a36613c91565b611a3f826120ac565b611a7e576040517f08c379a0000000000000000000000000000000000000000000000000000000008152600401611a7590614953565b60405180910390fd5b601460008381526020019081526020016000206040518060a0016040529081600082015481526020016001820154815260200160028201548152602001600382015481526020016004820160009054906101000a900460ff1615151515815250509050919050565b611af7611af1612118565b836121d9565b611b36576040517f08c379a0000000000000000000000000000000000000000000000000000000008152600401611b2d90614b09565b60405180910390fd5b611b4284848484612bed565b50505050565b6060611b53826120ac565b611b92576040517f08c379a0000000000000000000000000000000000000000000000000000000008152600401611b8990615287565b60405180910390fd5b6000611b9c612c49565b90506000815111611bbc5760405180602001604052806000815250611be7565b80611bc684612cdb565b604051602001611bd79291906152e3565b6040516020818303038152906040525b915050919050565b6000611c0c60016000848152602001908152602001600020612e3b565b9050919050565b7f9f2df0fed2c77648de5860a4cc508cd0818c85b8b8a1ab4ceeef8d981c8956a681565b611c4082610f14565b611c4981612551565b611c538383612599565b505050565b6010600082815260200190815260200160002060009054906101000a900460ff16611cb8576040517f08c379a0000000000000000000000000000000000000000000000000000000008152600401611caf90615379565b60405180910390fd5b60006010600083815260200190815260200160002060006101000a81548160ff021916908315150217905550600f60009054906101000a900473ffffffffffffffffffffffffffffffffffffffff1673ffffffffffffffffffffffffffffffffffffffff1663a9059cbb6012600084815260200190815260200160002060009054906101000a900473ffffffffffffffffffffffffffffffffffffffff1660116000858152602001908152602001600020546040518363ffffffff1660e01b8152600401611d87929190615399565b6020604051808303816000875af1158015611da6573d6000803e3d6000fd5b505050506040513d601f19601f82011682018060405250810190611dca91906153d7565b50611ddd30611dd7612118565b83610eb4565b7fe03421b19371ef8120668a5bb0965b3c768e66ed81e6c73e52043d2be48077a86012600083815260200190815260200160002060009054906101000a900473ffffffffffffffffffffffffffffffffffffffff16611e3a612118565b601160008581526020019081526020016000205484604051611e5f9493929190615404565b60405180910390a150565b7f65d7a28e3265b37a6474929f336521b332c1681b933f6cb9f3376673440d862a81565b6000600760008473ffffffffffffffffffffffffffffffffffffffff1673ffffffffffffffffffffffffffffffffffffffff16815260200190815260200160002060008373ffffffffffffffffffffffffffffffffffffffff1673ffffffffffffffffffffffffffffffffffffffff16815260200190815260200160002060009054906101000a900460ff16905092915050565b611f2c8282611800565b611ffe57600160008084815260200190815260200160002060000160008373ffffffffffffffffffffffffffffffffffffffff1673ffffffffffffffffffffffffffffffffffffffff16815260200190815260200160002060006101000a81548160ff021916908315150217905550611fa3612118565b73ffffffffffffffffffffffffffffffffffffffff168173ffffffffffffffffffffffffffffffffffffffff16837f2f8788117e7eff1d82e926ec794901d17c78024a50270940304540a733656f0d60405160405180910390a45b5050565b600061202a836000018373ffffffffffffffffffffffffffffffffffffffff1660001b612e50565b905092915050565b60007f780e9d63000000000000000000000000000000000000000000000000000000007bffffffffffffffffffffffffffffffffffffffffffffffffffffffff1916827bffffffffffffffffffffffffffffffffffffffffffffffffffffffff191614806120a557506120a482612ec0565b5b9050919050565b60008073ffffffffffffffffffffffffffffffffffffffff166004600084815260200190815260200160002060009054906101000a900473ffffffffffffffffffffffffffffffffffffffff1673ffffffffffffffffffffffffffffffffffffffff1614159050919050565b600033905090565b816006600083815260200190815260200160002060006101000a81548173ffffffffffffffffffffffffffffffffffffffff021916908373ffffffffffffffffffffffffffffffffffffffff160217905550808273ffffffffffffffffffffffffffffffffffffffff1661219383611315565b73ffffffffffffffffffffffffffffffffffffffff167f8c5be1e5ebec7d5bd14f71427d1e84f3dd0314c0f7b2291e5b200ac8c7c3b92560405160405180910390a45050565b60006121e4826120ac565b612223576040517f08c379a000000000000000000000000000000000000000000000000000000000815260040161221a906154bb565b60405180910390fd5b600061222e83611315565b90508073ffffffffffffffffffffffffffffffffffffffff168473ffffffffffffffffffffffffffffffffffffffff161480612270575061226f8185611e8e565b5b806122ae57508373ffffffffffffffffffffffffffffffffffffffff166122968461082c565b73ffffffffffffffffffffffffffffffffffffffff16145b91505092915050565b6000818313156122c757816122c9565b825b905092915050565b6000818312156122e157816122e3565b825b905092915050565b8273ffffffffffffffffffffffffffffffffffffffff1661230b82611315565b73ffffffffffffffffffffffffffffffffffffffff1614612361576040517f08c379a00000000000000000000000000000000000000000000000000000000081526004016123589061554d565b60405180910390fd5b600073ffffffffffffffffffffffffffffffffffffffff168273ffffffffffffffffffffffffffffffffffffffff16036123d0576040517f08c379a00000000000000000000000000000000000000000000000000000000081526004016123c7906155df565b60405180910390fd5b6123db838383612fa2565b6123e6600082612120565b6001600560008573ffffffffffffffffffffffffffffffffffffffff1673ffffffffffffffffffffffffffffffffffffffff168152602001908152602001600020600082825461243691906155ff565b925050819055506001600560008473ffffffffffffffffffffffffffffffffffffffff1673ffffffffffffffffffffffffffffffffffffffff168152602001908152602001600020600082825461248d9190615633565b92505081905550816004600083815260200190815260200160002060006101000a81548173ffffffffffffffffffffffffffffffffffffffff021916908373ffffffffffffffffffffffffffffffffffffffff160217905550808273ffffffffffffffffffffffffffffffffffffffff168473ffffffffffffffffffffffffffffffffffffffff167fddf252ad1be2c89b69c2b068fc378daa952ba7f163c4a11628f55a4df523b3ef60405160405180910390a461254c838383612fb2565b505050565b6125628161255d612118565b612fb7565b50565b61256f8282611f22565b612594816001600085815260200190815260200160002061200290919063ffffffff16565b505050565b6125a38282613054565b6125c8816001600085815260200190815260200160002061313590919063ffffffff16565b505050565b6125d56112fe565b612614576040517f08c379a000000000000000000000000000000000000000000000000000000000815260040161260b906156d5565b60405180910390fd5b6000600c60006101000a81548160ff0219169083151502179055507f5db9ee0a495bf2e6ff9c91a7834c1ba4fdd244a5e8aa4e537bd38aeae4b073aa612658612118565b6040516126659190613ef0565b60405180910390a1565b600061267a82611315565b905061268881600084612fa2565b612693600083612120565b6001600560008373ffffffffffffffffffffffffffffffffffffffff1673ffffffffffffffffffffffffffffffffffffffff16815260200190815260200160002060008282546126e391906155ff565b925050819055506004600083815260200190815260200160002060006101000a81549073ffffffffffffffffffffffffffffffffffffffff021916905581600073ffffffffffffffffffffffffffffffffffffffff168273ffffffffffffffffffffffffffffffffffffffff167fddf252ad1be2c89b69c2b068fc378daa952ba7f163c4a11628f55a4df523b3ef60405160405180910390a461278881600084612fb2565b5050565b600081600001549050919050565b600073ffffffffffffffffffffffffffffffffffffffff168273ffffffffffffffffffffffffffffffffffffffff1603612809576040517f08c379a000000000000000000000000000000000000000000000000000000000815260040161280090615741565b60405180910390fd5b612812816120ac565b15612852576040517f08c379a0000000000000000000000000000000000000000000000000000000008152600401612849906157ad565b60405180910390fd5b61285e60008383612fa2565b6001600560008473ffffffffffffffffffffffffffffffffffffffff1673ffffffffffffffffffffffffffffffffffffffff16815260200190815260200160002060008282546128ae9190615633565b92505081905550816004600083815260200190815260200160002060006101000a81548173ffffffffffffffffffffffffffffffffffffffff021916908373ffffffffffffffffffffffffffffffffffffffff160217905550808273ffffffffffffffffffffffffffffffffffffffff16600073ffffffffffffffffffffffffffffffffffffffff167fddf252ad1be2c89b69c2b068fc378daa952ba7f163c4a11628f55a4df523b3ef60405160405180910390a461296f60008383612fb2565b5050565b6001816000016000828254019250508190555050565b60008160400151826060015161299f91906157cd565b826000015183602001516129b391906157cd565b6129bd9190615861565b9050919050565b6129cc6112fe565b15612a0c576040517f08c379a0000000000000000000000000000000000000000000000000000000008152600401612a03906159c4565b60405180910390fd5b6001600c60006101000a81548160ff0219169083151502179055507f62e78cea01bee320cd4e420270b5ea74000d11b0c9f74754ebdbfc544b05a258612a50612118565b604051612a5d9190613ef0565b60405180910390a1565b6000612a768360000183613165565b60001c905092915050565b8173ffffffffffffffffffffffffffffffffffffffff168373ffffffffffffffffffffffffffffffffffffffff1603612aef576040517f08c379a0000000000000000000000000000000000000000000000000000000008152600401612ae690615a30565b60405180910390fd5b80600760008573ffffffffffffffffffffffffffffffffffffffff1673ffffffffffffffffffffffffffffffffffffffff16815260200190815260200160002060008473ffffffffffffffffffffffffffffffffffffffff1673ffffffffffffffffffffffffffffffffffffffff16815260200190815260200160002060006101000a81548160ff0219169083151502179055508173ffffffffffffffffffffffffffffffffffffffff168373ffffffffffffffffffffffffffffffffffffffff167f17307eab39ab6107e8899845ad3d59bd9653f200f220920489ca2b5937696c3183604051612be09190613d76565b60405180910390a3505050565b612bf88484846122eb565b612c0484848484613190565b612c43576040517f08c379a0000000000000000000000000000000000000000000000000000000008152600401612c3a90615ac2565b60405180910390fd5b50505050565b6060600e8054612c58906145fc565b80601f0160208091040260200160405190810160405280929190818152602001828054612c84906145fc565b8015612cd15780601f10612ca657610100808354040283529160200191612cd1565b820191906000526020600020905b815481529060010190602001808311612cb457829003601f168201915b5050505050905090565b606060008203612d22576040518060400160405280600181526020017f30000000000000000000000000000000000000000000000000000000000000008152509050612e36565b600082905060005b60008214612d54578080612d3d906150a9565b915050600a82612d4d9190615b11565b9150612d2a565b60008167ffffffffffffffff811115612d7057612d6f614106565b5b6040519080825280601f01601f191660200182016040528015612da25781602001600182028036833780820191505090505b5090505b60008514612e2f57600182612dbb91906155ff565b9150600a85612dca9190615b42565b6030612dd69190615633565b60f81b818381518110612dec57612deb614e95565b5b60200101907effffffffffffffffffffffffffffffffffffffffffffffffffffffffffffff1916908160001a905350600a85612e289190615b11565b9450612da6565b8093505050505b919050565b6000612e4982600001613317565b9050919050565b6000612e5c8383613328565b612eb5578260000182908060018154018082558091505060019003906000526020600020016000909190919091505582600001805490508360010160008481526020019081526020016000208190555060019050612eba565b600090505b92915050565b60007f80ac58cd000000000000000000000000000000000000000000000000000000007bffffffffffffffffffffffffffffffffffffffffffffffffffffffff1916827bffffffffffffffffffffffffffffffffffffffffffffffffffffffff19161480612f8b57507f5b5e139f000000000000000000000000000000000000000000000000000000007bffffffffffffffffffffffffffffffffffffffffffffffffffffffff1916827bffffffffffffffffffffffffffffffffffffffffffffffffffffffff1916145b80612f9b5750612f9a8261334b565b5b9050919050565b612fad8383836133c5565b505050565b505050565b612fc18282611800565b61305057612fe68173ffffffffffffffffffffffffffffffffffffffff16601461341d565b612ff48360001c602061341d565b604051602001613005929190615c0b565b6040516020818303038152906040526040517f08c379a00000000000000000000000000000000000000000000000000000000081526004016130479190613e2a565b60405180910390fd5b5050565b61305e8282611800565b1561313157600080600084815260200190815260200160002060000160008373ffffffffffffffffffffffffffffffffffffffff1673ffffffffffffffffffffffffffffffffffffffff16815260200190815260200160002060006101000a81548160ff0219169083151502179055506130d6612118565b73ffffffffffffffffffffffffffffffffffffffff168173ffffffffffffffffffffffffffffffffffffffff16837ff6391f5c32d9c69d2a47ea670b442974b53935d1edc7fd64eb21e047a839171b60405160405180910390a45b5050565b600061315d836000018373ffffffffffffffffffffffffffffffffffffffff1660001b613659565b905092915050565b600082600001828154811061317d5761317c614e95565b5b9060005260206000200154905092915050565b60006131b18473ffffffffffffffffffffffffffffffffffffffff1661376d565b1561330a578373ffffffffffffffffffffffffffffffffffffffff1663150b7a026131da612118565b8786866040518563ffffffff1660e01b81526004016131fc9493929190615c9a565b6020604051808303816000875af192505050801561323857506040513d601f19601f820116820180604052508101906132359190615cfb565b60015b6132ba573d8060008114613268576040519150601f19603f3d011682016040523d82523d6000602084013e61326d565b606091505b5060008151036132b2576040517f08c379a00000000000000000000000000000000000000000000000000000000081526004016132a990615ac2565b60405180910390fd5b805181602001fd5b63150b7a0260e01b7bffffffffffffffffffffffffffffffffffffffffffffffffffffffff1916817bffffffffffffffffffffffffffffffffffffffffffffffffffffffff19161491505061330f565b600190505b949350505050565b600081600001805490509050919050565b600080836001016000848152602001908152602001600020541415905092915050565b60007f5a05180f000000000000000000000000000000000000000000000000000000007bffffffffffffffffffffffffffffffffffffffffffffffffffffffff1916827bffffffffffffffffffffffffffffffffffffffffffffffffffffffff191614806133be57506133bd82613790565b5b9050919050565b6133d083838361380a565b6133d86112fe565b15613418576040517f08c379a000000000000000000000000000000000000000000000000000000000815260040161340f90615d9a565b60405180910390fd5b505050565b6060600060028360026134309190615dba565b61343a9190615633565b67ffffffffffffffff81111561345357613452614106565b5b6040519080825280601f01601f1916602001820160405280156134855781602001600182028036833780820191505090505b5090507f3000000000000000000000000000000000000000000000000000000000000000816000815181106134bd576134bc614e95565b5b60200101907effffffffffffffffffffffffffffffffffffffffffffffffffffffffffffff1916908160001a9053507f78000000000000000000000000000000000000000000000000000000000000008160018151811061352157613520614e95565b5b60200101907effffffffffffffffffffffffffffffffffffffffffffffffffffffffffffff1916908160001a905350600060018460026135619190615dba565b61356b9190615633565b90505b600181111561360b577f3031323334353637383961626364656600000000000000000000000000000000600f8616601081106135ad576135ac614e95565b5b1a60f81b8282815181106135c4576135c3614e95565b5b60200101907effffffffffffffffffffffffffffffffffffffffffffffffffffffffffffff1916908160001a905350600485901c94508061360490615e14565b905061356e565b506000841461364f576040517f08c379a000000000000000000000000000000000000000000000000000000000815260040161364690615e89565b60405180910390fd5b8091505092915050565b6000808360010160008481526020019081526020016000205490506000811461376157600060018261368b91906155ff565b90506000600186600001805490506136a391906155ff565b90508181146137125760008660000182815481106136c4576136c3614e95565b5b90600052602060002001549050808760000184815481106136e8576136e7614e95565b5b90600052602060002001819055508387600101600083815260200190815260200160002081905550505b8560000180548061372657613725615ea9565b5b600190038181906000526020600020016000905590558560010160008681526020019081526020016000206000905560019350505050613767565b60009150505b92915050565b6000808273ffffffffffffffffffffffffffffffffffffffff163b119050919050565b60007f7965db0b000000000000000000000000000000000000000000000000000000007bffffffffffffffffffffffffffffffffffffffffffffffffffffffff1916827bffffffffffffffffffffffffffffffffffffffffffffffffffffffff1916148061380357506138028261391c565b5b9050919050565b613815838383613986565b600073ffffffffffffffffffffffffffffffffffffffff168373ffffffffffffffffffffffffffffffffffffffff1603613857576138528161398b565b613896565b8173ffffffffffffffffffffffffffffffffffffffff168373ffffffffffffffffffffffffffffffffffffffff16146138955761389483826139d4565b5b5b600073ffffffffffffffffffffffffffffffffffffffff168273ffffffffffffffffffffffffffffffffffffffff16036138d8576138d381613b41565b613917565b8273ffffffffffffffffffffffffffffffffffffffff168273ffffffffffffffffffffffffffffffffffffffff1614613916576139158282613c12565b5b5b505050565b60007f01ffc9a7000000000000000000000000000000000000000000000000000000007bffffffffffffffffffffffffffffffffffffffffffffffffffffffff1916827bffffffffffffffffffffffffffffffffffffffffffffffffffffffff1916149050919050565b505050565b600a80549050600b600083815260200190815260200160002081905550600a81908060018154018082558091505060019003906000526020600020016000909190919091505550565b600060016139e1846113d3565b6139eb91906155ff565b9050600060096000848152602001908152602001600020549050818114613ad0576000600860008673ffffffffffffffffffffffffffffffffffffffff1673ffffffffffffffffffffffffffffffffffffffff168152602001908152602001600020600084815260200190815260200160002054905080600860008773ffffffffffffffffffffffffffffffffffffffff1673ffffffffffffffffffffffffffffffffffffffff168152602001908152602001600020600084815260200190815260200160002081905550816009600083815260200190815260200160002081905550505b6009600084815260200190815260200160002060009055600860008573ffffffffffffffffffffffffffffffffffffffff1673ffffffffffffffffffffffffffffffffffffffff16815260200190815260200160002060008381526020019081526020016000206000905550505050565b60006001600a80549050613b5591906155ff565b90506000600b60008481526020019081526020016000205490506000600a8381548110613b8557613b84614e95565b5b9060005260206000200154905080600a8381548110613ba757613ba6614e95565b5b906000526020600020018190555081600b600083815260200190815260200160002081905550600b600085815260200190815260200160002060009055600a805480613bf657613bf5615ea9565b5b6001900381819060005260206000200160009055905550505050565b6000613c1d836113d3565b905081600860008573ffffffffffffffffffffffffffffffffffffffff1673ffffffffffffffffffffffffffffffffffffffff168152602001908152602001600020600083815260200190815260200160002081905550806009600084815260200190815260200160002081905550505050565b6040518060a00160405280600081526020016000815260200160008152602001600081526020016000151581525090565b6000604051905090565b600080fd5b600080fd5b60007fffffffff0000000000000000000000000000000000000000000000000000000082169050919050565b613d0b81613cd6565b8114613d1657600080fd5b50565b600081359050613d2881613d02565b92915050565b600060208284031215613d4457613d43613ccc565b5b6000613d5284828501613d19565b91505092915050565b60008115159050919050565b613d7081613d5b565b82525050565b6000602082019050613d8b6000830184613d67565b92915050565b600081519050919050565b600082825260208201905092915050565b60005b83811015613dcb578082015181840152602081019050613db0565b83811115613dda576000848401525b50505050565b6000601f19601f8301169050919050565b6000613dfc82613d91565b613e068185613d9c565b9350613e16818560208601613dad565b613e1f81613de0565b840191505092915050565b60006020820190508181036000830152613e448184613df1565b905092915050565b6000819050919050565b613e5f81613e4c565b8114613e6a57600080fd5b50565b600081359050613e7c81613e56565b92915050565b600060208284031215613e9857613e97613ccc565b5b6000613ea684828501613e6d565b91505092915050565b600073ffffffffffffffffffffffffffffffffffffffff82169050919050565b6000613eda82613eaf565b9050919050565b613eea81613ecf565b82525050565b6000602082019050613f056000830184613ee1565b92915050565b613f1481613ecf565b8114613f1f57600080fd5b50565b600081359050613f3181613f0b565b92915050565b60008060408385031215613f4e57613f4d613ccc565b5b6000613f5c85828601613f22565b9250506020613f6d85828601613e6d565b9150509250929050565b613f8081613e4c565b82525050565b6000602082019050613f9b6000830184613f77565b92915050565b60008060408385031215613fb857613fb7613ccc565b5b6000613fc685828601613e6d565b9250506020613fd785828601613e6d565b9150509250929050565b600080600060608486031215613ffa57613ff9613ccc565b5b600061400886828701613f22565b935050602061401986828701613f22565b925050604061402a86828701613e6d565b9150509250925092565b6000819050919050565b61404781614034565b811461405257600080fd5b50565b6000813590506140648161403e565b92915050565b6000602082840312156140805761407f613ccc565b5b600061408e84828501614055565b91505092915050565b6140a081614034565b82525050565b60006020820190506140bb6000830184614097565b92915050565b600080604083850312156140d8576140d7613ccc565b5b60006140e685828601614055565b92505060206140f785828601613f22565b9150509250929050565b600080fd5b7f4e487b7100000000000000000000000000000000000000000000000000000000600052604160045260246000fd5b61413e82613de0565b810181811067ffffffffffffffff8211171561415d5761415c614106565b5b80604052505050565b6000614170613cc2565b905061417c8282614135565b919050565b6000819050919050565b61419481614181565b811461419f57600080fd5b50565b6000813590506141b18161418b565b92915050565b6141c081613d5b565b81146141cb57600080fd5b50565b6000813590506141dd816141b7565b92915050565b600060a082840312156141f9576141f8614101565b5b61420360a0614166565b90506000614213848285016141a2565b6000830152506020614227848285016141a2565b602083015250604061423b848285016141a2565b604083015250606061424f848285016141a2565b6060830152506080614263848285016141ce565b60808301525092915050565b60008060c0838503121561428657614285613ccc565b5b600061429485828601613e6d565b92505060206142a5858286016141e3565b9150509250929050565b6000602082840312156142c5576142c4613ccc565b5b60006142d384828501613f22565b91505092915050565b6000806000606084860312156142f5576142f4613ccc565b5b600061430386828701613e6d565b9350506020614314868287016141a2565b9250506040614325868287016141a2565b9150509250925092565b6000806040838503121561434657614345613ccc565b5b600061435485828601614055565b925050602061436585828601613e6d565b9150509250929050565b6000806040838503121561438657614385613ccc565b5b600061439485828601613f22565b92505060206143a5858286016141ce565b9150509250929050565b6143b881614181565b82525050565b6143c781613d5b565b82525050565b60a0820160008201516143e360008501826143af565b5060208201516143f660208501826143af565b50604082015161440960408501826143af565b50606082015161441c60608501826143af565b50608082015161442f60808501826143be565b50505050565b600060a08201905061444a60008301846143cd565b92915050565b600080fd5b600080fd5b600067ffffffffffffffff82111561447557614474614106565b5b61447e82613de0565b9050602081019050919050565b82818337600083830152505050565b60006144ad6144a88461445a565b614166565b9050828152602081018484840111156144c9576144c8614455565b5b6144d484828561448b565b509392505050565b600082601f8301126144f1576144f0614450565b5b813561450184826020860161449a565b91505092915050565b6000806000806080858703121561452457614523613ccc565b5b600061453287828801613f22565b945050602061454387828801613f22565b935050604061455487828801613e6d565b925050606085013567ffffffffffffffff81111561457557614574613cd1565b5b614581878288016144dc565b91505092959194509250565b600080604083850312156145a4576145a3613ccc565b5b60006145b285828601613f22565b92505060206145c385828601613f22565b9150509250929050565b7f4e487b7100000000000000000000000000000000000000000000000000000000600052602260045260246000fd5b6000600282049050600182168061461457607f821691505b602082108103614627576146266145cd565b5b50919050565b7f4552433732313a20617070726f76656420717565727920666f72206e6f6e657860008201527f697374656e7420746f6b656e0000000000000000000000000000000000000000602082015250565b6000614689602c83613d9c565b91506146948261462d565b604082019050919050565b600060208201905081810360008301526146b88161467c565b9050919050565b7f4552433732313a20617070726f76616c20746f2063757272656e74206f776e6560008201527f7200000000000000000000000000000000000000000000000000000000000000602082015250565b600061471b602183613d9c565b9150614726826146bf565b604082019050919050565b6000602082019050818103600083015261474a8161470e565b9050919050565b7f4552433732313a20617070726f76652063616c6c6572206973206e6f74206f7760008201527f6e6572206e6f7220617070726f76656420666f7220616c6c0000000000000000602082015250565b60006147ad603883613d9c565b91506147b882614751565b604082019050919050565b600060208201905081810360008301526147dc816147a0565b9050919050565b7f45524337323153616c61626c653a207472616e736665722063616c6c6572206960008201527f73206e6f74206f776e6572206e6f7220617070726f7665640000000000000000602082015250565b600061483f603883613d9c565b915061484a826147e3565b604082019050919050565b6000602082019050818103600083015261486e81614832565b9050919050565b7f45524337323153616c61626c653a2055524920717565727920666f72206e6f6e60008201527f6578697374656e7420746f6b656e000000000000000000000000000000000000602082015250565b60006148d1602e83613d9c565b91506148dc82614875565b604082019050919050565b60006020820190508181036000830152614900816148c4565b9050919050565b7f4552433732314c616e643a2072657175726520746f6b656e4964206578697374600082015250565b600061493d602083613d9c565b915061494882614907565b602082019050919050565b6000602082019050818103600083015261496c81614930565b9050919050565b7f4552433732314c616e643a2063616c6c6572206973206e6f74206f776e65722060008201527f6e6f7220617070726f7665640000000000000000000000000000000000000000602082015250565b60006149cf602c83613d9c565b91506149da82614973565b604082019050919050565b600060208201905081810360008301526149fe816149c2565b9050919050565b7f4552433732314c616e643a20746172676574732073686f756c6465206265207260008201527f656374616e676c65206c616e64206166746572206d6572676564000000000000602082015250565b6000614a61603a83613d9c565b9150614a6c82614a05565b604082019050919050565b60006020820190508181036000830152614a9081614a54565b9050919050565b7f4552433732313a207472616e736665722063616c6c6572206973206e6f74206f60008201527f776e6572206e6f7220617070726f766564000000000000000000000000000000602082015250565b6000614af3603183613d9c565b9150614afe82614a97565b604082019050919050565b60006020820190508181036000830152614b2281614ae6565b9050919050565b7f455243373231456e756d657261626c653a206f776e657220696e646578206f7560008201527f74206f6620626f756e6473000000000000000000000000000000000000000000602082015250565b6000614b85602b83613d9c565b9150614b9082614b29565b604082019050919050565b60006020820190508181036000830152614bb481614b78565b9050919050565b7f416363657373436f6e74726f6c3a2063616e206f6e6c792072656e6f756e636560008201527f20726f6c657320666f722073656c660000000000000000000000000000000000602082015250565b6000614c17602f83613d9c565b9150614c2282614bbb565b604082019050919050565b60006020820190508181036000830152614c4681614c0a565b9050919050565b7f4552433732315072657365744d696e7465725061757365724175746f49643a2060008201527f6d75737420686176652070617573657220726f6c6520746f20756e7061757365602082015250565b6000614ca9604083613d9c565b9150614cb482614c4d565b604082019050919050565b60006020820190508181036000830152614cd881614c9c565b9050919050565b7f4552433732314275726e61626c653a2063616c6c6572206973206e6f74206f7760008201527f6e6572206e6f7220617070726f76656400000000000000000000000000000000602082015250565b6000614d3b603083613d9c565b9150614d4682614cdf565b604082019050919050565b60006020820190508181036000830152614d6a81614d2e565b9050919050565b7f4552433732315072657365744d696e7465725061757365724175746f49643a2060008201527f6d7573742068617665206d696e74657220726f6c6520746f206d696e74000000602082015250565b6000614dcd603d83613d9c565b9150614dd882614d71565b604082019050919050565b60006020820190508181036000830152614dfc81614dc0565b9050919050565b7f455243373231456e756d657261626c653a20676c6f62616c20696e646578206f60008201527f7574206f6620626f756e64730000000000000000000000000000000000000000602082015250565b6000614e5f602c83613d9c565b9150614e6a82614e03565b604082019050919050565b60006020820190508181036000830152614e8e81614e52565b9050919050565b7f4e487b7100000000000000000000000000000000000000000000000000000000600052603260045260246000fd5b7f4552433732313a206f776e657220717565727920666f72206e6f6e657869737460008201527f656e7420746f6b656e0000000000000000000000000000000000000000000000602082015250565b6000614f20602983613d9c565b9150614f2b82614ec4565b604082019050919050565b60006020820190508181036000830152614f4f81614f13565b9050919050565b7f4552433732313a2062616c616e636520717565727920666f7220746865207a6560008201527f726f206164647265737300000000000000000000000000000000000000000000602082015250565b6000614fb2602a83613d9c565b9150614fbd82614f56565b604082019050919050565b60006020820190508181036000830152614fe181614fa5565b9050919050565b7f4552433732314c616e643a206d7573742068617665206d696e74657220726f6c60008201527f6520746f206d696e740000000000000000000000000000000000000000000000602082015250565b6000615044602983613d9c565b915061504f82614fe8565b604082019050919050565b6000602082019050818103600083015261507381615037565b9050919050565b7f4e487b7100000000000000000000000000000000000000000000000000000000600052601160045260246000fd5b60006150b482613e4c565b91507fffffffffffffffffffffffffffffffffffffffffffffffffffffffffffffffff82036150e6576150e561507a565b5b600182019050919050565b7f4552433732315072657365744d696e7465725061757365724175746f49643a2060008201527f6d75737420686176652070617573657220726f6c6520746f2070617573650000602082015250565b600061514d603e83613d9c565b9150615158826150f1565b604082019050919050565b6000602082019050818103600083015261517c81615140565b9050919050565b7f45524337323153616c61626c653a20796f75277265206e6f742073616c65722060008201527f6f66207468697320746f6b656e2e000000000000000000000000000000000000602082015250565b60006151df602e83613d9c565b91506151ea82615183565b604082019050919050565b6000602082019050818103600083015261520e816151d2565b9050919050565b7f4552433732314d657461646174613a2055524920717565727920666f72206e6f60008201527f6e6578697374656e7420746f6b656e0000000000000000000000000000000000602082015250565b6000615271602f83613d9c565b915061527c82615215565b604082019050919050565b600060208201905081810360008301526152a081615264565b9050919050565b600081905092915050565b60006152bd82613d91565b6152c781856152a7565b93506152d7818560208601613dad565b80840191505092915050565b60006152ef82856152b2565b91506152fb82846152b2565b91508190509392505050565b7f45524337323153616c61626c653a207468697320746f6b656e206973206e6f7460008201527f2073616c61626c65000000000000000000000000000000000000000000000000602082015250565b6000615363602883613d9c565b915061536e82615307565b604082019050919050565b6000602082019050818103600083015261539281615356565b9050919050565b60006040820190506153ae6000830185613ee1565b6153bb6020830184613f77565b9392505050565b6000815190506153d1816141b7565b92915050565b6000602082840312156153ed576153ec613ccc565b5b60006153fb848285016153c2565b91505092915050565b60006080820190506154196000830187613ee1565b6154266020830186613ee1565b6154336040830185613f77565b6154406060830184613f77565b95945050505050565b7f4552433732313a206f70657261746f7220717565727920666f72206e6f6e657860008201527f697374656e7420746f6b656e0000000000000000000000000000000000000000602082015250565b60006154a5602c83613d9c565b91506154b082615449565b604082019050919050565b600060208201905081810360008301526154d481615498565b9050919050565b7f4552433732313a207472616e736665722066726f6d20696e636f72726563742060008201527f6f776e6572000000000000000000000000000000000000000000000000000000602082015250565b6000615537602583613d9c565b9150615542826154db565b604082019050919050565b600060208201905081810360008301526155668161552a565b9050919050565b7f4552433732313a207472616e7366657220746f20746865207a65726f2061646460008201527f7265737300000000000000000000000000000000000000000000000000000000602082015250565b60006155c9602483613d9c565b91506155d48261556d565b604082019050919050565b600060208201905081810360008301526155f8816155bc565b9050919050565b600061560a82613e4c565b915061561583613e4c565b9250828210156156285761562761507a565b5b828203905092915050565b600061563e82613e4c565b915061564983613e4c565b9250827fffffffffffffffffffffffffffffffffffffffffffffffffffffffffffffffff0382111561567e5761567d61507a565b5b828201905092915050565b7f5061757361626c653a206e6f7420706175736564000000000000000000000000600082015250565b60006156bf601483613d9c565b91506156ca82615689565b602082019050919050565b600060208201905081810360008301526156ee816156b2565b9050919050565b7f4552433732313a206d696e7420746f20746865207a65726f2061646472657373600082015250565b600061572b602083613d9c565b9150615736826156f5565b602082019050919050565b6000602082019050818103600083015261575a8161571e565b9050919050565b7f4552433732313a20746f6b656e20616c7265616479206d696e74656400000000600082015250565b6000615797601c83613d9c565b91506157a282615761565b602082019050919050565b600060208201905081810360008301526157c68161578a565b9050919050565b60006157d882614181565b91506157e383614181565b9250827f80000000000000000000000000000000000000000000000000000000000000000182126000841215161561581e5761581d61507a565b5b827f7fffffffffffffffffffffffffffffffffffffffffffffffffffffffffffffff0182136000841216156158565761585561507a565b5b828203905092915050565b600061586c82614181565b915061587783614181565b9250827f7fffffffffffffffffffffffffffffffffffffffffffffffffffffffffffffff04821160008413600084131616156158b6576158b561507a565b5b817f800000000000000000000000000000000000000000000000000000000000000005831260008412600084131616156158f3576158f261507a565b5b827f800000000000000000000000000000000000000000000000000000000000000005821260008413600084121616156159305761592f61507a565b5b827f7fffffffffffffffffffffffffffffffffffffffffffffffffffffffffffffff058212600084126000841216161561596d5761596c61507a565b5b828202905092915050565b7f5061757361626c653a2070617573656400000000000000000000000000000000600082015250565b60006159ae601083613d9c565b91506159b982615978565b602082019050919050565b600060208201905081810360008301526159dd816159a1565b9050919050565b7f4552433732313a20617070726f766520746f2063616c6c657200000000000000600082015250565b6000615a1a601983613d9c565b9150615a25826159e4565b602082019050919050565b60006020820190508181036000830152615a4981615a0d565b9050919050565b7f4552433732313a207472616e7366657220746f206e6f6e20455243373231526560008201527f63656976657220696d706c656d656e7465720000000000000000000000000000602082015250565b6000615aac603283613d9c565b9150615ab782615a50565b604082019050919050565b60006020820190508181036000830152615adb81615a9f565b9050919050565b7f4e487b7100000000000000000000000000000000000000000000000000000000600052601260045260246000fd5b6000615b1c82613e4c565b9150615b2783613e4c565b925082615b3757615b36615ae2565b5b828204905092915050565b6000615b4d82613e4c565b9150615b5883613e4c565b925082615b6857615b67615ae2565b5b828206905092915050565b7f416363657373436f6e74726f6c3a206163636f756e7420000000000000000000600082015250565b6000615ba96017836152a7565b9150615bb482615b73565b601782019050919050565b7f206973206d697373696e6720726f6c6520000000000000000000000000000000600082015250565b6000615bf56011836152a7565b9150615c0082615bbf565b601182019050919050565b6000615c1682615b9c565b9150615c2282856152b2565b9150615c2d82615be8565b9150615c3982846152b2565b91508190509392505050565b600081519050919050565b600082825260208201905092915050565b6000615c6c82615c45565b615c768185615c50565b9350615c86818560208601613dad565b615c8f81613de0565b840191505092915050565b6000608082019050615caf6000830187613ee1565b615cbc6020830186613ee1565b615cc96040830185613f77565b8181036060830152615cdb8184615c61565b905095945050505050565b600081519050615cf581613d02565b92915050565b600060208284031215615d1157615d10613ccc565b5b6000615d1f84828501615ce6565b91505092915050565b7f4552433732315061757361626c653a20746f6b656e207472616e73666572207760008201527f68696c6520706175736564000000000000000000000000000000000000000000602082015250565b6000615d84602b83613d9c565b9150615d8f82615d28565b604082019050919050565b60006020820190508181036000830152615db381615d77565b9050919050565b6000615dc582613e4c565b9150615dd083613e4c565b9250817fffffffffffffffffffffffffffffffffffffffffffffffffffffffffffffffff0483118215151615615e0957615e0861507a565b5b828202905092915050565b6000615e1f82613e4c565b915060008203615e3257615e3161507a565b5b600182039050919050565b7f537472696e67733a20686578206c656e67746820696e73756666696369656e74600082015250565b6000615e73602083613d9c565b9150615e7e82615e3d565b602082019050919050565b60006020820190508181036000830152615ea281615e66565b9050919050565b7f4e487b7100000000000000000000000000000000000000000000000000000000600052603160045260246000fdfea2646970667358221220ff890cd17df076b0810dc4abecbc3137f040a933db3a5b983c067b7db88a400564736f6c634300080e0033",
  "immutableReferences": {},
  "source": "// SPDX-License-Identifier: MIT\n\npragma solidity ^0.8.0;\n\nimport \"../node_modules/@openzeppelin/contracts/token/ERC20/presets/ERC20PresetMinterPauser.sol\";\nimport \"../node_modules/@openzeppelin/contracts/token/ERC721/presets/ERC721PresetMinterPauserAutoId.sol\";\nimport \"./ERC721Salable.sol\";\n\ncontract ERC721Land is ERC721Salable {\n    using Counters for Counters.Counter;    \n    Counters.Counter private _tokenIdTracker;\n\n    struct Land\n    {\n        //[minX, maxX), [minY, maxY)\n        int minX;\n        int maxX;\n        int minY;\n        int maxY;\n        bool getFired;\n    }\n    \n    constructor(\n        string memory name, string memory symbol, string memory baseTokenURI, \n        ERC20PresetMinterPauser _erc20\n    ) ERC721PresetMinterPauserAutoId(name, symbol, baseTokenURI) ERC721Salable(_erc20) {}\n\n    function _area(Land memory land) pure internal returns (int) { return (land.maxX-land.minX)*(land.maxY-land.minY); }\n    function max(int a, int b) internal pure returns (int) {return a >= b ? a : b;}\n    function min(int a, int b) internal pure returns (int) {return a <= b ? a : b;}\n\n\n    //Mapping from tokenId address to a land\n    mapping(uint256 => Land) landOfToken;\n\n    //requre: send is owner\n    //split token to two, setTokenURI for original one, create new one\n    //send new one to sender\n\n    function mint(address to) override public virtual {\n        mintReturnTokenId(to);\n    }    \n\n    function mintReturnTokenId(address to) public virtual returns (uint256) {\n        require(hasRole(MINTER_ROLE, _msgSender()), \"ERC721Land: must have minter role to mint\");\n\n        // We cannot just use balanceOf to create the new tokenId because tokens\n        // can be burned (destroyed), so we need a separate counter.\n        _mint(to, _tokenIdTracker.current());\n        uint256 createdTokenId = _tokenIdTracker.current();\n        _tokenIdTracker.increment();\n        return createdTokenId;\n    }\n\n    function splitToken(uint256 tokenId, int splitX, int splitY) public virtual {\n        require(_exists(tokenId), \"ERC721Land: requre tokenId exist\");        \n        require(_isApprovedOrOwner(_msgSender(), tokenId), \"ERC721Land: caller is not owner nor approved\");\n        _burn(tokenId);\n\n        //split to 4\n        Land storage original = landOfToken[tokenId];\n        Land[4] memory res = [Land(original.minX,splitX,original.minY,splitY,false)\n                            , Land(splitX,original.maxX,original.minY,splitY,false)\n                            , Land(original.minX,splitX,splitY,original.maxY,false)\n                            , Land(splitX,original.maxX,splitY,original.maxY,false)];\n        //if has area, mint, setLand, send to sender\n        for (uint256 i=0; i<4; i++){\n            if (_area(res[i]) > 0){\n                uint256 createdTokenId = mintReturnTokenId(_msgSender());\n                setTokenLand(createdTokenId, res[i]);\n            }\n        }\n    }\n\n    function mergeToken(uint256 tokenIdA, uint256 tokenIdB) public virtual {\n        require(_exists(tokenIdA), \"ERC721Land: requre tokenId exist\");\n        require(_exists(tokenIdB), \"ERC721Land: requre tokenId exist\");\n        require(_isApprovedOrOwner(_msgSender(), tokenIdA), \"ERC721Land: caller is not owner nor approved\");\n        require(_isApprovedOrOwner(_msgSender(), tokenIdB), \"ERC721Land: caller is not owner nor approved\");\n\n        Land memory lA = landOfToken[tokenIdA];\n        Land memory lB = landOfToken[tokenIdB];\n        Land memory res;\n\n        //merge horizontal\n        if (lA.minY==lB.minY && lA.maxY==lB.maxY && (lA.maxX==lB.minX || lA.minX==lB.maxX)) {\n            res = Land(min(lA.minX,lB.minX), max(lA.maxX,lB.maxX), lA.minY, lA.maxY, false);\n        }\n        //merge vertical\n        else if (lA.minX==lB.minX && lA.maxX==lB.maxX && (lA.maxY==lB.minY || lA.minY==lB.maxY)) {\n            res = Land(lA.minX, lA.maxX, min(lA.minY,lB.minY), max(lA.maxY,lB.maxY), false);\n        }\n        //cannot merge to rectangle\n        else{\n            require(false, \"ERC721Land: targets shoulde be rectangle land after merged\");\n        }\n\n        //burn tokenB\n        //set tokenIdA's Land to res\n        burn(tokenIdB);\n        setTokenLand(tokenIdA, res);\n    }\n\n    function setTokenLand(uint256 tokenId, Land memory land) public virtual {\n        require(_exists(tokenId), \"ERC721Land: requre tokenId exist\");\n        require(hasRole(MINTER_ROLE, _msgSender()), \"ERC721PresetMinterPauserAutoId: must have minter role to mint\");\n        landOfToken[tokenId] = land;\n    }\n\n    function queryTokenLand(uint256 tokenId) public view virtual returns (Land memory){\n        require(_exists(tokenId), \"ERC721Land: requre tokenId exist\");\n        return landOfToken[tokenId];\n    }\n}",
  "sourcePath": "/Users/arutoriawhite/Repos/deadline-champion/truffle-project/contracts/ERC721Land.sol",
  "compiler": {
    "name": "solc",
    "version": "0.8.14+commit.80d49f37.Emscripten.clang"
  },
  "schemaVersion": "3.4.7",
  "updatedAt": "2022-06-08T13:49:37.944Z",
  "devdoc": {
    "kind": "dev",
    "methods": {
      "approve(address,uint256)": {
        "details": "See {IERC721-approve}."
      },
      "balanceOf(address)": {
        "details": "See {IERC721-balanceOf}."
      },
      "burn(uint256)": {
        "details": "Burns `tokenId`. See {ERC721-_burn}. Requirements: - The caller must own `tokenId` or be an approved operator."
      },
      "getApproved(uint256)": {
        "details": "See {IERC721-getApproved}."
      },
      "getRoleAdmin(bytes32)": {
        "details": "Returns the admin role that controls `role`. See {grantRole} and {revokeRole}. To change a role's admin, use {_setRoleAdmin}."
      },
      "getRoleMember(bytes32,uint256)": {
        "details": "Returns one of the accounts that have `role`. `index` must be a value between 0 and {getRoleMemberCount}, non-inclusive. Role bearers are not sorted in any particular way, and their ordering may change at any point. WARNING: When using {getRoleMember} and {getRoleMemberCount}, make sure you perform all queries on the same block. See the following https://forum.openzeppelin.com/t/iterating-over-elements-on-enumerableset-in-openzeppelin-contracts/2296[forum post] for more information."
      },
      "getRoleMemberCount(bytes32)": {
        "details": "Returns the number of accounts that have `role`. Can be used together with {getRoleMember} to enumerate all bearers of a role."
      },
      "grantRole(bytes32,address)": {
        "details": "Grants `role` to `account`. If `account` had not been already granted `role`, emits a {RoleGranted} event. Requirements: - the caller must have ``role``'s admin role."
      },
      "hasRole(bytes32,address)": {
        "details": "Returns `true` if `account` has been granted `role`."
      },
      "isApprovedForAll(address,address)": {
        "details": "See {IERC721-isApprovedForAll}."
      },
      "mint(address)": {
        "details": "Creates a new token for `to`. Its token ID will be automatically assigned (and available on the emitted {IERC721-Transfer} event), and the token URI autogenerated based on the base URI passed at construction. See {ERC721-_mint}. Requirements: - the caller must have the `MINTER_ROLE`."
      },
      "name()": {
        "details": "See {IERC721Metadata-name}."
      },
      "ownerOf(uint256)": {
        "details": "See {IERC721-ownerOf}."
      },
      "pause()": {
        "details": "Pauses all token transfers. See {ERC721Pausable} and {Pausable-_pause}. Requirements: - the caller must have the `PAUSER_ROLE`."
      },
      "paused()": {
        "details": "Returns true if the contract is paused, and false otherwise."
      },
      "renounceRole(bytes32,address)": {
        "details": "Revokes `role` from the calling account. Roles are often managed via {grantRole} and {revokeRole}: this function's purpose is to provide a mechanism for accounts to lose their privileges if they are compromised (such as when a trusted device is misplaced). If the calling account had been revoked `role`, emits a {RoleRevoked} event. Requirements: - the caller must be `account`."
      },
      "revokeRole(bytes32,address)": {
        "details": "Revokes `role` from `account`. If `account` had been granted `role`, emits a {RoleRevoked} event. Requirements: - the caller must have ``role``'s admin role."
      },
      "safeTransferFrom(address,address,uint256)": {
        "details": "See {IERC721-safeTransferFrom}."
      },
      "safeTransferFrom(address,address,uint256,bytes)": {
        "details": "See {IERC721-safeTransferFrom}."
      },
      "setApprovalForAll(address,bool)": {
        "details": "See {IERC721-setApprovalForAll}."
      },
      "supportsInterface(bytes4)": {
        "details": "See {IERC165-supportsInterface}."
      },
      "symbol()": {
        "details": "See {IERC721Metadata-symbol}."
      },
      "tokenByIndex(uint256)": {
        "details": "See {IERC721Enumerable-tokenByIndex}."
      },
      "tokenOfOwnerByIndex(address,uint256)": {
        "details": "See {IERC721Enumerable-tokenOfOwnerByIndex}."
      },
      "tokenURI(uint256)": {
        "details": "See {IERC721Metadata-tokenURI}."
      },
      "totalSupply()": {
        "details": "See {IERC721Enumerable-totalSupply}."
      },
      "transferFrom(address,address,uint256)": {
        "details": "See {IERC721-transferFrom}."
      },
      "unpause()": {
        "details": "Unpauses all token transfers. See {ERC721Pausable} and {Pausable-_unpause}. Requirements: - the caller must have the `PAUSER_ROLE`."
      }
    },
    "version": 1
  },
  "userdoc": {
    "kind": "user",
    "methods": {},
    "version": 1
  }
}