{
  "contractName": "Exchange",
  "abi": [
    {
      "inputs": [
        {
          "internalType": "string",
          "name": "ERC20name",
          "type": "string"
        },
        {
          "internalType": "string",
          "name": "ERC20symbol",
          "type": "string"
        },
        {
          "internalType": "string",
          "name": "ERC721name",
          "type": "string"
        },
        {
          "internalType": "string",
          "name": "ERC721symbol",
          "type": "string"
        },
        {
          "internalType": "string",
          "name": "ERC721baseTokenURI",
          "type": "string"
        }
      ],
      "stateMutability": "nonpayable",
      "type": "constructor"
    },
    {
      "inputs": [],
      "name": "getERC721Land",
      "outputs": [
        {
          "internalType": "contract ERC721Land",
          "name": "",
          "type": "address"
        }
      ],
      "stateMutability": "view",
      "type": "function"
    },
    {
      "inputs": [],
      "name": "getERC20Dlc",
      "outputs": [
        {
          "internalType": "contract ERC20Dlc",
          "name": "",
          "type": "address"
        }
      ],
      "stateMutability": "view",
      "type": "function"
    },
    {
      "inputs": [],
      "name": "getInsurance",
      "outputs": [
        {
          "internalType": "contract Insurance",
          "name": "",
          "type": "address"
        }
      ],
      "stateMutability": "view",
      "type": "function"
    }
  ],
  "bytecode": "0x60806040523480156200001157600080fd5b506040516200cfed3803806200cfed8339818101604052810190620000379190620003e1565b848460405162000047906200021a565b6200005492919062000561565b604051809103906000f08015801562000071573d6000803e3d6000fd5b50600160006101000a81548173ffffffffffffffffffffffffffffffffffffffff021916908373ffffffffffffffffffffffffffffffffffffffff160217905550828282600160009054906101000a900473ffffffffffffffffffffffffffffffffffffffff16604051620000e69062000228565b620000f5949392919062000627565b604051809103906000f08015801562000112573d6000803e3d6000fd5b506000806101000a81548173ffffffffffffffffffffffffffffffffffffffff021916908373ffffffffffffffffffffffffffffffffffffffff160217905550600160009054906101000a900473ffffffffffffffffffffffffffffffffffffffff1660008054906101000a900473ffffffffffffffffffffffffffffffffffffffff16604051620001a49062000236565b620001b1929190620006ae565b604051809103906000f080158015620001ce573d6000803e3d6000fd5b50600260006101000a81548173ffffffffffffffffffffffffffffffffffffffff021916908373ffffffffffffffffffffffffffffffffffffffff1602179055505050505050620006db565b61381d806200095083390190565b616747806200416d83390190565b612739806200a8b483390190565b6000604051905090565b600080fd5b600080fd5b600080fd5b600080fd5b6000601f19601f8301169050919050565b7f4e487b7100000000000000000000000000000000000000000000000000000000600052604160045260246000fd5b620002ad8262000262565b810181811067ffffffffffffffff82111715620002cf57620002ce62000273565b5b80604052505050565b6000620002e462000244565b9050620002f28282620002a2565b919050565b600067ffffffffffffffff82111562000315576200031462000273565b5b620003208262000262565b9050602081019050919050565b60005b838110156200034d57808201518184015260208101905062000330565b838111156200035d576000848401525b50505050565b60006200037a6200037484620002f7565b620002d8565b9050828152602081018484840111156200039957620003986200025d565b5b620003a68482856200032d565b509392505050565b600082601f830112620003c657620003c562000258565b5b8151620003d884826020860162000363565b91505092915050565b600080600080600060a086880312156200040057620003ff6200024e565b5b600086015167ffffffffffffffff81111562000421576200042062000253565b5b6200042f88828901620003ae565b955050602086015167ffffffffffffffff81111562000453576200045262000253565b5b6200046188828901620003ae565b945050604086015167ffffffffffffffff81111562000485576200048462000253565b5b6200049388828901620003ae565b935050606086015167ffffffffffffffff811115620004b757620004b662000253565b5b620004c588828901620003ae565b925050608086015167ffffffffffffffff811115620004e957620004e862000253565b5b620004f788828901620003ae565b9150509295509295909350565b600081519050919050565b600082825260208201905092915050565b60006200052d8262000504565b6200053981856200050f565b93506200054b8185602086016200032d565b620005568162000262565b840191505092915050565b600060408201905081810360008301526200057d818562000520565b9050818103602083015262000593818462000520565b90509392505050565b600073ffffffffffffffffffffffffffffffffffffffff82169050919050565b6000819050919050565b6000620005e7620005e1620005db846200059c565b620005bc565b6200059c565b9050919050565b6000620005fb82620005c6565b9050919050565b60006200060f82620005ee565b9050919050565b620006218162000602565b82525050565b6000608082019050818103600083015262000643818762000520565b9050818103602083015262000659818662000520565b905081810360408301526200066f818562000520565b905062000680606083018462000616565b95945050505050565b60006200069682620005ee565b9050919050565b620006a88162000689565b82525050565b6000604082019050620006c5600083018562000616565b620006d460208301846200069d565b9392505050565b61026580620006eb6000396000f3fe608060405234801561001057600080fd5b50600436106100415760003560e01c80630ea0f709146100465780631866b8c214610064578063267a8da014610082575b600080fd5b61004e6100a0565b60405161005b919061019c565b60405180910390f35b61006c6100c9565b60405161007991906101d8565b60405180910390f35b61008a6100f3565b6040516100979190610214565b60405180910390f35b60008060009054906101000a900473ffffffffffffffffffffffffffffffffffffffff16905090565b6000600160009054906101000a900473ffffffffffffffffffffffffffffffffffffffff16905090565b6000600260009054906101000a900473ffffffffffffffffffffffffffffffffffffffff16905090565b600073ffffffffffffffffffffffffffffffffffffffff82169050919050565b6000819050919050565b600061016261015d6101588461011d565b61013d565b61011d565b9050919050565b600061017482610147565b9050919050565b600061018682610169565b9050919050565b6101968161017b565b82525050565b60006020820190506101b1600083018461018d565b92915050565b60006101c282610169565b9050919050565b6101d2816101b7565b82525050565b60006020820190506101ed60008301846101c9565b92915050565b60006101fe82610169565b9050919050565b61020e816101f3565b82525050565b60006020820190506102296000830184610205565b9291505056fea2646970667358221220c93b8157083d7a339c804d339bb4919b987c0a8faa44a52994bfac3276677d7364736f6c634300080e003360806040523480156200001157600080fd5b506040516200381d3803806200381d83398181016040528101906200003791906200061d565b81818181816005908051906020019062000053929190620003d0565b5080600690805190602001906200006c929190620003d0565b5050506000600760006101000a81548160ff021916908315150217905550620000ae6000801b620000a26200013a60201b60201c565b6200014260201b60201c565b620000ef7f9f2df0fed2c77648de5860a4cc508cd0818c85b8b8a1ab4ceeef8d981c8956a6620000e36200013a60201b60201c565b6200014260201b60201c565b620001307f65d7a28e3265b37a6474929f336521b332c1681b933f6cb9f3376673440d862a620001246200013a60201b60201c565b6200014260201b60201c565b5050505062000706565b600033905090565b6200015482826200015860201b60201c565b5050565b6200016f8282620001a060201b62000d061760201c565b6200019b81600160008581526020019081526020016000206200029160201b62000de61790919060201c565b505050565b620001b28282620002c960201b60201c565b6200028d57600160008084815260200190815260200160002060000160008373ffffffffffffffffffffffffffffffffffffffff1673ffffffffffffffffffffffffffffffffffffffff16815260200190815260200160002060006101000a81548160ff021916908315150217905550620002326200013a60201b60201c565b73ffffffffffffffffffffffffffffffffffffffff168173ffffffffffffffffffffffffffffffffffffffff16837f2f8788117e7eff1d82e926ec794901d17c78024a50270940304540a733656f0d60405160405180910390a45b5050565b6000620002c1836000018373ffffffffffffffffffffffffffffffffffffffff1660001b6200033360201b60201c565b905092915050565b600080600084815260200190815260200160002060000160008373ffffffffffffffffffffffffffffffffffffffff1673ffffffffffffffffffffffffffffffffffffffff16815260200190815260200160002060009054906101000a900460ff16905092915050565b6000620003478383620003ad60201b60201c565b620003a2578260000182908060018154018082558091505060019003906000526020600020016000909190919091505582600001805490508360010160008481526020019081526020016000208190555060019050620003a7565b600090505b92915050565b600080836001016000848152602001908152602001600020541415905092915050565b828054620003de90620006d1565b90600052602060002090601f0160209004810192826200040257600085556200044e565b82601f106200041d57805160ff19168380011785556200044e565b828001600101855582156200044e579182015b828111156200044d57825182559160200191906001019062000430565b5b5090506200045d919062000461565b5090565b5b808211156200047c57600081600090555060010162000462565b5090565b6000604051905090565b600080fd5b600080fd5b600080fd5b600080fd5b6000601f19601f8301169050919050565b7f4e487b7100000000000000000000000000000000000000000000000000000000600052604160045260246000fd5b620004e9826200049e565b810181811067ffffffffffffffff821117156200050b576200050a620004af565b5b80604052505050565b60006200052062000480565b90506200052e8282620004de565b919050565b600067ffffffffffffffff821115620005515762000550620004af565b5b6200055c826200049e565b9050602081019050919050565b60005b83811015620005895780820151818401526020810190506200056c565b8381111562000599576000848401525b50505050565b6000620005b6620005b08462000533565b62000514565b905082815260208101848484011115620005d557620005d462000499565b5b620005e284828562000569565b509392505050565b600082601f83011262000602576200060162000494565b5b8151620006148482602086016200059f565b91505092915050565b600080604083850312156200063757620006366200048a565b5b600083015167ffffffffffffffff8111156200065857620006576200048f565b5b6200066685828601620005ea565b925050602083015167ffffffffffffffff8111156200068a57620006896200048f565b5b6200069885828601620005ea565b9150509250929050565b7f4e487b7100000000000000000000000000000000000000000000000000000000600052602260045260246000fd5b60006002820490506001821680620006ea57607f821691505b6020821081036200070057620006ff620006a2565b5b50919050565b61310780620007166000396000f3fe608060405234801561001057600080fd5b50600436106101c45760003560e01c806370a08231116100f9578063a457c2d711610097578063d539139311610071578063d53913931461052d578063d547741f1461054b578063dd62ed3e14610567578063e63ab1e914610597576101c4565b8063a457c2d71461049d578063a9059cbb146104cd578063ca15c873146104fd576101c4565b80639010d07c116100d35780639010d07c1461040157806391d148541461043157806395d89b4114610461578063a217fddf1461047f576101c4565b806370a08231146103ab57806379cc6790146103db5780638456cb59146103f7576101c4565b8063313ce567116101665780633f4ba83a116101405780633f4ba83a1461034b57806340c10f191461035557806342966c68146103715780635c975abb1461038d576101c4565b8063313ce567146102e157806336568abe146102ff578063395093511461031b576101c4565b806318160ddd116101a257806318160ddd1461024757806323b872dd14610265578063248a9ca3146102955780632f2ff15d146102c5576101c4565b806301ffc9a7146101c957806306fdde03146101f9578063095ea7b314610217575b600080fd5b6101e360048036038101906101de9190611f9d565b6105b5565b6040516101f09190611fe5565b60405180910390f35b61020161062f565b60405161020e9190612099565b60405180910390f35b610231600480360381019061022c919061214f565b6106c1565b60405161023e9190611fe5565b60405180910390f35b61024f6106e4565b60405161025c919061219e565b60405180910390f35b61027f600480360381019061027a91906121b9565b6106ee565b60405161028c9190611fe5565b60405180910390f35b6102af60048036038101906102aa9190612242565b61071d565b6040516102bc919061227e565b60405180910390f35b6102df60048036038101906102da9190612299565b61073c565b005b6102e961075d565b6040516102f691906122f5565b60405180910390f35b61031960048036038101906103149190612299565b610766565b005b6103356004803603810190610330919061214f565b6107e9565b6040516103429190611fe5565b60405180910390f35b610353610820565b005b61036f600480360381019061036a919061214f565b61089a565b005b61038b60048036038101906103869190612310565b610918565b005b61039561092c565b6040516103a29190611fe5565b60405180910390f35b6103c560048036038101906103c0919061233d565b610943565b6040516103d2919061219e565b60405180910390f35b6103f560048036038101906103f0919061214f565b61098c565b005b6103ff6109ac565b005b61041b6004803603810190610416919061236a565b610a26565b60405161042891906123b9565b60405180910390f35b61044b60048036038101906104469190612299565b610a55565b6040516104589190611fe5565b60405180910390f35b610469610abf565b6040516104769190612099565b60405180910390f35b610487610b51565b604051610494919061227e565b60405180910390f35b6104b760048036038101906104b2919061214f565b610b58565b6040516104c49190611fe5565b60405180910390f35b6104e760048036038101906104e2919061214f565b610bcf565b6040516104f49190611fe5565b60405180910390f35b61051760048036038101906105129190612242565b610bf2565b604051610524919061219e565b60405180910390f35b610535610c16565b604051610542919061227e565b60405180910390f35b61056560048036038101906105609190612299565b610c3a565b005b610581600480360381019061057c91906123d4565b610c5b565b60405161058e919061219e565b60405180910390f35b61059f610ce2565b6040516105ac919061227e565b60405180910390f35b60007f5a05180f000000000000000000000000000000000000000000000000000000007bffffffffffffffffffffffffffffffffffffffffffffffffffffffff1916827bffffffffffffffffffffffffffffffffffffffffffffffffffffffff19161480610628575061062782610e16565b5b9050919050565b60606005805461063e90612443565b80601f016020809104026020016040519081016040528092919081815260200182805461066a90612443565b80156106b75780601f1061068c576101008083540402835291602001916106b7565b820191906000526020600020905b81548152906001019060200180831161069a57829003601f168201915b5050505050905090565b6000806106cc610e90565b90506106d9818585610e98565b600191505092915050565b6000600454905090565b6000806106f9610e90565b9050610706858285611061565b6107118585856110ed565b60019150509392505050565b6000806000838152602001908152602001600020600101549050919050565b6107458261071d565b61074e8161136f565b6107588383611383565b505050565b60006012905090565b61076e610e90565b73ffffffffffffffffffffffffffffffffffffffff168173ffffffffffffffffffffffffffffffffffffffff16146107db576040517f08c379a00000000000000000000000000000000000000000000000000000000081526004016107d2906124e6565b60405180910390fd5b6107e582826113b7565b5050565b6000806107f4610e90565b90506108158185856108068589610c5b565b6108109190612535565b610e98565b600191505092915050565b6108517f65d7a28e3265b37a6474929f336521b332c1681b933f6cb9f3376673440d862a61084c610e90565b610a55565b610890576040517f08c379a0000000000000000000000000000000000000000000000000000000008152600401610887906125fd565b60405180910390fd5b6108986113eb565b565b6108cb7f9f2df0fed2c77648de5860a4cc508cd0818c85b8b8a1ab4ceeef8d981c8956a66108c6610e90565b610a55565b61090a576040517f08c379a00000000000000000000000000000000000000000000000000000000081526004016109019061268f565b60405180910390fd5b610914828261148d565b5050565b610929610923610e90565b826115ed565b50565b6000600760009054906101000a900460ff16905090565b6000600260008373ffffffffffffffffffffffffffffffffffffffff1673ffffffffffffffffffffffffffffffffffffffff168152602001908152602001600020549050919050565b61099e82610998610e90565b83611061565b6109a882826115ed565b5050565b6109dd7f65d7a28e3265b37a6474929f336521b332c1681b933f6cb9f3376673440d862a6109d8610e90565b610a55565b610a1c576040517f08c379a0000000000000000000000000000000000000000000000000000000008152600401610a1390612721565b60405180910390fd5b610a246117c5565b565b6000610a4d826001600086815260200190815260200160002061186890919063ffffffff16565b905092915050565b600080600084815260200190815260200160002060000160008373ffffffffffffffffffffffffffffffffffffffff1673ffffffffffffffffffffffffffffffffffffffff16815260200190815260200160002060009054906101000a900460ff16905092915050565b606060068054610ace90612443565b80601f0160208091040260200160405190810160405280929190818152602001828054610afa90612443565b8015610b475780601f10610b1c57610100808354040283529160200191610b47565b820191906000526020600020905b815481529060010190602001808311610b2a57829003601f168201915b5050505050905090565b6000801b81565b600080610b63610e90565b90506000610b718286610c5b565b905083811015610bb6576040517f08c379a0000000000000000000000000000000000000000000000000000000008152600401610bad906127b3565b60405180910390fd5b610bc38286868403610e98565b60019250505092915050565b600080610bda610e90565b9050610be78185856110ed565b600191505092915050565b6000610c0f60016000848152602001908152602001600020611882565b9050919050565b7f9f2df0fed2c77648de5860a4cc508cd0818c85b8b8a1ab4ceeef8d981c8956a681565b610c438261071d565b610c4c8161136f565b610c5683836113b7565b505050565b6000600360008473ffffffffffffffffffffffffffffffffffffffff1673ffffffffffffffffffffffffffffffffffffffff16815260200190815260200160002060008373ffffffffffffffffffffffffffffffffffffffff1673ffffffffffffffffffffffffffffffffffffffff16815260200190815260200160002054905092915050565b7f65d7a28e3265b37a6474929f336521b332c1681b933f6cb9f3376673440d862a81565b610d108282610a55565b610de257600160008084815260200190815260200160002060000160008373ffffffffffffffffffffffffffffffffffffffff1673ffffffffffffffffffffffffffffffffffffffff16815260200190815260200160002060006101000a81548160ff021916908315150217905550610d87610e90565b73ffffffffffffffffffffffffffffffffffffffff168173ffffffffffffffffffffffffffffffffffffffff16837f2f8788117e7eff1d82e926ec794901d17c78024a50270940304540a733656f0d60405160405180910390a45b5050565b6000610e0e836000018373ffffffffffffffffffffffffffffffffffffffff1660001b611897565b905092915050565b60007f7965db0b000000000000000000000000000000000000000000000000000000007bffffffffffffffffffffffffffffffffffffffffffffffffffffffff1916827bffffffffffffffffffffffffffffffffffffffffffffffffffffffff19161480610e895750610e8882611907565b5b9050919050565b600033905090565b600073ffffffffffffffffffffffffffffffffffffffff168373ffffffffffffffffffffffffffffffffffffffff1603610f07576040517f08c379a0000000000000000000000000000000000000000000000000000000008152600401610efe90612845565b60405180910390fd5b600073ffffffffffffffffffffffffffffffffffffffff168273ffffffffffffffffffffffffffffffffffffffff1603610f76576040517f08c379a0000000000000000000000000000000000000000000000000000000008152600401610f6d906128d7565b60405180910390fd5b80600360008573ffffffffffffffffffffffffffffffffffffffff1673ffffffffffffffffffffffffffffffffffffffff16815260200190815260200160002060008473ffffffffffffffffffffffffffffffffffffffff1673ffffffffffffffffffffffffffffffffffffffff168152602001908152602001600020819055508173ffffffffffffffffffffffffffffffffffffffff168373ffffffffffffffffffffffffffffffffffffffff167f8c5be1e5ebec7d5bd14f71427d1e84f3dd0314c0f7b2291e5b200ac8c7c3b92583604051611054919061219e565b60405180910390a3505050565b600061106d8484610c5b565b90507fffffffffffffffffffffffffffffffffffffffffffffffffffffffffffffffff81146110e757818110156110d9576040517f08c379a00000000000000000000000000000000000000000000000000000000081526004016110d090612943565b60405180910390fd5b6110e68484848403610e98565b5b50505050565b600073ffffffffffffffffffffffffffffffffffffffff168373ffffffffffffffffffffffffffffffffffffffff160361115c576040517f08c379a0000000000000000000000000000000000000000000000000000000008152600401611153906129d5565b60405180910390fd5b600073ffffffffffffffffffffffffffffffffffffffff168273ffffffffffffffffffffffffffffffffffffffff16036111cb576040517f08c379a00000000000000000000000000000000000000000000000000000000081526004016111c290612a67565b60405180910390fd5b6111d6838383611971565b6000600260008573ffffffffffffffffffffffffffffffffffffffff1673ffffffffffffffffffffffffffffffffffffffff1681526020019081526020016000205490508181101561125d576040517f08c379a000000000000000000000000000000000000000000000000000000000815260040161125490612af9565b60405180910390fd5b818103600260008673ffffffffffffffffffffffffffffffffffffffff1673ffffffffffffffffffffffffffffffffffffffff1681526020019081526020016000208190555081600260008573ffffffffffffffffffffffffffffffffffffffff1673ffffffffffffffffffffffffffffffffffffffff16815260200190815260200160002060008282546112f29190612535565b925050819055508273ffffffffffffffffffffffffffffffffffffffff168473ffffffffffffffffffffffffffffffffffffffff167fddf252ad1be2c89b69c2b068fc378daa952ba7f163c4a11628f55a4df523b3ef84604051611356919061219e565b60405180910390a3611369848484611981565b50505050565b6113808161137b610e90565b611986565b50565b61138d8282610d06565b6113b28160016000858152602001908152602001600020610de690919063ffffffff16565b505050565b6113c18282611a23565b6113e68160016000858152602001908152602001600020611b0490919063ffffffff16565b505050565b6113f361092c565b611432576040517f08c379a000000000000000000000000000000000000000000000000000000000815260040161142990612b65565b60405180910390fd5b6000600760006101000a81548160ff0219169083151502179055507f5db9ee0a495bf2e6ff9c91a7834c1ba4fdd244a5e8aa4e537bd38aeae4b073aa611476610e90565b60405161148391906123b9565b60405180910390a1565b600073ffffffffffffffffffffffffffffffffffffffff168273ffffffffffffffffffffffffffffffffffffffff16036114fc576040517f08c379a00000000000000000000000000000000000000000000000000000000081526004016114f390612bd1565b60405180910390fd5b61150860008383611971565b806004600082825461151a9190612535565b9250508190555080600260008473ffffffffffffffffffffffffffffffffffffffff1673ffffffffffffffffffffffffffffffffffffffff16815260200190815260200160002060008282546115709190612535565b925050819055508173ffffffffffffffffffffffffffffffffffffffff16600073ffffffffffffffffffffffffffffffffffffffff167fddf252ad1be2c89b69c2b068fc378daa952ba7f163c4a11628f55a4df523b3ef836040516115d5919061219e565b60405180910390a36115e960008383611981565b5050565b600073ffffffffffffffffffffffffffffffffffffffff168273ffffffffffffffffffffffffffffffffffffffff160361165c576040517f08c379a000000000000000000000000000000000000000000000000000000000815260040161165390612c63565b60405180910390fd5b61166882600083611971565b6000600260008473ffffffffffffffffffffffffffffffffffffffff1673ffffffffffffffffffffffffffffffffffffffff168152602001908152602001600020549050818110156116ef576040517f08c379a00000000000000000000000000000000000000000000000000000000081526004016116e690612cf5565b60405180910390fd5b818103600260008573ffffffffffffffffffffffffffffffffffffffff1673ffffffffffffffffffffffffffffffffffffffff1681526020019081526020016000208190555081600460008282546117479190612d15565b92505081905550600073ffffffffffffffffffffffffffffffffffffffff168373ffffffffffffffffffffffffffffffffffffffff167fddf252ad1be2c89b69c2b068fc378daa952ba7f163c4a11628f55a4df523b3ef846040516117ac919061219e565b60405180910390a36117c083600084611981565b505050565b6117cd61092c565b1561180d576040517f08c379a000000000000000000000000000000000000000000000000000000000815260040161180490612d95565b60405180910390fd5b6001600760006101000a81548160ff0219169083151502179055507f62e78cea01bee320cd4e420270b5ea74000d11b0c9f74754ebdbfc544b05a258611851610e90565b60405161185e91906123b9565b60405180910390a1565b60006118778360000183611b34565b60001c905092915050565b600061189082600001611b5f565b9050919050565b60006118a38383611b70565b6118fc578260000182908060018154018082558091505060019003906000526020600020016000909190919091505582600001805490508360010160008481526020019081526020016000208190555060019050611901565b600090505b92915050565b60007f01ffc9a7000000000000000000000000000000000000000000000000000000007bffffffffffffffffffffffffffffffffffffffffffffffffffffffff1916827bffffffffffffffffffffffffffffffffffffffffffffffffffffffff1916149050919050565b61197c838383611b93565b505050565b505050565b6119908282610a55565b611a1f576119b58173ffffffffffffffffffffffffffffffffffffffff166014611beb565b6119c38360001c6020611beb565b6040516020016119d4929190612e89565b6040516020818303038152906040526040517f08c379a0000000000000000000000000000000000000000000000000000000008152600401611a169190612099565b60405180910390fd5b5050565b611a2d8282610a55565b15611b0057600080600084815260200190815260200160002060000160008373ffffffffffffffffffffffffffffffffffffffff1673ffffffffffffffffffffffffffffffffffffffff16815260200190815260200160002060006101000a81548160ff021916908315150217905550611aa5610e90565b73ffffffffffffffffffffffffffffffffffffffff168173ffffffffffffffffffffffffffffffffffffffff16837ff6391f5c32d9c69d2a47ea670b442974b53935d1edc7fd64eb21e047a839171b60405160405180910390a45b5050565b6000611b2c836000018373ffffffffffffffffffffffffffffffffffffffff1660001b611e27565b905092915050565b6000826000018281548110611b4c57611b4b612ec3565b5b9060005260206000200154905092915050565b600081600001805490509050919050565b600080836001016000848152602001908152602001600020541415905092915050565b611b9e838383611f3b565b611ba661092c565b15611be6576040517f08c379a0000000000000000000000000000000000000000000000000000000008152600401611bdd90612f64565b60405180910390fd5b505050565b606060006002836002611bfe9190612f84565b611c089190612535565b67ffffffffffffffff811115611c2157611c20612fde565b5b6040519080825280601f01601f191660200182016040528015611c535781602001600182028036833780820191505090505b5090507f300000000000000000000000000000000000000000000000000000000000000081600081518110611c8b57611c8a612ec3565b5b60200101907effffffffffffffffffffffffffffffffffffffffffffffffffffffffffffff1916908160001a9053507f780000000000000000000000000000000000000000000000000000000000000081600181518110611cef57611cee612ec3565b5b60200101907effffffffffffffffffffffffffffffffffffffffffffffffffffffffffffff1916908160001a90535060006001846002611d2f9190612f84565b611d399190612535565b90505b6001811115611dd9577f3031323334353637383961626364656600000000000000000000000000000000600f861660108110611d7b57611d7a612ec3565b5b1a60f81b828281518110611d9257611d91612ec3565b5b60200101907effffffffffffffffffffffffffffffffffffffffffffffffffffffffffffff1916908160001a905350600485901c945080611dd29061300d565b9050611d3c565b5060008414611e1d576040517f08c379a0000000000000000000000000000000000000000000000000000000008152600401611e1490613082565b60405180910390fd5b8091505092915050565b60008083600101600084815260200190815260200160002054905060008114611f2f576000600182611e599190612d15565b9050600060018660000180549050611e719190612d15565b9050818114611ee0576000866000018281548110611e9257611e91612ec3565b5b9060005260206000200154905080876000018481548110611eb657611eb5612ec3565b5b90600052602060002001819055508387600101600083815260200190815260200160002081905550505b85600001805480611ef457611ef36130a2565b5b600190038181906000526020600020016000905590558560010160008681526020019081526020016000206000905560019350505050611f35565b60009150505b92915050565b505050565b600080fd5b60007fffffffff0000000000000000000000000000000000000000000000000000000082169050919050565b611f7a81611f45565b8114611f8557600080fd5b50565b600081359050611f9781611f71565b92915050565b600060208284031215611fb357611fb2611f40565b5b6000611fc184828501611f88565b91505092915050565b60008115159050919050565b611fdf81611fca565b82525050565b6000602082019050611ffa6000830184611fd6565b92915050565b600081519050919050565b600082825260208201905092915050565b60005b8381101561203a57808201518184015260208101905061201f565b83811115612049576000848401525b50505050565b6000601f19601f8301169050919050565b600061206b82612000565b612075818561200b565b935061208581856020860161201c565b61208e8161204f565b840191505092915050565b600060208201905081810360008301526120b38184612060565b905092915050565b600073ffffffffffffffffffffffffffffffffffffffff82169050919050565b60006120e6826120bb565b9050919050565b6120f6816120db565b811461210157600080fd5b50565b600081359050612113816120ed565b92915050565b6000819050919050565b61212c81612119565b811461213757600080fd5b50565b60008135905061214981612123565b92915050565b6000806040838503121561216657612165611f40565b5b600061217485828601612104565b92505060206121858582860161213a565b9150509250929050565b61219881612119565b82525050565b60006020820190506121b3600083018461218f565b92915050565b6000806000606084860312156121d2576121d1611f40565b5b60006121e086828701612104565b93505060206121f186828701612104565b92505060406122028682870161213a565b9150509250925092565b6000819050919050565b61221f8161220c565b811461222a57600080fd5b50565b60008135905061223c81612216565b92915050565b60006020828403121561225857612257611f40565b5b60006122668482850161222d565b91505092915050565b6122788161220c565b82525050565b6000602082019050612293600083018461226f565b92915050565b600080604083850312156122b0576122af611f40565b5b60006122be8582860161222d565b92505060206122cf85828601612104565b9150509250929050565b600060ff82169050919050565b6122ef816122d9565b82525050565b600060208201905061230a60008301846122e6565b92915050565b60006020828403121561232657612325611f40565b5b60006123348482850161213a565b91505092915050565b60006020828403121561235357612352611f40565b5b600061236184828501612104565b91505092915050565b6000806040838503121561238157612380611f40565b5b600061238f8582860161222d565b92505060206123a08582860161213a565b9150509250929050565b6123b3816120db565b82525050565b60006020820190506123ce60008301846123aa565b92915050565b600080604083850312156123eb576123ea611f40565b5b60006123f985828601612104565b925050602061240a85828601612104565b9150509250929050565b7f4e487b7100000000000000000000000000000000000000000000000000000000600052602260045260246000fd5b6000600282049050600182168061245b57607f821691505b60208210810361246e5761246d612414565b5b50919050565b7f416363657373436f6e74726f6c3a2063616e206f6e6c792072656e6f756e636560008201527f20726f6c657320666f722073656c660000000000000000000000000000000000602082015250565b60006124d0602f8361200b565b91506124db82612474565b604082019050919050565b600060208201905081810360008301526124ff816124c3565b9050919050565b7f4e487b7100000000000000000000000000000000000000000000000000000000600052601160045260246000fd5b600061254082612119565b915061254b83612119565b9250827fffffffffffffffffffffffffffffffffffffffffffffffffffffffffffffffff038211156125805761257f612506565b5b828201905092915050565b7f45524332305072657365744d696e7465725061757365723a206d75737420686160008201527f76652070617573657220726f6c6520746f20756e706175736500000000000000602082015250565b60006125e760398361200b565b91506125f28261258b565b604082019050919050565b60006020820190508181036000830152612616816125da565b9050919050565b7f45524332305072657365744d696e7465725061757365723a206d75737420686160008201527f7665206d696e74657220726f6c6520746f206d696e7400000000000000000000602082015250565b600061267960368361200b565b91506126848261261d565b604082019050919050565b600060208201905081810360008301526126a88161266c565b9050919050565b7f45524332305072657365744d696e7465725061757365723a206d75737420686160008201527f76652070617573657220726f6c6520746f207061757365000000000000000000602082015250565b600061270b60378361200b565b9150612716826126af565b604082019050919050565b6000602082019050818103600083015261273a816126fe565b9050919050565b7f45524332303a2064656372656173656420616c6c6f77616e63652062656c6f7760008201527f207a65726f000000000000000000000000000000000000000000000000000000602082015250565b600061279d60258361200b565b91506127a882612741565b604082019050919050565b600060208201905081810360008301526127cc81612790565b9050919050565b7f45524332303a20617070726f76652066726f6d20746865207a65726f2061646460008201527f7265737300000000000000000000000000000000000000000000000000000000602082015250565b600061282f60248361200b565b915061283a826127d3565b604082019050919050565b6000602082019050818103600083015261285e81612822565b9050919050565b7f45524332303a20617070726f766520746f20746865207a65726f20616464726560008201527f7373000000000000000000000000000000000000000000000000000000000000602082015250565b60006128c160228361200b565b91506128cc82612865565b604082019050919050565b600060208201905081810360008301526128f0816128b4565b9050919050565b7f45524332303a20696e73756666696369656e7420616c6c6f77616e6365000000600082015250565b600061292d601d8361200b565b9150612938826128f7565b602082019050919050565b6000602082019050818103600083015261295c81612920565b9050919050565b7f45524332303a207472616e736665722066726f6d20746865207a65726f20616460008201527f6472657373000000000000000000000000000000000000000000000000000000602082015250565b60006129bf60258361200b565b91506129ca82612963565b604082019050919050565b600060208201905081810360008301526129ee816129b2565b9050919050565b7f45524332303a207472616e7366657220746f20746865207a65726f206164647260008201527f6573730000000000000000000000000000000000000000000000000000000000602082015250565b6000612a5160238361200b565b9150612a5c826129f5565b604082019050919050565b60006020820190508181036000830152612a8081612a44565b9050919050565b7f45524332303a207472616e7366657220616d6f756e742065786365656473206260008201527f616c616e63650000000000000000000000000000000000000000000000000000602082015250565b6000612ae360268361200b565b9150612aee82612a87565b604082019050919050565b60006020820190508181036000830152612b1281612ad6565b9050919050565b7f5061757361626c653a206e6f7420706175736564000000000000000000000000600082015250565b6000612b4f60148361200b565b9150612b5a82612b19565b602082019050919050565b60006020820190508181036000830152612b7e81612b42565b9050919050565b7f45524332303a206d696e7420746f20746865207a65726f206164647265737300600082015250565b6000612bbb601f8361200b565b9150612bc682612b85565b602082019050919050565b60006020820190508181036000830152612bea81612bae565b9050919050565b7f45524332303a206275726e2066726f6d20746865207a65726f2061646472657360008201527f7300000000000000000000000000000000000000000000000000000000000000602082015250565b6000612c4d60218361200b565b9150612c5882612bf1565b604082019050919050565b60006020820190508181036000830152612c7c81612c40565b9050919050565b7f45524332303a206275726e20616d6f756e7420657863656564732062616c616e60008201527f6365000000000000000000000000000000000000000000000000000000000000602082015250565b6000612cdf60228361200b565b9150612cea82612c83565b604082019050919050565b60006020820190508181036000830152612d0e81612cd2565b9050919050565b6000612d2082612119565b9150612d2b83612119565b925082821015612d3e57612d3d612506565b5b828203905092915050565b7f5061757361626c653a2070617573656400000000000000000000000000000000600082015250565b6000612d7f60108361200b565b9150612d8a82612d49565b602082019050919050565b60006020820190508181036000830152612dae81612d72565b9050919050565b600081905092915050565b7f416363657373436f6e74726f6c3a206163636f756e7420000000000000000000600082015250565b6000612df6601783612db5565b9150612e0182612dc0565b601782019050919050565b6000612e1782612000565b612e218185612db5565b9350612e3181856020860161201c565b80840191505092915050565b7f206973206d697373696e6720726f6c6520000000000000000000000000000000600082015250565b6000612e73601183612db5565b9150612e7e82612e3d565b601182019050919050565b6000612e9482612de9565b9150612ea08285612e0c565b9150612eab82612e66565b9150612eb78284612e0c565b91508190509392505050565b7f4e487b7100000000000000000000000000000000000000000000000000000000600052603260045260246000fd5b7f45524332305061757361626c653a20746f6b656e207472616e7366657220776860008201527f696c652070617573656400000000000000000000000000000000000000000000602082015250565b6000612f4e602a8361200b565b9150612f5982612ef2565b604082019050919050565b60006020820190508181036000830152612f7d81612f41565b9050919050565b6000612f8f82612119565b9150612f9a83612119565b9250817fffffffffffffffffffffffffffffffffffffffffffffffffffffffffffffffff0483118215151615612fd357612fd2612506565b5b828202905092915050565b7f4e487b7100000000000000000000000000000000000000000000000000000000600052604160045260246000fd5b600061301882612119565b91506000820361302b5761302a612506565b5b600182039050919050565b7f537472696e67733a20686578206c656e67746820696e73756666696369656e74600082015250565b600061306c60208361200b565b915061307782613036565b602082019050919050565b6000602082019050818103600083015261309b8161305f565b9050919050565b7f4e487b7100000000000000000000000000000000000000000000000000000000600052603160045260246000fdfea2646970667358221220799db02a99e8e59f76f7c9d5939c9685cf5beb3148a84e78f7c730b0a59ccbe664736f6c634300080e003360806040523480156200001157600080fd5b5060405162006747380380620067478339818101604052810190620000379190620006f6565b80848484828281600290805190602001906200005592919062000430565b5080600390805190602001906200006e92919062000430565b5050506000600c60006101000a81548160ff02191690831515021790555080600e9080519060200190620000a492919062000430565b50620000c96000801b620000bd6200019a60201b60201c565b620001a260201b60201c565b6200010a7f9f2df0fed2c77648de5860a4cc508cd0818c85b8b8a1ab4ceeef8d981c8956a6620000fe6200019a60201b60201c565b620001a260201b60201c565b6200014b7f65d7a28e3265b37a6474929f336521b332c1681b933f6cb9f3376673440d862a6200013f6200019a60201b60201c565b620001a260201b60201c565b50505080600f60006101000a81548173ffffffffffffffffffffffffffffffffffffffff021916908373ffffffffffffffffffffffffffffffffffffffff160217905550505050505062000829565b600033905090565b620001b48282620001b860201b60201c565b5050565b620001cf82826200020060201b62001f221760201c565b620001fb8160016000858152602001908152602001600020620002f160201b620020021790919060201c565b505050565b6200021282826200032960201b60201c565b620002ed57600160008084815260200190815260200160002060000160008373ffffffffffffffffffffffffffffffffffffffff1673ffffffffffffffffffffffffffffffffffffffff16815260200190815260200160002060006101000a81548160ff021916908315150217905550620002926200019a60201b60201c565b73ffffffffffffffffffffffffffffffffffffffff168173ffffffffffffffffffffffffffffffffffffffff16837f2f8788117e7eff1d82e926ec794901d17c78024a50270940304540a733656f0d60405160405180910390a45b5050565b600062000321836000018373ffffffffffffffffffffffffffffffffffffffff1660001b6200039360201b60201c565b905092915050565b600080600084815260200190815260200160002060000160008373ffffffffffffffffffffffffffffffffffffffff1673ffffffffffffffffffffffffffffffffffffffff16815260200190815260200160002060009054906101000a900460ff16905092915050565b6000620003a783836200040d60201b60201c565b6200040257826000018290806001815401808255809150506001900390600052602060002001600090919091909150558260000180549050836001016000848152602001908152602001600020819055506001905062000407565b600090505b92915050565b600080836001016000848152602001908152602001600020541415905092915050565b8280546200043e90620007f4565b90600052602060002090601f016020900481019282620004625760008555620004ae565b82601f106200047d57805160ff1916838001178555620004ae565b82800160010185558215620004ae579182015b82811115620004ad57825182559160200191906001019062000490565b5b509050620004bd9190620004c1565b5090565b5b80821115620004dc576000816000905550600101620004c2565b5090565b6000604051905090565b600080fd5b600080fd5b600080fd5b600080fd5b6000601f19601f8301169050919050565b7f4e487b7100000000000000000000000000000000000000000000000000000000600052604160045260246000fd5b6200054982620004fe565b810181811067ffffffffffffffff821117156200056b576200056a6200050f565b5b80604052505050565b600062000580620004e0565b90506200058e82826200053e565b919050565b600067ffffffffffffffff821115620005b157620005b06200050f565b5b620005bc82620004fe565b9050602081019050919050565b60005b83811015620005e9578082015181840152602081019050620005cc565b83811115620005f9576000848401525b50505050565b600062000616620006108462000593565b62000574565b905082815260208101848484011115620006355762000634620004f9565b5b62000642848285620005c9565b509392505050565b600082601f830112620006625762000661620004f4565b5b815162000674848260208601620005ff565b91505092915050565b600073ffffffffffffffffffffffffffffffffffffffff82169050919050565b6000620006aa826200067d565b9050919050565b6000620006be826200069d565b9050919050565b620006d081620006b1565b8114620006dc57600080fd5b50565b600081519050620006f081620006c5565b92915050565b60008060008060808587031215620007135762000712620004ea565b5b600085015167ffffffffffffffff811115620007345762000733620004ef565b5b62000742878288016200064a565b945050602085015167ffffffffffffffff811115620007665762000765620004ef565b5b62000774878288016200064a565b935050604085015167ffffffffffffffff811115620007985762000797620004ef565b5b620007a6878288016200064a565b9250506060620007b987828801620006df565b91505092959194509250565b7f4e487b7100000000000000000000000000000000000000000000000000000000600052602260045260246000fd5b600060028204905060018216806200080d57607f821691505b602082108103620008235762000822620007c5565b5b50919050565b615f0e80620008396000396000f3fe608060405234801561001057600080fd5b506004361061023d5760003560e01c80636a6278421161013b578063a22cb465116100b8578063d53913931161007c578063d5391393146106e4578063d547741f14610702578063d96a094a1461071e578063e63ab1e91461073a578063e985e9c5146107585761023d565b8063a22cb4651461061c578063b0105be514610638578063b88d4fde14610668578063c87b56dd14610684578063ca15c873146106b45761023d565b80639010d07c116100ff5780639010d07c1461056457806391d148541461059457806395d89b41146105c45780639773b6f4146105e2578063a217fddf146105fe5761023d565b80636a627842146104c257806370a08231146104de5780637415cd871461050e57806383ef18fa1461053e5780638456cb591461055a5761023d565b80632f2ff15d116101c957806342966c681161018d57806342966c681461040c5780634a453485146104285780634f6ccce7146104445780635c975abb146104745780636352211e146104925761023d565b80632f2ff15d1461037e5780632f745c591461039a57806336568abe146103ca5780633f4ba83a146103e657806342842e0e146103f05761023d565b806318160ddd1161021057806318160ddd146102dc5780631c35f962146102fa5780631ef65b121461031657806323b872dd14610332578063248a9ca31461034e5761023d565b806301ffc9a71461024257806306fdde0314610272578063081812fc14610290578063095ea7b3146102c0575b600080fd5b61025c60048036038101906102579190613d2e565b610788565b6040516102699190613d76565b60405180910390f35b61027a61079a565b6040516102879190613e2a565b60405180910390f35b6102aa60048036038101906102a59190613e82565b61082c565b6040516102b79190613ef0565b60405180910390f35b6102da60048036038101906102d59190613f37565b6108b1565b005b6102e46109c8565b6040516102f19190613f86565b60405180910390f35b610314600480360381019061030f9190613fa1565b6109d5565b005b610330600480360381019061032b9190613fa1565b610b0f565b005b61034c60048036038101906103479190613fe1565b610eb4565b005b6103686004803603810190610363919061406a565b610f14565b60405161037591906140a6565b60405180910390f35b610398600480360381019061039391906140c1565b610f33565b005b6103b460048036038101906103af9190613f37565b610f54565b6040516103c19190613f86565b60405180910390f35b6103e460048036038101906103df91906140c1565b610ff9565b005b6103ee61107c565b005b61040a60048036038101906104059190613fe1565b6110f6565b005b61042660048036038101906104219190613e82565b611116565b005b610442600480360381019061043d919061426f565b611172565b005b61045e60048036038101906104599190613e82565b61128d565b60405161046b9190613f86565b60405180910390f35b61047c6112fe565b6040516104899190613d76565b60405180910390f35b6104ac60048036038101906104a79190613e82565b611315565b6040516104b99190613ef0565b60405180910390f35b6104dc60048036038101906104d791906142af565b6113c6565b005b6104f860048036038101906104f391906142af565b6113d3565b6040516105059190613f86565b60405180910390f35b610528600480360381019061052391906142af565b61148a565b6040516105359190613f86565b60405180910390f35b610558600480360381019061055391906142dc565b611530565b005b610562611757565b005b61057e6004803603810190610579919061432f565b6117d1565b60405161058b9190613ef0565b60405180910390f35b6105ae60048036038101906105a991906140c1565b611800565b6040516105bb9190613d76565b60405180910390f35b6105cc61186a565b6040516105d99190613e2a565b60405180910390f35b6105fc60048036038101906105f79190613e82565b6118fc565b005b610606611a11565b60405161061391906140a6565b60405180910390f35b6106366004803603810190610631919061436f565b611a18565b005b610652600480360381019061064d9190613e82565b611a2e565b60405161065f9190614435565b60405180910390f35b610682600480360381019061067d919061450a565b611ae6565b005b61069e60048036038101906106999190613e82565b611b48565b6040516106ab9190613e2a565b60405180910390f35b6106ce60048036038101906106c9919061406a565b611bef565b6040516106db9190613f86565b60405180910390f35b6106ec611c13565b6040516106f991906140a6565b60405180910390f35b61071c600480360381019061071791906140c1565b611c37565b005b61073860048036038101906107339190613e82565b611c58565b005b610742611e6a565b60405161074f91906140a6565b60405180910390f35b610772600480360381019061076d919061458d565b611e8e565b60405161077f9190613d76565b60405180910390f35b600061079382612032565b9050919050565b6060600280546107a9906145fc565b80601f01602080910402602001604051908101604052809291908181526020018280546107d5906145fc565b80156108225780601f106107f757610100808354040283529160200191610822565b820191906000526020600020905b81548152906001019060200180831161080557829003601f168201915b5050505050905090565b6000610837826120ac565b610876576040517f08c379a000000000000000000000000000000000000000000000000000000000815260040161086d9061469f565b60405180910390fd5b6006600083815260200190815260200160002060009054906101000a900473ffffffffffffffffffffffffffffffffffffffff169050919050565b60006108bc82611315565b90508073ffffffffffffffffffffffffffffffffffffffff168373ffffffffffffffffffffffffffffffffffffffff160361092c576040517f08c379a000000000000000000000000000000000000000000000000000000000815260040161092390614731565b60405180910390fd5b8073ffffffffffffffffffffffffffffffffffffffff1661094b612118565b73ffffffffffffffffffffffffffffffffffffffff16148061097a575061097981610974612118565b611e8e565b5b6109b9576040517f08c379a00000000000000000000000000000000000000000000000000000000081526004016109b0906147c3565b60405180910390fd5b6109c38383612120565b505050565b6000600a80549050905090565b6109e66109e0612118565b836121d9565b610a25576040517f08c379a0000000000000000000000000000000000000000000000000000000008152600401610a1c90614855565b60405180910390fd5b610a2e826120ac565b610a6d576040517f08c379a0000000000000000000000000000000000000000000000000000000008152600401610a64906148e7565b60405180910390fd5b60016010600084815260200190815260200160002060006101000a81548160ff021916908315150217905550806011600084815260200190815260200160002081905550610aba82611315565b6012600084815260200190815260200160002060006101000a81548173ffffffffffffffffffffffffffffffffffffffff021916908373ffffffffffffffffffffffffffffffffffffffff1602179055505050565b610b18826120ac565b610b57576040517f08c379a0000000000000000000000000000000000000000000000000000000008152600401610b4e90614953565b60405180910390fd5b610b60816120ac565b610b9f576040517f08c379a0000000000000000000000000000000000000000000000000000000008152600401610b9690614953565b60405180910390fd5b610bb0610baa612118565b836121d9565b610bef576040517f08c379a0000000000000000000000000000000000000000000000000000000008152600401610be6906149e5565b60405180910390fd5b610c00610bfa612118565b826121d9565b610c3f576040517f08c379a0000000000000000000000000000000000000000000000000000000008152600401610c36906149e5565b60405180910390fd5b6000601460008481526020019081526020016000206040518060a0016040529081600082015481526020016001820154815260200160028201548152602001600382015481526020016004820160009054906101000a900460ff16151515158152505090506000601460008481526020019081526020016000206040518060a0016040529081600082015481526020016001820154815260200160028201548152602001600382015481526020016004820160009054906101000a900460ff1615151515815250509050610d11613c91565b81604001518360400151148015610d2f575081606001518360600151145b8015610d545750816000015183602001511480610d53575081602001518360000151145b5b15610db4576040518060a00160405280610d76856000015185600001516122b7565b8152602001610d8d856020015185602001516122d1565b81526020018460400151815260200184606001518152602001600015158152509050610e9a565b81600001518360000151148015610dd2575081602001518360200151145b8015610df75750816040015183606001511480610df6575081606001518360400151145b5b15610e57576040518060a001604052808460000151815260200184602001518152602001610e2d856040015185604001516122b7565b8152602001610e44856060015185606001516122d1565b8152602001600015158152509050610e99565b6000610e98576040517f08c379a0000000000000000000000000000000000000000000000000000000008152600401610e8f90614a77565b60405180910390fd5b5b5b610ea384611116565b610ead8582611172565b5050505050565b610ec5610ebf612118565b826121d9565b610f04576040517f08c379a0000000000000000000000000000000000000000000000000000000008152600401610efb90614b09565b60405180910390fd5b610f0f8383836122eb565b505050565b6000806000838152602001908152602001600020600101549050919050565b610f3c82610f14565b610f4581612551565b610f4f8383612565565b505050565b6000610f5f836113d3565b8210610fa0576040517f08c379a0000000000000000000000000000000000000000000000000000000008152600401610f9790614b9b565b60405180910390fd5b600860008473ffffffffffffffffffffffffffffffffffffffff1673ffffffffffffffffffffffffffffffffffffffff168152602001908152602001600020600083815260200190815260200160002054905092915050565b611001612118565b73ffffffffffffffffffffffffffffffffffffffff168173ffffffffffffffffffffffffffffffffffffffff161461106e576040517f08c379a000000000000000000000000000000000000000000000000000000000815260040161106590614c2d565b60405180910390fd5b6110788282612599565b5050565b6110ad7f65d7a28e3265b37a6474929f336521b332c1681b933f6cb9f3376673440d862a6110a8612118565b611800565b6110ec576040517f08c379a00000000000000000000000000000000000000000000000000000000081526004016110e390614cbf565b60405180910390fd5b6110f46125cd565b565b61111183838360405180602001604052806000815250611ae6565b505050565b611127611121612118565b826121d9565b611166576040517f08c379a000000000000000000000000000000000000000000000000000000000815260040161115d90614d51565b60405180910390fd5b61116f8161266f565b50565b61117b826120ac565b6111ba576040517f08c379a00000000000000000000000000000000000000000000000000000000081526004016111b190614953565b60405180910390fd5b6111eb7f9f2df0fed2c77648de5860a4cc508cd0818c85b8b8a1ab4ceeef8d981c8956a66111e6612118565b611800565b61122a576040517f08c379a000000000000000000000000000000000000000000000000000000000815260040161122190614de3565b60405180910390fd5b80601460008481526020019081526020016000206000820151816000015560208201518160010155604082015181600201556060820151816003015560808201518160040160006101000a81548160ff0219169083151502179055509050505050565b60006112976109c8565b82106112d8576040517f08c379a00000000000000000000000000000000000000000000000000000000081526004016112cf90614e75565b60405180910390fd5b600a82815481106112ec576112eb614e95565b5b90600052602060002001549050919050565b6000600c60009054906101000a900460ff16905090565b6000806004600084815260200190815260200160002060009054906101000a900473ffffffffffffffffffffffffffffffffffffffff169050600073ffffffffffffffffffffffffffffffffffffffff168173ffffffffffffffffffffffffffffffffffffffff16036113bd576040517f08c379a00000000000000000000000000000000000000000000000000000000081526004016113b490614f36565b60405180910390fd5b80915050919050565b6113cf8161148a565b5050565b60008073ffffffffffffffffffffffffffffffffffffffff168273ffffffffffffffffffffffffffffffffffffffff1603611443576040517f08c379a000000000000000000000000000000000000000000000000000000000815260040161143a90614fc8565b60405180910390fd5b600560008373ffffffffffffffffffffffffffffffffffffffff1673ffffffffffffffffffffffffffffffffffffffff168152602001908152602001600020549050919050565b60006114bd7f9f2df0fed2c77648de5860a4cc508cd0818c85b8b8a1ab4ceeef8d981c8956a66114b8612118565b611800565b6114fc576040517f08c379a00000000000000000000000000000000000000000000000000000000081526004016114f39061505a565b60405180910390fd5b61150f8261150a601361278c565b61279a565b600061151b601361278c565b90506115276013612973565b80915050919050565b611539836120ac565b611578576040517f08c379a000000000000000000000000000000000000000000000000000000000815260040161156f90614953565b60405180910390fd5b611589611583612118565b846121d9565b6115c8576040517f08c379a00000000000000000000000000000000000000000000000000000000081526004016115bf906149e5565b60405180910390fd5b6115d18361266f565b6000601460008581526020019081526020016000209050600060405180608001604052806040518060a0016040528085600001548152602001878152602001856002015481526020018681526020016000151581525081526020016040518060a0016040528087815260200185600101548152602001856002015481526020018681526020016000151581525081526020016040518060a0016040528085600001548152602001878152602001868152602001856003015481526020016000151581525081526020016040518060a00160405280878152602001856001015481526020018681526020018560030154815260200160001515815250815250905060005b600481101561174f5760006116ff8383600481106116f5576116f4614e95565b5b6020020151612989565b131561173c576000611717611712612118565b61148a565b905061173a818484600481106117305761172f614e95565b5b6020020151611172565b505b8080611747906150a9565b9150506116d4565b505050505050565b6117887f65d7a28e3265b37a6474929f336521b332c1681b933f6cb9f3376673440d862a611783612118565b611800565b6117c7576040517f08c379a00000000000000000000000000000000000000000000000000000000081526004016117be90615163565b60405180910390fd5b6117cf6129c4565b565b60006117f88260016000868152602001908152602001600020612a6790919063ffffffff16565b905092915050565b600080600084815260200190815260200160002060000160008373ffffffffffffffffffffffffffffffffffffffff1673ffffffffffffffffffffffffffffffffffffffff16815260200190815260200160002060009054906101000a900460ff16905092915050565b606060038054611879906145fc565b80601f01602080910402602001604051908101604052809291908181526020018280546118a5906145fc565b80156118f25780601f106118c7576101008083540402835291602001916118f2565b820191906000526020600020905b8154815290600101906020018083116118d557829003601f168201915b5050505050905090565b611904612118565b73ffffffffffffffffffffffffffffffffffffffff166012600083815260200190815260200160002060009054906101000a900473ffffffffffffffffffffffffffffffffffffffff1673ffffffffffffffffffffffffffffffffffffffff16146119a4576040517f08c379a000000000000000000000000000000000000000000000000000000000815260040161199b906151f5565b60405180910390fd5b60006010600083815260200190815260200160002060006101000a81548160ff021916908315150217905550611a0e306012600084815260200190815260200160002060009054906101000a900473ffffffffffffffffffffffffffffffffffffffff1683610eb4565b50565b6000801b81565b611a2a611a23612118565b8383612a81565b5050565b611a36613c91565b611a3f826120ac565b611a7e576040517f08c379a0000000000000000000000000000000000000000000000000000000008152600401611a7590614953565b60405180910390fd5b601460008381526020019081526020016000206040518060a0016040529081600082015481526020016001820154815260200160028201548152602001600382015481526020016004820160009054906101000a900460ff1615151515815250509050919050565b611af7611af1612118565b836121d9565b611b36576040517f08c379a0000000000000000000000000000000000000000000000000000000008152600401611b2d90614b09565b60405180910390fd5b611b4284848484612bed565b50505050565b6060611b53826120ac565b611b92576040517f08c379a0000000000000000000000000000000000000000000000000000000008152600401611b8990615287565b60405180910390fd5b6000611b9c612c49565b90506000815111611bbc5760405180602001604052806000815250611be7565b80611bc684612cdb565b604051602001611bd79291906152e3565b6040516020818303038152906040525b915050919050565b6000611c0c60016000848152602001908152602001600020612e3b565b9050919050565b7f9f2df0fed2c77648de5860a4cc508cd0818c85b8b8a1ab4ceeef8d981c8956a681565b611c4082610f14565b611c4981612551565b611c538383612599565b505050565b6010600082815260200190815260200160002060009054906101000a900460ff16611cb8576040517f08c379a0000000000000000000000000000000000000000000000000000000008152600401611caf90615379565b60405180910390fd5b60006010600083815260200190815260200160002060006101000a81548160ff021916908315150217905550600f60009054906101000a900473ffffffffffffffffffffffffffffffffffffffff1673ffffffffffffffffffffffffffffffffffffffff1663a9059cbb6012600084815260200190815260200160002060009054906101000a900473ffffffffffffffffffffffffffffffffffffffff1660116000858152602001908152602001600020546040518363ffffffff1660e01b8152600401611d87929190615399565b6020604051808303816000875af1158015611da6573d6000803e3d6000fd5b505050506040513d601f19601f82011682018060405250810190611dca91906153d7565b50611ddd30611dd7612118565b83610eb4565b7fe03421b19371ef8120668a5bb0965b3c768e66ed81e6c73e52043d2be48077a86012600083815260200190815260200160002060009054906101000a900473ffffffffffffffffffffffffffffffffffffffff16611e3a612118565b601160008581526020019081526020016000205484604051611e5f9493929190615404565b60405180910390a150565b7f65d7a28e3265b37a6474929f336521b332c1681b933f6cb9f3376673440d862a81565b6000600760008473ffffffffffffffffffffffffffffffffffffffff1673ffffffffffffffffffffffffffffffffffffffff16815260200190815260200160002060008373ffffffffffffffffffffffffffffffffffffffff1673ffffffffffffffffffffffffffffffffffffffff16815260200190815260200160002060009054906101000a900460ff16905092915050565b611f2c8282611800565b611ffe57600160008084815260200190815260200160002060000160008373ffffffffffffffffffffffffffffffffffffffff1673ffffffffffffffffffffffffffffffffffffffff16815260200190815260200160002060006101000a81548160ff021916908315150217905550611fa3612118565b73ffffffffffffffffffffffffffffffffffffffff168173ffffffffffffffffffffffffffffffffffffffff16837f2f8788117e7eff1d82e926ec794901d17c78024a50270940304540a733656f0d60405160405180910390a45b5050565b600061202a836000018373ffffffffffffffffffffffffffffffffffffffff1660001b612e50565b905092915050565b60007f780e9d63000000000000000000000000000000000000000000000000000000007bffffffffffffffffffffffffffffffffffffffffffffffffffffffff1916827bffffffffffffffffffffffffffffffffffffffffffffffffffffffff191614806120a557506120a482612ec0565b5b9050919050565b60008073ffffffffffffffffffffffffffffffffffffffff166004600084815260200190815260200160002060009054906101000a900473ffffffffffffffffffffffffffffffffffffffff1673ffffffffffffffffffffffffffffffffffffffff1614159050919050565b600033905090565b816006600083815260200190815260200160002060006101000a81548173ffffffffffffffffffffffffffffffffffffffff021916908373ffffffffffffffffffffffffffffffffffffffff160217905550808273ffffffffffffffffffffffffffffffffffffffff1661219383611315565b73ffffffffffffffffffffffffffffffffffffffff167f8c5be1e5ebec7d5bd14f71427d1e84f3dd0314c0f7b2291e5b200ac8c7c3b92560405160405180910390a45050565b60006121e4826120ac565b612223576040517f08c379a000000000000000000000000000000000000000000000000000000000815260040161221a906154bb565b60405180910390fd5b600061222e83611315565b90508073ffffffffffffffffffffffffffffffffffffffff168473ffffffffffffffffffffffffffffffffffffffff161480612270575061226f8185611e8e565b5b806122ae57508373ffffffffffffffffffffffffffffffffffffffff166122968461082c565b73ffffffffffffffffffffffffffffffffffffffff16145b91505092915050565b6000818313156122c757816122c9565b825b905092915050565b6000818312156122e157816122e3565b825b905092915050565b8273ffffffffffffffffffffffffffffffffffffffff1661230b82611315565b73ffffffffffffffffffffffffffffffffffffffff1614612361576040517f08c379a00000000000000000000000000000000000000000000000000000000081526004016123589061554d565b60405180910390fd5b600073ffffffffffffffffffffffffffffffffffffffff168273ffffffffffffffffffffffffffffffffffffffff16036123d0576040517f08c379a00000000000000000000000000000000000000000000000000000000081526004016123c7906155df565b60405180910390fd5b6123db838383612fa2565b6123e6600082612120565b6001600560008573ffffffffffffffffffffffffffffffffffffffff1673ffffffffffffffffffffffffffffffffffffffff168152602001908152602001600020600082825461243691906155ff565b925050819055506001600560008473ffffffffffffffffffffffffffffffffffffffff1673ffffffffffffffffffffffffffffffffffffffff168152602001908152602001600020600082825461248d9190615633565b92505081905550816004600083815260200190815260200160002060006101000a81548173ffffffffffffffffffffffffffffffffffffffff021916908373ffffffffffffffffffffffffffffffffffffffff160217905550808273ffffffffffffffffffffffffffffffffffffffff168473ffffffffffffffffffffffffffffffffffffffff167fddf252ad1be2c89b69c2b068fc378daa952ba7f163c4a11628f55a4df523b3ef60405160405180910390a461254c838383612fb2565b505050565b6125628161255d612118565b612fb7565b50565b61256f8282611f22565b612594816001600085815260200190815260200160002061200290919063ffffffff16565b505050565b6125a38282613054565b6125c8816001600085815260200190815260200160002061313590919063ffffffff16565b505050565b6125d56112fe565b612614576040517f08c379a000000000000000000000000000000000000000000000000000000000815260040161260b906156d5565b60405180910390fd5b6000600c60006101000a81548160ff0219169083151502179055507f5db9ee0a495bf2e6ff9c91a7834c1ba4fdd244a5e8aa4e537bd38aeae4b073aa612658612118565b6040516126659190613ef0565b60405180910390a1565b600061267a82611315565b905061268881600084612fa2565b612693600083612120565b6001600560008373ffffffffffffffffffffffffffffffffffffffff1673ffffffffffffffffffffffffffffffffffffffff16815260200190815260200160002060008282546126e391906155ff565b925050819055506004600083815260200190815260200160002060006101000a81549073ffffffffffffffffffffffffffffffffffffffff021916905581600073ffffffffffffffffffffffffffffffffffffffff168273ffffffffffffffffffffffffffffffffffffffff167fddf252ad1be2c89b69c2b068fc378daa952ba7f163c4a11628f55a4df523b3ef60405160405180910390a461278881600084612fb2565b5050565b600081600001549050919050565b600073ffffffffffffffffffffffffffffffffffffffff168273ffffffffffffffffffffffffffffffffffffffff1603612809576040517f08c379a000000000000000000000000000000000000000000000000000000000815260040161280090615741565b60405180910390fd5b612812816120ac565b15612852576040517f08c379a0000000000000000000000000000000000000000000000000000000008152600401612849906157ad565b60405180910390fd5b61285e60008383612fa2565b6001600560008473ffffffffffffffffffffffffffffffffffffffff1673ffffffffffffffffffffffffffffffffffffffff16815260200190815260200160002060008282546128ae9190615633565b92505081905550816004600083815260200190815260200160002060006101000a81548173ffffffffffffffffffffffffffffffffffffffff021916908373ffffffffffffffffffffffffffffffffffffffff160217905550808273ffffffffffffffffffffffffffffffffffffffff16600073ffffffffffffffffffffffffffffffffffffffff167fddf252ad1be2c89b69c2b068fc378daa952ba7f163c4a11628f55a4df523b3ef60405160405180910390a461296f60008383612fb2565b5050565b6001816000016000828254019250508190555050565b60008160400151826060015161299f91906157cd565b826000015183602001516129b391906157cd565b6129bd9190615861565b9050919050565b6129cc6112fe565b15612a0c576040517f08c379a0000000000000000000000000000000000000000000000000000000008152600401612a03906159c4565b60405180910390fd5b6001600c60006101000a81548160ff0219169083151502179055507f62e78cea01bee320cd4e420270b5ea74000d11b0c9f74754ebdbfc544b05a258612a50612118565b604051612a5d9190613ef0565b60405180910390a1565b6000612a768360000183613165565b60001c905092915050565b8173ffffffffffffffffffffffffffffffffffffffff168373ffffffffffffffffffffffffffffffffffffffff1603612aef576040517f08c379a0000000000000000000000000000000000000000000000000000000008152600401612ae690615a30565b60405180910390fd5b80600760008573ffffffffffffffffffffffffffffffffffffffff1673ffffffffffffffffffffffffffffffffffffffff16815260200190815260200160002060008473ffffffffffffffffffffffffffffffffffffffff1673ffffffffffffffffffffffffffffffffffffffff16815260200190815260200160002060006101000a81548160ff0219169083151502179055508173ffffffffffffffffffffffffffffffffffffffff168373ffffffffffffffffffffffffffffffffffffffff167f17307eab39ab6107e8899845ad3d59bd9653f200f220920489ca2b5937696c3183604051612be09190613d76565b60405180910390a3505050565b612bf88484846122eb565b612c0484848484613190565b612c43576040517f08c379a0000000000000000000000000000000000000000000000000000000008152600401612c3a90615ac2565b60405180910390fd5b50505050565b6060600e8054612c58906145fc565b80601f0160208091040260200160405190810160405280929190818152602001828054612c84906145fc565b8015612cd15780601f10612ca657610100808354040283529160200191612cd1565b820191906000526020600020905b815481529060010190602001808311612cb457829003601f168201915b5050505050905090565b606060008203612d22576040518060400160405280600181526020017f30000000000000000000000000000000000000000000000000000000000000008152509050612e36565b600082905060005b60008214612d54578080612d3d906150a9565b915050600a82612d4d9190615b11565b9150612d2a565b60008167ffffffffffffffff811115612d7057612d6f614106565b5b6040519080825280601f01601f191660200182016040528015612da25781602001600182028036833780820191505090505b5090505b60008514612e2f57600182612dbb91906155ff565b9150600a85612dca9190615b42565b6030612dd69190615633565b60f81b818381518110612dec57612deb614e95565b5b60200101907effffffffffffffffffffffffffffffffffffffffffffffffffffffffffffff1916908160001a905350600a85612e289190615b11565b9450612da6565b8093505050505b919050565b6000612e4982600001613317565b9050919050565b6000612e5c8383613328565b612eb5578260000182908060018154018082558091505060019003906000526020600020016000909190919091505582600001805490508360010160008481526020019081526020016000208190555060019050612eba565b600090505b92915050565b60007f80ac58cd000000000000000000000000000000000000000000000000000000007bffffffffffffffffffffffffffffffffffffffffffffffffffffffff1916827bffffffffffffffffffffffffffffffffffffffffffffffffffffffff19161480612f8b57507f5b5e139f000000000000000000000000000000000000000000000000000000007bffffffffffffffffffffffffffffffffffffffffffffffffffffffff1916827bffffffffffffffffffffffffffffffffffffffffffffffffffffffff1916145b80612f9b5750612f9a8261334b565b5b9050919050565b612fad8383836133c5565b505050565b505050565b612fc18282611800565b61305057612fe68173ffffffffffffffffffffffffffffffffffffffff16601461341d565b612ff48360001c602061341d565b604051602001613005929190615c0b565b6040516020818303038152906040526040517f08c379a00000000000000000000000000000000000000000000000000000000081526004016130479190613e2a565b60405180910390fd5b5050565b61305e8282611800565b1561313157600080600084815260200190815260200160002060000160008373ffffffffffffffffffffffffffffffffffffffff1673ffffffffffffffffffffffffffffffffffffffff16815260200190815260200160002060006101000a81548160ff0219169083151502179055506130d6612118565b73ffffffffffffffffffffffffffffffffffffffff168173ffffffffffffffffffffffffffffffffffffffff16837ff6391f5c32d9c69d2a47ea670b442974b53935d1edc7fd64eb21e047a839171b60405160405180910390a45b5050565b600061315d836000018373ffffffffffffffffffffffffffffffffffffffff1660001b613659565b905092915050565b600082600001828154811061317d5761317c614e95565b5b9060005260206000200154905092915050565b60006131b18473ffffffffffffffffffffffffffffffffffffffff1661376d565b1561330a578373ffffffffffffffffffffffffffffffffffffffff1663150b7a026131da612118565b8786866040518563ffffffff1660e01b81526004016131fc9493929190615c9a565b6020604051808303816000875af192505050801561323857506040513d601f19601f820116820180604052508101906132359190615cfb565b60015b6132ba573d8060008114613268576040519150601f19603f3d011682016040523d82523d6000602084013e61326d565b606091505b5060008151036132b2576040517f08c379a00000000000000000000000000000000000000000000000000000000081526004016132a990615ac2565b60405180910390fd5b805181602001fd5b63150b7a0260e01b7bffffffffffffffffffffffffffffffffffffffffffffffffffffffff1916817bffffffffffffffffffffffffffffffffffffffffffffffffffffffff19161491505061330f565b600190505b949350505050565b600081600001805490509050919050565b600080836001016000848152602001908152602001600020541415905092915050565b60007f5a05180f000000000000000000000000000000000000000000000000000000007bffffffffffffffffffffffffffffffffffffffffffffffffffffffff1916827bffffffffffffffffffffffffffffffffffffffffffffffffffffffff191614806133be57506133bd82613790565b5b9050919050565b6133d083838361380a565b6133d86112fe565b15613418576040517f08c379a000000000000000000000000000000000000000000000000000000000815260040161340f90615d9a565b60405180910390fd5b505050565b6060600060028360026134309190615dba565b61343a9190615633565b67ffffffffffffffff81111561345357613452614106565b5b6040519080825280601f01601f1916602001820160405280156134855781602001600182028036833780820191505090505b5090507f3000000000000000000000000000000000000000000000000000000000000000816000815181106134bd576134bc614e95565b5b60200101907effffffffffffffffffffffffffffffffffffffffffffffffffffffffffffff1916908160001a9053507f78000000000000000000000000000000000000000000000000000000000000008160018151811061352157613520614e95565b5b60200101907effffffffffffffffffffffffffffffffffffffffffffffffffffffffffffff1916908160001a905350600060018460026135619190615dba565b61356b9190615633565b90505b600181111561360b577f3031323334353637383961626364656600000000000000000000000000000000600f8616601081106135ad576135ac614e95565b5b1a60f81b8282815181106135c4576135c3614e95565b5b60200101907effffffffffffffffffffffffffffffffffffffffffffffffffffffffffffff1916908160001a905350600485901c94508061360490615e14565b905061356e565b506000841461364f576040517f08c379a000000000000000000000000000000000000000000000000000000000815260040161364690615e89565b60405180910390fd5b8091505092915050565b6000808360010160008481526020019081526020016000205490506000811461376157600060018261368b91906155ff565b90506000600186600001805490506136a391906155ff565b90508181146137125760008660000182815481106136c4576136c3614e95565b5b90600052602060002001549050808760000184815481106136e8576136e7614e95565b5b90600052602060002001819055508387600101600083815260200190815260200160002081905550505b8560000180548061372657613725615ea9565b5b600190038181906000526020600020016000905590558560010160008681526020019081526020016000206000905560019350505050613767565b60009150505b92915050565b6000808273ffffffffffffffffffffffffffffffffffffffff163b119050919050565b60007f7965db0b000000000000000000000000000000000000000000000000000000007bffffffffffffffffffffffffffffffffffffffffffffffffffffffff1916827bffffffffffffffffffffffffffffffffffffffffffffffffffffffff1916148061380357506138028261391c565b5b9050919050565b613815838383613986565b600073ffffffffffffffffffffffffffffffffffffffff168373ffffffffffffffffffffffffffffffffffffffff1603613857576138528161398b565b613896565b8173ffffffffffffffffffffffffffffffffffffffff168373ffffffffffffffffffffffffffffffffffffffff16146138955761389483826139d4565b5b5b600073ffffffffffffffffffffffffffffffffffffffff168273ffffffffffffffffffffffffffffffffffffffff16036138d8576138d381613b41565b613917565b8273ffffffffffffffffffffffffffffffffffffffff168273ffffffffffffffffffffffffffffffffffffffff1614613916576139158282613c12565b5b5b505050565b60007f01ffc9a7000000000000000000000000000000000000000000000000000000007bffffffffffffffffffffffffffffffffffffffffffffffffffffffff1916827bffffffffffffffffffffffffffffffffffffffffffffffffffffffff1916149050919050565b505050565b600a80549050600b600083815260200190815260200160002081905550600a81908060018154018082558091505060019003906000526020600020016000909190919091505550565b600060016139e1846113d3565b6139eb91906155ff565b9050600060096000848152602001908152602001600020549050818114613ad0576000600860008673ffffffffffffffffffffffffffffffffffffffff1673ffffffffffffffffffffffffffffffffffffffff168152602001908152602001600020600084815260200190815260200160002054905080600860008773ffffffffffffffffffffffffffffffffffffffff1673ffffffffffffffffffffffffffffffffffffffff168152602001908152602001600020600084815260200190815260200160002081905550816009600083815260200190815260200160002081905550505b6009600084815260200190815260200160002060009055600860008573ffffffffffffffffffffffffffffffffffffffff1673ffffffffffffffffffffffffffffffffffffffff16815260200190815260200160002060008381526020019081526020016000206000905550505050565b60006001600a80549050613b5591906155ff565b90506000600b60008481526020019081526020016000205490506000600a8381548110613b8557613b84614e95565b5b9060005260206000200154905080600a8381548110613ba757613ba6614e95565b5b906000526020600020018190555081600b600083815260200190815260200160002081905550600b600085815260200190815260200160002060009055600a805480613bf657613bf5615ea9565b5b6001900381819060005260206000200160009055905550505050565b6000613c1d836113d3565b905081600860008573ffffffffffffffffffffffffffffffffffffffff1673ffffffffffffffffffffffffffffffffffffffff168152602001908152602001600020600083815260200190815260200160002081905550806009600084815260200190815260200160002081905550505050565b6040518060a00160405280600081526020016000815260200160008152602001600081526020016000151581525090565b6000604051905090565b600080fd5b600080fd5b60007fffffffff0000000000000000000000000000000000000000000000000000000082169050919050565b613d0b81613cd6565b8114613d1657600080fd5b50565b600081359050613d2881613d02565b92915050565b600060208284031215613d4457613d43613ccc565b5b6000613d5284828501613d19565b91505092915050565b60008115159050919050565b613d7081613d5b565b82525050565b6000602082019050613d8b6000830184613d67565b92915050565b600081519050919050565b600082825260208201905092915050565b60005b83811015613dcb578082015181840152602081019050613db0565b83811115613dda576000848401525b50505050565b6000601f19601f8301169050919050565b6000613dfc82613d91565b613e068185613d9c565b9350613e16818560208601613dad565b613e1f81613de0565b840191505092915050565b60006020820190508181036000830152613e448184613df1565b905092915050565b6000819050919050565b613e5f81613e4c565b8114613e6a57600080fd5b50565b600081359050613e7c81613e56565b92915050565b600060208284031215613e9857613e97613ccc565b5b6000613ea684828501613e6d565b91505092915050565b600073ffffffffffffffffffffffffffffffffffffffff82169050919050565b6000613eda82613eaf565b9050919050565b613eea81613ecf565b82525050565b6000602082019050613f056000830184613ee1565b92915050565b613f1481613ecf565b8114613f1f57600080fd5b50565b600081359050613f3181613f0b565b92915050565b60008060408385031215613f4e57613f4d613ccc565b5b6000613f5c85828601613f22565b9250506020613f6d85828601613e6d565b9150509250929050565b613f8081613e4c565b82525050565b6000602082019050613f9b6000830184613f77565b92915050565b60008060408385031215613fb857613fb7613ccc565b5b6000613fc685828601613e6d565b9250506020613fd785828601613e6d565b9150509250929050565b600080600060608486031215613ffa57613ff9613ccc565b5b600061400886828701613f22565b935050602061401986828701613f22565b925050604061402a86828701613e6d565b9150509250925092565b6000819050919050565b61404781614034565b811461405257600080fd5b50565b6000813590506140648161403e565b92915050565b6000602082840312156140805761407f613ccc565b5b600061408e84828501614055565b91505092915050565b6140a081614034565b82525050565b60006020820190506140bb6000830184614097565b92915050565b600080604083850312156140d8576140d7613ccc565b5b60006140e685828601614055565b92505060206140f785828601613f22565b9150509250929050565b600080fd5b7f4e487b7100000000000000000000000000000000000000000000000000000000600052604160045260246000fd5b61413e82613de0565b810181811067ffffffffffffffff8211171561415d5761415c614106565b5b80604052505050565b6000614170613cc2565b905061417c8282614135565b919050565b6000819050919050565b61419481614181565b811461419f57600080fd5b50565b6000813590506141b18161418b565b92915050565b6141c081613d5b565b81146141cb57600080fd5b50565b6000813590506141dd816141b7565b92915050565b600060a082840312156141f9576141f8614101565b5b61420360a0614166565b90506000614213848285016141a2565b6000830152506020614227848285016141a2565b602083015250604061423b848285016141a2565b604083015250606061424f848285016141a2565b6060830152506080614263848285016141ce565b60808301525092915050565b60008060c0838503121561428657614285613ccc565b5b600061429485828601613e6d565b92505060206142a5858286016141e3565b9150509250929050565b6000602082840312156142c5576142c4613ccc565b5b60006142d384828501613f22565b91505092915050565b6000806000606084860312156142f5576142f4613ccc565b5b600061430386828701613e6d565b9350506020614314868287016141a2565b9250506040614325868287016141a2565b9150509250925092565b6000806040838503121561434657614345613ccc565b5b600061435485828601614055565b925050602061436585828601613e6d565b9150509250929050565b6000806040838503121561438657614385613ccc565b5b600061439485828601613f22565b92505060206143a5858286016141ce565b9150509250929050565b6143b881614181565b82525050565b6143c781613d5b565b82525050565b60a0820160008201516143e360008501826143af565b5060208201516143f660208501826143af565b50604082015161440960408501826143af565b50606082015161441c60608501826143af565b50608082015161442f60808501826143be565b50505050565b600060a08201905061444a60008301846143cd565b92915050565b600080fd5b600080fd5b600067ffffffffffffffff82111561447557614474614106565b5b61447e82613de0565b9050602081019050919050565b82818337600083830152505050565b60006144ad6144a88461445a565b614166565b9050828152602081018484840111156144c9576144c8614455565b5b6144d484828561448b565b509392505050565b600082601f8301126144f1576144f0614450565b5b813561450184826020860161449a565b91505092915050565b6000806000806080858703121561452457614523613ccc565b5b600061453287828801613f22565b945050602061454387828801613f22565b935050604061455487828801613e6d565b925050606085013567ffffffffffffffff81111561457557614574613cd1565b5b614581878288016144dc565b91505092959194509250565b600080604083850312156145a4576145a3613ccc565b5b60006145b285828601613f22565b92505060206145c385828601613f22565b9150509250929050565b7f4e487b7100000000000000000000000000000000000000000000000000000000600052602260045260246000fd5b6000600282049050600182168061461457607f821691505b602082108103614627576146266145cd565b5b50919050565b7f4552433732313a20617070726f76656420717565727920666f72206e6f6e657860008201527f697374656e7420746f6b656e0000000000000000000000000000000000000000602082015250565b6000614689602c83613d9c565b91506146948261462d565b604082019050919050565b600060208201905081810360008301526146b88161467c565b9050919050565b7f4552433732313a20617070726f76616c20746f2063757272656e74206f776e6560008201527f7200000000000000000000000000000000000000000000000000000000000000602082015250565b600061471b602183613d9c565b9150614726826146bf565b604082019050919050565b6000602082019050818103600083015261474a8161470e565b9050919050565b7f4552433732313a20617070726f76652063616c6c6572206973206e6f74206f7760008201527f6e6572206e6f7220617070726f76656420666f7220616c6c0000000000000000602082015250565b60006147ad603883613d9c565b91506147b882614751565b604082019050919050565b600060208201905081810360008301526147dc816147a0565b9050919050565b7f45524337323153616c61626c653a207472616e736665722063616c6c6572206960008201527f73206e6f74206f776e6572206e6f7220617070726f7665640000000000000000602082015250565b600061483f603883613d9c565b915061484a826147e3565b604082019050919050565b6000602082019050818103600083015261486e81614832565b9050919050565b7f45524337323153616c61626c653a2055524920717565727920666f72206e6f6e60008201527f6578697374656e7420746f6b656e000000000000000000000000000000000000602082015250565b60006148d1602e83613d9c565b91506148dc82614875565b604082019050919050565b60006020820190508181036000830152614900816148c4565b9050919050565b7f4552433732314c616e643a2072657175726520746f6b656e4964206578697374600082015250565b600061493d602083613d9c565b915061494882614907565b602082019050919050565b6000602082019050818103600083015261496c81614930565b9050919050565b7f4552433732314c616e643a2063616c6c6572206973206e6f74206f776e65722060008201527f6e6f7220617070726f7665640000000000000000000000000000000000000000602082015250565b60006149cf602c83613d9c565b91506149da82614973565b604082019050919050565b600060208201905081810360008301526149fe816149c2565b9050919050565b7f4552433732314c616e643a20746172676574732073686f756c6465206265207260008201527f656374616e676c65206c616e64206166746572206d6572676564000000000000602082015250565b6000614a61603a83613d9c565b9150614a6c82614a05565b604082019050919050565b60006020820190508181036000830152614a9081614a54565b9050919050565b7f4552433732313a207472616e736665722063616c6c6572206973206e6f74206f60008201527f776e6572206e6f7220617070726f766564000000000000000000000000000000602082015250565b6000614af3603183613d9c565b9150614afe82614a97565b604082019050919050565b60006020820190508181036000830152614b2281614ae6565b9050919050565b7f455243373231456e756d657261626c653a206f776e657220696e646578206f7560008201527f74206f6620626f756e6473000000000000000000000000000000000000000000602082015250565b6000614b85602b83613d9c565b9150614b9082614b29565b604082019050919050565b60006020820190508181036000830152614bb481614b78565b9050919050565b7f416363657373436f6e74726f6c3a2063616e206f6e6c792072656e6f756e636560008201527f20726f6c657320666f722073656c660000000000000000000000000000000000602082015250565b6000614c17602f83613d9c565b9150614c2282614bbb565b604082019050919050565b60006020820190508181036000830152614c4681614c0a565b9050919050565b7f4552433732315072657365744d696e7465725061757365724175746f49643a2060008201527f6d75737420686176652070617573657220726f6c6520746f20756e7061757365602082015250565b6000614ca9604083613d9c565b9150614cb482614c4d565b604082019050919050565b60006020820190508181036000830152614cd881614c9c565b9050919050565b7f4552433732314275726e61626c653a2063616c6c6572206973206e6f74206f7760008201527f6e6572206e6f7220617070726f76656400000000000000000000000000000000602082015250565b6000614d3b603083613d9c565b9150614d4682614cdf565b604082019050919050565b60006020820190508181036000830152614d6a81614d2e565b9050919050565b7f4552433732315072657365744d696e7465725061757365724175746f49643a2060008201527f6d7573742068617665206d696e74657220726f6c6520746f206d696e74000000602082015250565b6000614dcd603d83613d9c565b9150614dd882614d71565b604082019050919050565b60006020820190508181036000830152614dfc81614dc0565b9050919050565b7f455243373231456e756d657261626c653a20676c6f62616c20696e646578206f60008201527f7574206f6620626f756e64730000000000000000000000000000000000000000602082015250565b6000614e5f602c83613d9c565b9150614e6a82614e03565b604082019050919050565b60006020820190508181036000830152614e8e81614e52565b9050919050565b7f4e487b7100000000000000000000000000000000000000000000000000000000600052603260045260246000fd5b7f4552433732313a206f776e657220717565727920666f72206e6f6e657869737460008201527f656e7420746f6b656e0000000000000000000000000000000000000000000000602082015250565b6000614f20602983613d9c565b9150614f2b82614ec4565b604082019050919050565b60006020820190508181036000830152614f4f81614f13565b9050919050565b7f4552433732313a2062616c616e636520717565727920666f7220746865207a6560008201527f726f206164647265737300000000000000000000000000000000000000000000602082015250565b6000614fb2602a83613d9c565b9150614fbd82614f56565b604082019050919050565b60006020820190508181036000830152614fe181614fa5565b9050919050565b7f4552433732314c616e643a206d7573742068617665206d696e74657220726f6c60008201527f6520746f206d696e740000000000000000000000000000000000000000000000602082015250565b6000615044602983613d9c565b915061504f82614fe8565b604082019050919050565b6000602082019050818103600083015261507381615037565b9050919050565b7f4e487b7100000000000000000000000000000000000000000000000000000000600052601160045260246000fd5b60006150b482613e4c565b91507fffffffffffffffffffffffffffffffffffffffffffffffffffffffffffffffff82036150e6576150e561507a565b5b600182019050919050565b7f4552433732315072657365744d696e7465725061757365724175746f49643a2060008201527f6d75737420686176652070617573657220726f6c6520746f2070617573650000602082015250565b600061514d603e83613d9c565b9150615158826150f1565b604082019050919050565b6000602082019050818103600083015261517c81615140565b9050919050565b7f45524337323153616c61626c653a20796f75277265206e6f742073616c65722060008201527f6f66207468697320746f6b656e2e000000000000000000000000000000000000602082015250565b60006151df602e83613d9c565b91506151ea82615183565b604082019050919050565b6000602082019050818103600083015261520e816151d2565b9050919050565b7f4552433732314d657461646174613a2055524920717565727920666f72206e6f60008201527f6e6578697374656e7420746f6b656e0000000000000000000000000000000000602082015250565b6000615271602f83613d9c565b915061527c82615215565b604082019050919050565b600060208201905081810360008301526152a081615264565b9050919050565b600081905092915050565b60006152bd82613d91565b6152c781856152a7565b93506152d7818560208601613dad565b80840191505092915050565b60006152ef82856152b2565b91506152fb82846152b2565b91508190509392505050565b7f45524337323153616c61626c653a207468697320746f6b656e206973206e6f7460008201527f2073616c61626c65000000000000000000000000000000000000000000000000602082015250565b6000615363602883613d9c565b915061536e82615307565b604082019050919050565b6000602082019050818103600083015261539281615356565b9050919050565b60006040820190506153ae6000830185613ee1565b6153bb6020830184613f77565b9392505050565b6000815190506153d1816141b7565b92915050565b6000602082840312156153ed576153ec613ccc565b5b60006153fb848285016153c2565b91505092915050565b60006080820190506154196000830187613ee1565b6154266020830186613ee1565b6154336040830185613f77565b6154406060830184613f77565b95945050505050565b7f4552433732313a206f70657261746f7220717565727920666f72206e6f6e657860008201527f697374656e7420746f6b656e0000000000000000000000000000000000000000602082015250565b60006154a5602c83613d9c565b91506154b082615449565b604082019050919050565b600060208201905081810360008301526154d481615498565b9050919050565b7f4552433732313a207472616e736665722066726f6d20696e636f72726563742060008201527f6f776e6572000000000000000000000000000000000000000000000000000000602082015250565b6000615537602583613d9c565b9150615542826154db565b604082019050919050565b600060208201905081810360008301526155668161552a565b9050919050565b7f4552433732313a207472616e7366657220746f20746865207a65726f2061646460008201527f7265737300000000000000000000000000000000000000000000000000000000602082015250565b60006155c9602483613d9c565b91506155d48261556d565b604082019050919050565b600060208201905081810360008301526155f8816155bc565b9050919050565b600061560a82613e4c565b915061561583613e4c565b9250828210156156285761562761507a565b5b828203905092915050565b600061563e82613e4c565b915061564983613e4c565b9250827fffffffffffffffffffffffffffffffffffffffffffffffffffffffffffffffff0382111561567e5761567d61507a565b5b828201905092915050565b7f5061757361626c653a206e6f7420706175736564000000000000000000000000600082015250565b60006156bf601483613d9c565b91506156ca82615689565b602082019050919050565b600060208201905081810360008301526156ee816156b2565b9050919050565b7f4552433732313a206d696e7420746f20746865207a65726f2061646472657373600082015250565b600061572b602083613d9c565b9150615736826156f5565b602082019050919050565b6000602082019050818103600083015261575a8161571e565b9050919050565b7f4552433732313a20746f6b656e20616c7265616479206d696e74656400000000600082015250565b6000615797601c83613d9c565b91506157a282615761565b602082019050919050565b600060208201905081810360008301526157c68161578a565b9050919050565b60006157d882614181565b91506157e383614181565b9250827f80000000000000000000000000000000000000000000000000000000000000000182126000841215161561581e5761581d61507a565b5b827f7fffffffffffffffffffffffffffffffffffffffffffffffffffffffffffffff0182136000841216156158565761585561507a565b5b828203905092915050565b600061586c82614181565b915061587783614181565b9250827f7fffffffffffffffffffffffffffffffffffffffffffffffffffffffffffffff04821160008413600084131616156158b6576158b561507a565b5b817f800000000000000000000000000000000000000000000000000000000000000005831260008412600084131616156158f3576158f261507a565b5b827f800000000000000000000000000000000000000000000000000000000000000005821260008413600084121616156159305761592f61507a565b5b827f7fffffffffffffffffffffffffffffffffffffffffffffffffffffffffffffff058212600084126000841216161561596d5761596c61507a565b5b828202905092915050565b7f5061757361626c653a2070617573656400000000000000000000000000000000600082015250565b60006159ae601083613d9c565b91506159b982615978565b602082019050919050565b600060208201905081810360008301526159dd816159a1565b9050919050565b7f4552433732313a20617070726f766520746f2063616c6c657200000000000000600082015250565b6000615a1a601983613d9c565b9150615a25826159e4565b602082019050919050565b60006020820190508181036000830152615a4981615a0d565b9050919050565b7f4552433732313a207472616e7366657220746f206e6f6e20455243373231526560008201527f63656976657220696d706c656d656e7465720000000000000000000000000000602082015250565b6000615aac603283613d9c565b9150615ab782615a50565b604082019050919050565b60006020820190508181036000830152615adb81615a9f565b9050919050565b7f4e487b7100000000000000000000000000000000000000000000000000000000600052601260045260246000fd5b6000615b1c82613e4c565b9150615b2783613e4c565b925082615b3757615b36615ae2565b5b828204905092915050565b6000615b4d82613e4c565b9150615b5883613e4c565b925082615b6857615b67615ae2565b5b828206905092915050565b7f416363657373436f6e74726f6c3a206163636f756e7420000000000000000000600082015250565b6000615ba96017836152a7565b9150615bb482615b73565b601782019050919050565b7f206973206d697373696e6720726f6c6520000000000000000000000000000000600082015250565b6000615bf56011836152a7565b9150615c0082615bbf565b601182019050919050565b6000615c1682615b9c565b9150615c2282856152b2565b9150615c2d82615be8565b9150615c3982846152b2565b91508190509392505050565b600081519050919050565b600082825260208201905092915050565b6000615c6c82615c45565b615c768185615c50565b9350615c86818560208601613dad565b615c8f81613de0565b840191505092915050565b6000608082019050615caf6000830187613ee1565b615cbc6020830186613ee1565b615cc96040830185613f77565b8181036060830152615cdb8184615c61565b905095945050505050565b600081519050615cf581613d02565b92915050565b600060208284031215615d1157615d10613ccc565b5b6000615d1f84828501615ce6565b91505092915050565b7f4552433732315061757361626c653a20746f6b656e207472616e73666572207760008201527f68696c6520706175736564000000000000000000000000000000000000000000602082015250565b6000615d84602b83613d9c565b9150615d8f82615d28565b604082019050919050565b60006020820190508181036000830152615db381615d77565b9050919050565b6000615dc582613e4c565b9150615dd083613e4c565b9250817fffffffffffffffffffffffffffffffffffffffffffffffffffffffffffffffff0483118215151615615e0957615e0861507a565b5b828202905092915050565b6000615e1f82613e4c565b915060008203615e3257615e3161507a565b5b600182039050919050565b7f537472696e67733a20686578206c656e67746820696e73756666696369656e74600082015250565b6000615e73602083613d9c565b9150615e7e82615e3d565b602082019050919050565b60006020820190508181036000830152615ea281615e66565b9050919050565b7f4e487b7100000000000000000000000000000000000000000000000000000000600052603160045260246000fdfea2646970667358221220ff890cd17df076b0810dc4abecbc3137f040a933db3a5b983c067b7db88a400564736f6c634300080e003360806040523480156200001157600080fd5b50604051620027393803806200273983398181016040528101906200003791906200018b565b816000806101000a81548173ffffffffffffffffffffffffffffffffffffffff021916908373ffffffffffffffffffffffffffffffffffffffff16021790555080600160006101000a81548173ffffffffffffffffffffffffffffffffffffffff021916908373ffffffffffffffffffffffffffffffffffffffff1602179055506000600e819055505050620001d2565b600080fd5b600073ffffffffffffffffffffffffffffffffffffffff82169050919050565b6000620000fa82620000cd565b9050919050565b60006200010e82620000ed565b9050919050565b620001208162000101565b81146200012c57600080fd5b50565b600081519050620001408162000115565b92915050565b60006200015382620000ed565b9050919050565b620001658162000146565b81146200017157600080fd5b50565b60008151905062000185816200015a565b92915050565b60008060408385031215620001a557620001a4620000c8565b5b6000620001b5858286016200012f565b9250506020620001c88582860162000174565b9150509250929050565b61255780620001e26000396000f3fe608060405234801561001057600080fd5b50600436106100f55760003560e01c8063ab24650311610097578063bca6ce6411610066578063bca6ce64146102a8578063c290d691146102c6578063c4696ff9146102e2578063ced2b4de14610312576100f5565b8063ab24650314610210578063ae61207a14610240578063b15313d114610270578063bc59d5031461028c576100f5565b806343bfd33a116100d357806343bfd33a14610176578063785e9e86146101925780637c23b5c4146101b0578063810e0b20146101e0576100f5565b80630d266314146100fa5780631a2c15941461012a5780633ea1813c14610146575b600080fd5b610114600480360381019061010f9190611c39565b610342565b6040516101219190611c75565b60405180910390f35b610144600480360381019061013f9190611cee565b610404565b005b610160600480360381019061015b9190611c39565b6107b0565b60405161016d9190611c75565b60405180910390f35b610190600480360381019061018b9190611d90565b610872565b005b61019a610cea565b6040516101a79190611e2f565b60405180910390f35b6101ca60048036038101906101c59190611c39565b610d0e565b6040516101d79190611c75565b60405180910390f35b6101fa60048036038101906101f59190611c39565b610dd0565b6040516102079190611e59565b60405180910390f35b61022a60048036038101906102259190611c39565b610eb2565b6040516102379190611c75565b60405180910390f35b61025a60048036038101906102559190611c39565b610f74565b6040516102679190611c75565b60405180910390f35b61028a60048036038101906102859190611e74565b611036565b005b6102a660048036038101906102a19190611c39565b611325565b005b6102b06114ed565b6040516102bd9190611ed5565b60405180910390f35b6102e060048036038101906102db9190611c39565b611513565b005b6102fc60048036038101906102f79190611c39565b6117f8565b6040516103099190611e59565b60405180910390f35b61032c60048036038101906103279190611c39565b6118da565b6040516103399190611e59565b60405180910390f35b600081600a60008281526020019081526020016000205460096000838152602001908152602001600020546103779190611f1f565b4211156103885761038781611325565b5b600d600082815260200190815260200160002060009054906101000a900460ff166103e8576040517f08c379a00000000000000000000000000000000000000000000000000000000081526004016103df90611fd2565b60405180910390fd5b6006600084815260200190815260200160002054915050919050565b6000600e5490506001600e600082825461041e9190611f1f565b9250508190555061042f81846119bc565b336002600083815260200190815260200160002060006101000a81548173ffffffffffffffffffffffffffffffffffffffff021916908373ffffffffffffffffffffffffffffffffffffffff160217905550876003600083815260200190815260200160002060006101000a81548173ffffffffffffffffffffffffffffffffffffffff021916908373ffffffffffffffffffffffffffffffffffffffff160217905550866004600083815260200190815260200160002060006101000a81548173ffffffffffffffffffffffffffffffffffffffff021916908373ffffffffffffffffffffffffffffffffffffffff160217905550856005600083815260200190815260200160002060006101000a81548173ffffffffffffffffffffffffffffffffffffffff021916908373ffffffffffffffffffffffffffffffffffffffff1602179055508460066000838152602001908152602001600020819055508360076000838152602001908152602001600020819055508260086000838152602001908152602001600020819055508160096000838152602001908152602001600020819055506000600b600083815260200190815260200160002060006101000a81548160ff0219169083151502179055506001600d600083815260200190815260200160002060006101000a81548160ff02191690831515021790555042600a6000838152602001908152602001600020819055507f90f2fa1daa75c18af7bcbab1998d68308c81418460117187498dcf7e1e77faae6002600083815260200190815260200160002060009054906101000a900473ffffffffffffffffffffffffffffffffffffffff166003600084815260200190815260200160002060009054906101000a900473ffffffffffffffffffffffffffffffffffffffff166004600085815260200190815260200160002060009054906101000a900473ffffffffffffffffffffffffffffffffffffffff166005600086815260200190815260200160002060009054906101000a900473ffffffffffffffffffffffffffffffffffffffff16600660008781526020019081526020016000205460076000888152602001908152602001600020546008600089815260200190815260200160002054600960008a8152602001908152602001600020548960405161079e99989796959493929190611ff2565b60405180910390a15050505050505050565b600081600a60008281526020019081526020016000205460096000838152602001908152602001600020546107e59190611f1f565b4211156107f6576107f581611325565b5b600d600082815260200190815260200160002060009054906101000a900460ff16610856576040517f08c379a000000000000000000000000000000000000000000000000000000000815260040161084d90611fd2565b60405180910390fd5b600c600084815260200190815260200160002054915050919050565b81600a60008281526020019081526020016000205460096000838152602001908152602001600020546108a59190611f1f565b4211156108b6576108b581611325565b5b600d600082815260200190815260200160002060009054906101000a900460ff16610916576040517f08c379a000000000000000000000000000000000000000000000000000000000815260040161090d90611fd2565b60405180910390fd5b826005600082815260200190815260200160002060009054906101000a900473ffffffffffffffffffffffffffffffffffffffff1673ffffffffffffffffffffffffffffffffffffffff163373ffffffffffffffffffffffffffffffffffffffff16146109b8576040517f08c379a00000000000000000000000000000000000000000000000000000000081526004016109af906120cb565b60405180910390fd5b83600b600082815260200190815260200160002060009054906101000a900460ff16610a19576040517f08c379a0000000000000000000000000000000000000000000000000000000008152600401610a109061215d565b60405180910390fd5b846003600082815260200190815260200160002060009054906101000a900473ffffffffffffffffffffffffffffffffffffffff1673ffffffffffffffffffffffffffffffffffffffff16600160009054906101000a900473ffffffffffffffffffffffffffffffffffffffff1673ffffffffffffffffffffffffffffffffffffffff16636352211e60066000858152602001908152602001600020546040518263ffffffff1660e01b8152600401610ad29190611c75565b602060405180830381865afa158015610aef573d6000803e3d6000fd5b505050506040513d601f19601f82011682018060405250810190610b139190612192565b73ffffffffffffffffffffffffffffffffffffffff1614610b69576040517f08c379a0000000000000000000000000000000000000000000000000000000008152600401610b6090612231565b60405180910390fd5b6000606486600860008a815260200190815260200160002054610b8c9190612251565b610b9691906122da565b9050610bd687600460008a815260200190815260200160002060009054906101000a900473ffffffffffffffffffffffffffffffffffffffff1683611b2e565b610bdf87611325565b7f8aab6bbb90e38304bbfeba71b83080ad1bad8f76235d19b6de43a880e06c80b36002600089815260200190815260200160002060009054906101000a900473ffffffffffffffffffffffffffffffffffffffff16600360008a815260200190815260200160002060009054906101000a900473ffffffffffffffffffffffffffffffffffffffff16600460008b815260200190815260200160002060009054906101000a900473ffffffffffffffffffffffffffffffffffffffff16600660008c815260200190815260200160002054600860008d815260200190815260200160002054428c604051610cd9979695949392919061230b565b60405180910390a150505050505050565b60008054906101000a900473ffffffffffffffffffffffffffffffffffffffff1681565b600081600a6000828152602001908152602001600020546009600083815260200190815260200160002054610d439190611f1f565b421115610d5457610d5381611325565b5b600d600082815260200190815260200160002060009054906101000a900460ff16610db4576040517f08c379a0000000000000000000000000000000000000000000000000000000008152600401610dab90611fd2565b60405180910390fd5b6009600084815260200190815260200160002054915050919050565b600081600a6000828152602001908152602001600020546009600083815260200190815260200160002054610e059190611f1f565b421115610e1657610e1581611325565b5b600d600082815260200190815260200160002060009054906101000a900460ff16610e76576040517f08c379a0000000000000000000000000000000000000000000000000000000008152600401610e6d90611fd2565b60405180910390fd5b6003600084815260200190815260200160002060009054906101000a900473ffffffffffffffffffffffffffffffffffffffff16915050919050565b600081600a6000828152602001908152602001600020546009600083815260200190815260200160002054610ee79190611f1f565b421115610ef857610ef781611325565b5b600d600082815260200190815260200160002060009054906101000a900460ff16610f58576040517f08c379a0000000000000000000000000000000000000000000000000000000008152600401610f4f90611fd2565b60405180910390fd5b6008600084815260200190815260200160002054915050919050565b600081600a6000828152602001908152602001600020546009600083815260200190815260200160002054610fa99190611f1f565b421115610fba57610fb981611325565b5b600d600082815260200190815260200160002060009054906101000a900460ff1661101a576040517f08c379a000000000000000000000000000000000000000000000000000000000815260040161101190611fd2565b60405180910390fd5b6007600084815260200190815260200160002054915050919050565b81600a60008281526020019081526020016000205460096000838152602001908152602001600020546110699190611f1f565b42111561107a5761107981611325565b5b600d600082815260200190815260200160002060009054906101000a900460ff166110da576040517f08c379a00000000000000000000000000000000000000000000000000000000081526004016110d190611fd2565b60405180910390fd5b826003600082815260200190815260200160002060009054906101000a900473ffffffffffffffffffffffffffffffffffffffff1673ffffffffffffffffffffffffffffffffffffffff163373ffffffffffffffffffffffffffffffffffffffff161461117c576040517f08c379a0000000000000000000000000000000000000000000000000000000008152600401611173906123c6565b60405180910390fd5b836003600082815260200190815260200160002060009054906101000a900473ffffffffffffffffffffffffffffffffffffffff1673ffffffffffffffffffffffffffffffffffffffff16600160009054906101000a900473ffffffffffffffffffffffffffffffffffffffff1673ffffffffffffffffffffffffffffffffffffffff16636352211e60066000858152602001908152602001600020546040518263ffffffff1660e01b81526004016112359190611c75565b602060405180830381865afa158015611252573d6000803e3d6000fd5b505050506040513d601f19601f820116820180604052508101906112769190612192565b73ffffffffffffffffffffffffffffffffffffffff16146112cc576040517f08c379a00000000000000000000000000000000000000000000000000000000081526004016112c390612231565b60405180910390fd5b836004600087815260200190815260200160002060006101000a81548173ffffffffffffffffffffffffffffffffffffffff021916908373ffffffffffffffffffffffffffffffffffffffff1602179055505050505050565b80600a60008281526020019081526020016000205460096000838152602001908152602001600020546113589190611f1f565b4211156113695761136881611325565b5b600d600082815260200190815260200160002060009054906101000a900460ff166113c9576040517f08c379a00000000000000000000000000000000000000000000000000000000081526004016113c090611fd2565b60405180910390fd5b816003600082815260200190815260200160002060009054906101000a900473ffffffffffffffffffffffffffffffffffffffff1673ffffffffffffffffffffffffffffffffffffffff163373ffffffffffffffffffffffffffffffffffffffff161461146b576040517f08c379a0000000000000000000000000000000000000000000000000000000008152600401611462906123c6565b60405180910390fd5b6114bc836002600086815260200190815260200160002060009054906101000a900473ffffffffffffffffffffffffffffffffffffffff16600c600087815260200190815260200160002054611b2e565b6000600d600085815260200190815260200160002060006101000a81548160ff021916908315150217905550505050565b600160009054906101000a900473ffffffffffffffffffffffffffffffffffffffff1681565b80600a60008281526020019081526020016000205460096000838152602001908152602001600020546115469190611f1f565b4211156115575761155681611325565b5b600d600082815260200190815260200160002060009054906101000a900460ff166115b7576040517f08c379a00000000000000000000000000000000000000000000000000000000081526004016115ae90611fd2565b60405180910390fd5b816003600082815260200190815260200160002060009054906101000a900473ffffffffffffffffffffffffffffffffffffffff1673ffffffffffffffffffffffffffffffffffffffff163373ffffffffffffffffffffffffffffffffffffffff1614611659576040517f08c379a0000000000000000000000000000000000000000000000000000000008152600401611650906123c6565b60405180910390fd5b826003600082815260200190815260200160002060009054906101000a900473ffffffffffffffffffffffffffffffffffffffff1673ffffffffffffffffffffffffffffffffffffffff16600160009054906101000a900473ffffffffffffffffffffffffffffffffffffffff1673ffffffffffffffffffffffffffffffffffffffff16636352211e60066000858152602001908152602001600020546040518263ffffffff1660e01b81526004016117129190611c75565b602060405180830381865afa15801561172f573d6000803e3d6000fd5b505050506040513d601f19601f820116820180604052508101906117539190612192565b73ffffffffffffffffffffffffffffffffffffffff16146117a9576040517f08c379a00000000000000000000000000000000000000000000000000000000081526004016117a090612231565b60405180910390fd5b6117c68460076000878152602001908152602001600020546119bc565b6001600b600086815260200190815260200160002060006101000a81548160ff02191690831515021790555050505050565b600081600a600082815260200190815260200160002054600960008381526020019081526020016000205461182d9190611f1f565b42111561183e5761183d81611325565b5b600d600082815260200190815260200160002060009054906101000a900460ff1661189e576040517f08c379a000000000000000000000000000000000000000000000000000000000815260040161189590611fd2565b60405180910390fd5b6002600084815260200190815260200160002060009054906101000a900473ffffffffffffffffffffffffffffffffffffffff16915050919050565b600081600a600082815260200190815260200160002054600960008381526020019081526020016000205461190f9190611f1f565b4211156119205761191f81611325565b5b600d600082815260200190815260200160002060009054906101000a900460ff16611980576040517f08c379a000000000000000000000000000000000000000000000000000000000815260040161197790611fd2565b60405180910390fd5b6003600084815260200190815260200160002060009054906101000a900473ffffffffffffffffffffffffffffffffffffffff16915050919050565b8060008054906101000a900473ffffffffffffffffffffffffffffffffffffffff1673ffffffffffffffffffffffffffffffffffffffff166370a08231336040518263ffffffff1660e01b8152600401611a169190611e59565b602060405180830381865afa158015611a33573d6000803e3d6000fd5b505050506040513d601f19601f82011682018060405250810190611a5791906123fb565b11611a6157600080fd5b60008054906101000a900473ffffffffffffffffffffffffffffffffffffffff1673ffffffffffffffffffffffffffffffffffffffff1663a9059cbb30836040518363ffffffff1660e01b8152600401611abc929190612428565b6020604051808303816000875af1158015611adb573d6000803e3d6000fd5b505050506040513d601f19601f82011682018060405250810190611aff9190612489565b5080600c60008481526020019081526020016000206000828254611b239190611f1f565b925050819055505050565b60008054906101000a900473ffffffffffffffffffffffffffffffffffffffff1673ffffffffffffffffffffffffffffffffffffffff166323b872dd3084846040518463ffffffff1660e01b8152600401611b8b939291906124b6565b6020604051808303816000875af1158015611baa573d6000803e3d6000fd5b505050506040513d601f19601f82011682018060405250810190611bce9190612489565b5080600c60008581526020019081526020016000206000828254611bf291906124ed565b92505081905550505050565b600080fd5b6000819050919050565b611c1681611c03565b8114611c2157600080fd5b50565b600081359050611c3381611c0d565b92915050565b600060208284031215611c4f57611c4e611bfe565b5b6000611c5d84828501611c24565b91505092915050565b611c6f81611c03565b82525050565b6000602082019050611c8a6000830184611c66565b92915050565b600073ffffffffffffffffffffffffffffffffffffffff82169050919050565b6000611cbb82611c90565b9050919050565b611ccb81611cb0565b8114611cd657600080fd5b50565b600081359050611ce881611cc2565b92915050565b600080600080600080600060e0888a031215611d0d57611d0c611bfe565b5b6000611d1b8a828b01611cd9565b9750506020611d2c8a828b01611cd9565b9650506040611d3d8a828b01611cd9565b9550506060611d4e8a828b01611c24565b9450506080611d5f8a828b01611c24565b93505060a0611d708a828b01611c24565b92505060c0611d818a828b01611c24565b91505092959891949750929550565b60008060408385031215611da757611da6611bfe565b5b6000611db585828601611c24565b9250506020611dc685828601611c24565b9150509250929050565b6000819050919050565b6000611df5611df0611deb84611c90565b611dd0565b611c90565b9050919050565b6000611e0782611dda565b9050919050565b6000611e1982611dfc565b9050919050565b611e2981611e0e565b82525050565b6000602082019050611e446000830184611e20565b92915050565b611e5381611cb0565b82525050565b6000602082019050611e6e6000830184611e4a565b92915050565b60008060408385031215611e8b57611e8a611bfe565b5b6000611e9985828601611c24565b9250506020611eaa85828601611cd9565b9150509250929050565b6000611ebf82611dfc565b9050919050565b611ecf81611eb4565b82525050565b6000602082019050611eea6000830184611ec6565b92915050565b7f4e487b7100000000000000000000000000000000000000000000000000000000600052601160045260246000fd5b6000611f2a82611c03565b9150611f3583611c03565b9250827fffffffffffffffffffffffffffffffffffffffffffffffffffffffffffffffff03821115611f6a57611f69611ef0565b5b828201905092915050565b600082825260208201905092915050565b7f5468697320696e737572616e6365206964206973206e6f742065786973740000600082015250565b6000611fbc601e83611f75565b9150611fc782611f86565b602082019050919050565b60006020820190508181036000830152611feb81611faf565b9050919050565b600061012082019050612008600083018c611e4a565b612015602083018b611e4a565b612022604083018a611e4a565b61202f6060830189611e4a565b61203c6080830188611c66565b61204960a0830187611c66565b61205660c0830186611c66565b61206360e0830185611c66565b612071610100830184611c66565b9a9950505050505050505050565b7f486f757365496e737572616e63653a2076616c696461746f72206f6e6c790000600082015250565b60006120b5601e83611f75565b91506120c08261207f565b602082019050919050565b600060208201905081810360008301526120e4816120a8565b9050919050565b7f486f757365496e737572616e63653a2067756172616e746f722073686f756c6460008201527f2070617920666972737400000000000000000000000000000000000000000000602082015250565b6000612147602a83611f75565b9150612152826120eb565b604082019050919050565b600060208201905081810360008301526121768161213a565b9050919050565b60008151905061218c81611cc2565b92915050565b6000602082840312156121a8576121a7611bfe565b5b60006121b68482850161217d565b91505092915050565b7f496e737572616e63653a2047756172616e746f72206973206e6f74206f776e6560008201527f72206f662074617267657420746f6b656e2e0000000000000000000000000000602082015250565b600061221b603283611f75565b9150612226826121bf565b604082019050919050565b6000602082019050818103600083015261224a8161220e565b9050919050565b600061225c82611c03565b915061226783611c03565b9250817fffffffffffffffffffffffffffffffffffffffffffffffffffffffffffffffff04831182151516156122a05761229f611ef0565b5b828202905092915050565b7f4e487b7100000000000000000000000000000000000000000000000000000000600052601260045260246000fd5b60006122e582611c03565b91506122f083611c03565b925082612300576122ff6122ab565b5b828204905092915050565b600060e082019050612320600083018a611e4a565b61232d6020830189611e4a565b61233a6040830188611e4a565b6123476060830187611c66565b6123546080830186611c66565b61236160a0830185611c66565b61236e60c0830184611c66565b98975050505050505050565b7f486f757365496e737572616e63653a2067756172616e746f72206f6e6c790000600082015250565b60006123b0601e83611f75565b91506123bb8261237a565b602082019050919050565b600060208201905081810360008301526123df816123a3565b9050919050565b6000815190506123f581611c0d565b92915050565b60006020828403121561241157612410611bfe565b5b600061241f848285016123e6565b91505092915050565b600060408201905061243d6000830185611e4a565b61244a6020830184611c66565b9392505050565b60008115159050919050565b61246681612451565b811461247157600080fd5b50565b6000815190506124838161245d565b92915050565b60006020828403121561249f5761249e611bfe565b5b60006124ad84828501612474565b91505092915050565b60006060820190506124cb6000830186611e4a565b6124d86020830185611e4a565b6124e56040830184611c66565b949350505050565b60006124f882611c03565b915061250383611c03565b92508282101561251657612515611ef0565b5b82820390509291505056fea2646970667358221220e6c0cdb3c07895893da1df25c0c80f46304243e97e20db23aa444b332174fcc464736f6c634300080e0033",
  "immutableReferences": {},
  "source": "// SPDX-License-Identifier: MIT\n\npragma solidity ^0.8.0;\n\nimport \"./Insurance.sol\";\nimport \"./ERC721Land.sol\";\nimport \"./ERC20Dlc.sol\";\n\ncontract Exchange {\n\n    ERC721Land erc721land;\n    ERC20Dlc erc20dlc;\n    Insurance insurance;\n\n    constructor(\n        string memory ERC20name, string memory ERC20symbol, \n        string memory ERC721name, string memory ERC721symbol,\n        string memory ERC721baseTokenURI \n    ) {\n        erc20dlc = new ERC20Dlc(ERC20name, ERC20symbol);\n        erc721land = new ERC721Land(\n                ERC721name, ERC721symbol,\n                ERC721baseTokenURI, erc20dlc\n        );\n        insurance = new Insurance(erc20dlc, erc721land);\n    }\n\n    function getERC721Land() public view returns(ERC721Land) {\n        return erc721land;\n    }\n\n    function getERC20Dlc() public view returns(ERC20Dlc) {\n        return erc20dlc;\n    }\n\n    function getInsurance() public view returns(Insurance) {\n        return insurance;\n    }\n}",
  "sourcePath": "/Users/arutoriawhite/Repos/deadline-champion/truffle-project/contracts/Main.sol",
  "compiler": {
    "name": "solc",
    "version": "0.8.14+commit.80d49f37.Emscripten.clang"
  },
  "schemaVersion": "3.4.7",
  "updatedAt": "2022-06-08T13:49:37.966Z",
  "devdoc": {
    "kind": "dev",
    "methods": {},
    "version": 1
  },
  "userdoc": {
    "kind": "user",
    "methods": {},
    "version": 1
  }
}