{
  "contractName": "Exchange",
  "abi": [
    {
      "inputs": [
        {
          "internalType": "string",
          "name": "ERC20name",
          "type": "string"
        },
        {
          "internalType": "string",
          "name": "ERC20symbol",
          "type": "string"
        },
        {
          "internalType": "string",
          "name": "ERC721name",
          "type": "string"
        },
        {
          "internalType": "string",
          "name": "ERC721symbol",
          "type": "string"
        },
        {
          "internalType": "string",
          "name": "ERC721baseTokenURI",
          "type": "string"
        }
      ],
      "stateMutability": "nonpayable",
      "type": "constructor"
    },
    {
      "inputs": [],
      "name": "getERC721Land",
      "outputs": [
        {
          "internalType": "contract ERC721Land",
          "name": "",
          "type": "address"
        }
      ],
      "stateMutability": "view",
      "type": "function",
      "constant": true
    },
    {
      "inputs": [],
      "name": "getERC20Dlc",
      "outputs": [
        {
          "internalType": "contract ERC20Dlc",
          "name": "",
          "type": "address"
        }
      ],
      "stateMutability": "view",
      "type": "function",
      "constant": true
    },
    {
      "inputs": [],
      "name": "getInsurance",
      "outputs": [
        {
          "internalType": "contract Insurance",
          "name": "",
          "type": "address"
        }
      ],
      "stateMutability": "view",
      "type": "function",
      "constant": true
    }
  ],
  "bytecode": "0x60806040523480156200001157600080fd5b5060405162003eb538038062003eb5833981810160405281019062000037919062000268565b84846040516200004790620000bd565b62000054929190620003e8565b604051809103906000f08015801562000071573d6000803e3d6000fd5b50600160006101000a81548173ffffffffffffffffffffffffffffffffffffffff021916908373ffffffffffffffffffffffffffffffffffffffff160217905550505050505062000423565b61381d806200069883390190565b6000604051905090565b600080fd5b600080fd5b600080fd5b600080fd5b6000601f19601f8301169050919050565b7f4e487b7100000000000000000000000000000000000000000000000000000000600052604160045260246000fd5b6200013482620000e9565b810181811067ffffffffffffffff82111715620001565762000155620000fa565b5b80604052505050565b60006200016b620000cb565b905062000179828262000129565b919050565b600067ffffffffffffffff8211156200019c576200019b620000fa565b5b620001a782620000e9565b9050602081019050919050565b60005b83811015620001d4578082015181840152602081019050620001b7565b83811115620001e4576000848401525b50505050565b600062000201620001fb846200017e565b6200015f565b90508281526020810184848401111562000220576200021f620000e4565b5b6200022d848285620001b4565b509392505050565b600082601f8301126200024d576200024c620000df565b5b81516200025f848260208601620001ea565b91505092915050565b600080600080600060a08688031215620002875762000286620000d5565b5b600086015167ffffffffffffffff811115620002a857620002a7620000da565b5b620002b68882890162000235565b955050602086015167ffffffffffffffff811115620002da57620002d9620000da565b5b620002e88882890162000235565b945050604086015167ffffffffffffffff8111156200030c576200030b620000da565b5b6200031a8882890162000235565b935050606086015167ffffffffffffffff8111156200033e576200033d620000da565b5b6200034c8882890162000235565b925050608086015167ffffffffffffffff81111562000370576200036f620000da565b5b6200037e8882890162000235565b9150509295509295909350565b600081519050919050565b600082825260208201905092915050565b6000620003b4826200038b565b620003c0818562000396565b9350620003d2818560208601620001b4565b620003dd81620000e9565b840191505092915050565b60006040820190508181036000830152620004048185620003a7565b905081810360208301526200041a8184620003a7565b90509392505050565b61026580620004336000396000f3fe608060405234801561001057600080fd5b50600436106100415760003560e01c80630ea0f709146100465780631866b8c214610064578063267a8da014610082575b600080fd5b61004e6100a0565b60405161005b919061019c565b60405180910390f35b61006c6100c9565b60405161007991906101d8565b60405180910390f35b61008a6100f3565b6040516100979190610214565b60405180910390f35b60008060009054906101000a900473ffffffffffffffffffffffffffffffffffffffff16905090565b6000600160009054906101000a900473ffffffffffffffffffffffffffffffffffffffff16905090565b6000600260009054906101000a900473ffffffffffffffffffffffffffffffffffffffff16905090565b600073ffffffffffffffffffffffffffffffffffffffff82169050919050565b6000819050919050565b600061016261015d6101588461011d565b61013d565b61011d565b9050919050565b600061017482610147565b9050919050565b600061018682610169565b9050919050565b6101968161017b565b82525050565b60006020820190506101b1600083018461018d565b92915050565b60006101c282610169565b9050919050565b6101d2816101b7565b82525050565b60006020820190506101ed60008301846101c9565b92915050565b60006101fe82610169565b9050919050565b61020e816101f3565b82525050565b60006020820190506102296000830184610205565b9291505056fea26469706673582212206dbf7d91841a14cfba855cfb879c6b79d8e567c6b8b63f780b73f48c79f4eedc64736f6c634300080e003360806040523480156200001157600080fd5b506040516200381d3803806200381d83398181016040528101906200003791906200061d565b81818181816005908051906020019062000053929190620003d0565b5080600690805190602001906200006c929190620003d0565b5050506000600760006101000a81548160ff021916908315150217905550620000ae6000801b620000a26200013a60201b60201c565b6200014260201b60201c565b620000ef7f9f2df0fed2c77648de5860a4cc508cd0818c85b8b8a1ab4ceeef8d981c8956a6620000e36200013a60201b60201c565b6200014260201b60201c565b620001307f65d7a28e3265b37a6474929f336521b332c1681b933f6cb9f3376673440d862a620001246200013a60201b60201c565b6200014260201b60201c565b5050505062000706565b600033905090565b6200015482826200015860201b60201c565b5050565b6200016f8282620001a060201b62000d061760201c565b6200019b81600160008581526020019081526020016000206200029160201b62000de61790919060201c565b505050565b620001b28282620002c960201b60201c565b6200028d57600160008084815260200190815260200160002060000160008373ffffffffffffffffffffffffffffffffffffffff1673ffffffffffffffffffffffffffffffffffffffff16815260200190815260200160002060006101000a81548160ff021916908315150217905550620002326200013a60201b60201c565b73ffffffffffffffffffffffffffffffffffffffff168173ffffffffffffffffffffffffffffffffffffffff16837f2f8788117e7eff1d82e926ec794901d17c78024a50270940304540a733656f0d60405160405180910390a45b5050565b6000620002c1836000018373ffffffffffffffffffffffffffffffffffffffff1660001b6200033360201b60201c565b905092915050565b600080600084815260200190815260200160002060000160008373ffffffffffffffffffffffffffffffffffffffff1673ffffffffffffffffffffffffffffffffffffffff16815260200190815260200160002060009054906101000a900460ff16905092915050565b6000620003478383620003ad60201b60201c565b620003a2578260000182908060018154018082558091505060019003906000526020600020016000909190919091505582600001805490508360010160008481526020019081526020016000208190555060019050620003a7565b600090505b92915050565b600080836001016000848152602001908152602001600020541415905092915050565b828054620003de90620006d1565b90600052602060002090601f0160209004810192826200040257600085556200044e565b82601f106200041d57805160ff19168380011785556200044e565b828001600101855582156200044e579182015b828111156200044d57825182559160200191906001019062000430565b5b5090506200045d919062000461565b5090565b5b808211156200047c57600081600090555060010162000462565b5090565b6000604051905090565b600080fd5b600080fd5b600080fd5b600080fd5b6000601f19601f8301169050919050565b7f4e487b7100000000000000000000000000000000000000000000000000000000600052604160045260246000fd5b620004e9826200049e565b810181811067ffffffffffffffff821117156200050b576200050a620004af565b5b80604052505050565b60006200052062000480565b90506200052e8282620004de565b919050565b600067ffffffffffffffff821115620005515762000550620004af565b5b6200055c826200049e565b9050602081019050919050565b60005b83811015620005895780820151818401526020810190506200056c565b8381111562000599576000848401525b50505050565b6000620005b6620005b08462000533565b62000514565b905082815260208101848484011115620005d557620005d462000499565b5b620005e284828562000569565b509392505050565b600082601f83011262000602576200060162000494565b5b8151620006148482602086016200059f565b91505092915050565b600080604083850312156200063757620006366200048a565b5b600083015167ffffffffffffffff8111156200065857620006576200048f565b5b6200066685828601620005ea565b925050602083015167ffffffffffffffff8111156200068a57620006896200048f565b5b6200069885828601620005ea565b9150509250929050565b7f4e487b7100000000000000000000000000000000000000000000000000000000600052602260045260246000fd5b60006002820490506001821680620006ea57607f821691505b6020821081036200070057620006ff620006a2565b5b50919050565b61310780620007166000396000f3fe608060405234801561001057600080fd5b50600436106101c45760003560e01c806370a08231116100f9578063a457c2d711610097578063d539139311610071578063d53913931461052d578063d547741f1461054b578063dd62ed3e14610567578063e63ab1e914610597576101c4565b8063a457c2d71461049d578063a9059cbb146104cd578063ca15c873146104fd576101c4565b80639010d07c116100d35780639010d07c1461040157806391d148541461043157806395d89b4114610461578063a217fddf1461047f576101c4565b806370a08231146103ab57806379cc6790146103db5780638456cb59146103f7576101c4565b8063313ce567116101665780633f4ba83a116101405780633f4ba83a1461034b57806340c10f191461035557806342966c68146103715780635c975abb1461038d576101c4565b8063313ce567146102e157806336568abe146102ff578063395093511461031b576101c4565b806318160ddd116101a257806318160ddd1461024757806323b872dd14610265578063248a9ca3146102955780632f2ff15d146102c5576101c4565b806301ffc9a7146101c957806306fdde03146101f9578063095ea7b314610217575b600080fd5b6101e360048036038101906101de9190611f9d565b6105b5565b6040516101f09190611fe5565b60405180910390f35b61020161062f565b60405161020e9190612099565b60405180910390f35b610231600480360381019061022c919061214f565b6106c1565b60405161023e9190611fe5565b60405180910390f35b61024f6106e4565b60405161025c919061219e565b60405180910390f35b61027f600480360381019061027a91906121b9565b6106ee565b60405161028c9190611fe5565b60405180910390f35b6102af60048036038101906102aa9190612242565b61071d565b6040516102bc919061227e565b60405180910390f35b6102df60048036038101906102da9190612299565b61073c565b005b6102e961075d565b6040516102f691906122f5565b60405180910390f35b61031960048036038101906103149190612299565b610766565b005b6103356004803603810190610330919061214f565b6107e9565b6040516103429190611fe5565b60405180910390f35b610353610820565b005b61036f600480360381019061036a919061214f565b61089a565b005b61038b60048036038101906103869190612310565b610918565b005b61039561092c565b6040516103a29190611fe5565b60405180910390f35b6103c560048036038101906103c0919061233d565b610943565b6040516103d2919061219e565b60405180910390f35b6103f560048036038101906103f0919061214f565b61098c565b005b6103ff6109ac565b005b61041b6004803603810190610416919061236a565b610a26565b60405161042891906123b9565b60405180910390f35b61044b60048036038101906104469190612299565b610a55565b6040516104589190611fe5565b60405180910390f35b610469610abf565b6040516104769190612099565b60405180910390f35b610487610b51565b604051610494919061227e565b60405180910390f35b6104b760048036038101906104b2919061214f565b610b58565b6040516104c49190611fe5565b60405180910390f35b6104e760048036038101906104e2919061214f565b610bcf565b6040516104f49190611fe5565b60405180910390f35b61051760048036038101906105129190612242565b610bf2565b604051610524919061219e565b60405180910390f35b610535610c16565b604051610542919061227e565b60405180910390f35b61056560048036038101906105609190612299565b610c3a565b005b610581600480360381019061057c91906123d4565b610c5b565b60405161058e919061219e565b60405180910390f35b61059f610ce2565b6040516105ac919061227e565b60405180910390f35b60007f5a05180f000000000000000000000000000000000000000000000000000000007bffffffffffffffffffffffffffffffffffffffffffffffffffffffff1916827bffffffffffffffffffffffffffffffffffffffffffffffffffffffff19161480610628575061062782610e16565b5b9050919050565b60606005805461063e90612443565b80601f016020809104026020016040519081016040528092919081815260200182805461066a90612443565b80156106b75780601f1061068c576101008083540402835291602001916106b7565b820191906000526020600020905b81548152906001019060200180831161069a57829003601f168201915b5050505050905090565b6000806106cc610e90565b90506106d9818585610e98565b600191505092915050565b6000600454905090565b6000806106f9610e90565b9050610706858285611061565b6107118585856110ed565b60019150509392505050565b6000806000838152602001908152602001600020600101549050919050565b6107458261071d565b61074e8161136f565b6107588383611383565b505050565b60006012905090565b61076e610e90565b73ffffffffffffffffffffffffffffffffffffffff168173ffffffffffffffffffffffffffffffffffffffff16146107db576040517f08c379a00000000000000000000000000000000000000000000000000000000081526004016107d2906124e6565b60405180910390fd5b6107e582826113b7565b5050565b6000806107f4610e90565b90506108158185856108068589610c5b565b6108109190612535565b610e98565b600191505092915050565b6108517f65d7a28e3265b37a6474929f336521b332c1681b933f6cb9f3376673440d862a61084c610e90565b610a55565b610890576040517f08c379a0000000000000000000000000000000000000000000000000000000008152600401610887906125fd565b60405180910390fd5b6108986113eb565b565b6108cb7f9f2df0fed2c77648de5860a4cc508cd0818c85b8b8a1ab4ceeef8d981c8956a66108c6610e90565b610a55565b61090a576040517f08c379a00000000000000000000000000000000000000000000000000000000081526004016109019061268f565b60405180910390fd5b610914828261148d565b5050565b610929610923610e90565b826115ed565b50565b6000600760009054906101000a900460ff16905090565b6000600260008373ffffffffffffffffffffffffffffffffffffffff1673ffffffffffffffffffffffffffffffffffffffff168152602001908152602001600020549050919050565b61099e82610998610e90565b83611061565b6109a882826115ed565b5050565b6109dd7f65d7a28e3265b37a6474929f336521b332c1681b933f6cb9f3376673440d862a6109d8610e90565b610a55565b610a1c576040517f08c379a0000000000000000000000000000000000000000000000000000000008152600401610a1390612721565b60405180910390fd5b610a246117c5565b565b6000610a4d826001600086815260200190815260200160002061186890919063ffffffff16565b905092915050565b600080600084815260200190815260200160002060000160008373ffffffffffffffffffffffffffffffffffffffff1673ffffffffffffffffffffffffffffffffffffffff16815260200190815260200160002060009054906101000a900460ff16905092915050565b606060068054610ace90612443565b80601f0160208091040260200160405190810160405280929190818152602001828054610afa90612443565b8015610b475780601f10610b1c57610100808354040283529160200191610b47565b820191906000526020600020905b815481529060010190602001808311610b2a57829003601f168201915b5050505050905090565b6000801b81565b600080610b63610e90565b90506000610b718286610c5b565b905083811015610bb6576040517f08c379a0000000000000000000000000000000000000000000000000000000008152600401610bad906127b3565b60405180910390fd5b610bc38286868403610e98565b60019250505092915050565b600080610bda610e90565b9050610be78185856110ed565b600191505092915050565b6000610c0f60016000848152602001908152602001600020611882565b9050919050565b7f9f2df0fed2c77648de5860a4cc508cd0818c85b8b8a1ab4ceeef8d981c8956a681565b610c438261071d565b610c4c8161136f565b610c5683836113b7565b505050565b6000600360008473ffffffffffffffffffffffffffffffffffffffff1673ffffffffffffffffffffffffffffffffffffffff16815260200190815260200160002060008373ffffffffffffffffffffffffffffffffffffffff1673ffffffffffffffffffffffffffffffffffffffff16815260200190815260200160002054905092915050565b7f65d7a28e3265b37a6474929f336521b332c1681b933f6cb9f3376673440d862a81565b610d108282610a55565b610de257600160008084815260200190815260200160002060000160008373ffffffffffffffffffffffffffffffffffffffff1673ffffffffffffffffffffffffffffffffffffffff16815260200190815260200160002060006101000a81548160ff021916908315150217905550610d87610e90565b73ffffffffffffffffffffffffffffffffffffffff168173ffffffffffffffffffffffffffffffffffffffff16837f2f8788117e7eff1d82e926ec794901d17c78024a50270940304540a733656f0d60405160405180910390a45b5050565b6000610e0e836000018373ffffffffffffffffffffffffffffffffffffffff1660001b611897565b905092915050565b60007f7965db0b000000000000000000000000000000000000000000000000000000007bffffffffffffffffffffffffffffffffffffffffffffffffffffffff1916827bffffffffffffffffffffffffffffffffffffffffffffffffffffffff19161480610e895750610e8882611907565b5b9050919050565b600033905090565b600073ffffffffffffffffffffffffffffffffffffffff168373ffffffffffffffffffffffffffffffffffffffff1603610f07576040517f08c379a0000000000000000000000000000000000000000000000000000000008152600401610efe90612845565b60405180910390fd5b600073ffffffffffffffffffffffffffffffffffffffff168273ffffffffffffffffffffffffffffffffffffffff1603610f76576040517f08c379a0000000000000000000000000000000000000000000000000000000008152600401610f6d906128d7565b60405180910390fd5b80600360008573ffffffffffffffffffffffffffffffffffffffff1673ffffffffffffffffffffffffffffffffffffffff16815260200190815260200160002060008473ffffffffffffffffffffffffffffffffffffffff1673ffffffffffffffffffffffffffffffffffffffff168152602001908152602001600020819055508173ffffffffffffffffffffffffffffffffffffffff168373ffffffffffffffffffffffffffffffffffffffff167f8c5be1e5ebec7d5bd14f71427d1e84f3dd0314c0f7b2291e5b200ac8c7c3b92583604051611054919061219e565b60405180910390a3505050565b600061106d8484610c5b565b90507fffffffffffffffffffffffffffffffffffffffffffffffffffffffffffffffff81146110e757818110156110d9576040517f08c379a00000000000000000000000000000000000000000000000000000000081526004016110d090612943565b60405180910390fd5b6110e68484848403610e98565b5b50505050565b600073ffffffffffffffffffffffffffffffffffffffff168373ffffffffffffffffffffffffffffffffffffffff160361115c576040517f08c379a0000000000000000000000000000000000000000000000000000000008152600401611153906129d5565b60405180910390fd5b600073ffffffffffffffffffffffffffffffffffffffff168273ffffffffffffffffffffffffffffffffffffffff16036111cb576040517f08c379a00000000000000000000000000000000000000000000000000000000081526004016111c290612a67565b60405180910390fd5b6111d6838383611971565b6000600260008573ffffffffffffffffffffffffffffffffffffffff1673ffffffffffffffffffffffffffffffffffffffff1681526020019081526020016000205490508181101561125d576040517f08c379a000000000000000000000000000000000000000000000000000000000815260040161125490612af9565b60405180910390fd5b818103600260008673ffffffffffffffffffffffffffffffffffffffff1673ffffffffffffffffffffffffffffffffffffffff1681526020019081526020016000208190555081600260008573ffffffffffffffffffffffffffffffffffffffff1673ffffffffffffffffffffffffffffffffffffffff16815260200190815260200160002060008282546112f29190612535565b925050819055508273ffffffffffffffffffffffffffffffffffffffff168473ffffffffffffffffffffffffffffffffffffffff167fddf252ad1be2c89b69c2b068fc378daa952ba7f163c4a11628f55a4df523b3ef84604051611356919061219e565b60405180910390a3611369848484611981565b50505050565b6113808161137b610e90565b611986565b50565b61138d8282610d06565b6113b28160016000858152602001908152602001600020610de690919063ffffffff16565b505050565b6113c18282611a23565b6113e68160016000858152602001908152602001600020611b0490919063ffffffff16565b505050565b6113f361092c565b611432576040517f08c379a000000000000000000000000000000000000000000000000000000000815260040161142990612b65565b60405180910390fd5b6000600760006101000a81548160ff0219169083151502179055507f5db9ee0a495bf2e6ff9c91a7834c1ba4fdd244a5e8aa4e537bd38aeae4b073aa611476610e90565b60405161148391906123b9565b60405180910390a1565b600073ffffffffffffffffffffffffffffffffffffffff168273ffffffffffffffffffffffffffffffffffffffff16036114fc576040517f08c379a00000000000000000000000000000000000000000000000000000000081526004016114f390612bd1565b60405180910390fd5b61150860008383611971565b806004600082825461151a9190612535565b9250508190555080600260008473ffffffffffffffffffffffffffffffffffffffff1673ffffffffffffffffffffffffffffffffffffffff16815260200190815260200160002060008282546115709190612535565b925050819055508173ffffffffffffffffffffffffffffffffffffffff16600073ffffffffffffffffffffffffffffffffffffffff167fddf252ad1be2c89b69c2b068fc378daa952ba7f163c4a11628f55a4df523b3ef836040516115d5919061219e565b60405180910390a36115e960008383611981565b5050565b600073ffffffffffffffffffffffffffffffffffffffff168273ffffffffffffffffffffffffffffffffffffffff160361165c576040517f08c379a000000000000000000000000000000000000000000000000000000000815260040161165390612c63565b60405180910390fd5b61166882600083611971565b6000600260008473ffffffffffffffffffffffffffffffffffffffff1673ffffffffffffffffffffffffffffffffffffffff168152602001908152602001600020549050818110156116ef576040517f08c379a00000000000000000000000000000000000000000000000000000000081526004016116e690612cf5565b60405180910390fd5b818103600260008573ffffffffffffffffffffffffffffffffffffffff1673ffffffffffffffffffffffffffffffffffffffff1681526020019081526020016000208190555081600460008282546117479190612d15565b92505081905550600073ffffffffffffffffffffffffffffffffffffffff168373ffffffffffffffffffffffffffffffffffffffff167fddf252ad1be2c89b69c2b068fc378daa952ba7f163c4a11628f55a4df523b3ef846040516117ac919061219e565b60405180910390a36117c083600084611981565b505050565b6117cd61092c565b1561180d576040517f08c379a000000000000000000000000000000000000000000000000000000000815260040161180490612d95565b60405180910390fd5b6001600760006101000a81548160ff0219169083151502179055507f62e78cea01bee320cd4e420270b5ea74000d11b0c9f74754ebdbfc544b05a258611851610e90565b60405161185e91906123b9565b60405180910390a1565b60006118778360000183611b34565b60001c905092915050565b600061189082600001611b5f565b9050919050565b60006118a38383611b70565b6118fc578260000182908060018154018082558091505060019003906000526020600020016000909190919091505582600001805490508360010160008481526020019081526020016000208190555060019050611901565b600090505b92915050565b60007f01ffc9a7000000000000000000000000000000000000000000000000000000007bffffffffffffffffffffffffffffffffffffffffffffffffffffffff1916827bffffffffffffffffffffffffffffffffffffffffffffffffffffffff1916149050919050565b61197c838383611b93565b505050565b505050565b6119908282610a55565b611a1f576119b58173ffffffffffffffffffffffffffffffffffffffff166014611beb565b6119c38360001c6020611beb565b6040516020016119d4929190612e89565b6040516020818303038152906040526040517f08c379a0000000000000000000000000000000000000000000000000000000008152600401611a169190612099565b60405180910390fd5b5050565b611a2d8282610a55565b15611b0057600080600084815260200190815260200160002060000160008373ffffffffffffffffffffffffffffffffffffffff1673ffffffffffffffffffffffffffffffffffffffff16815260200190815260200160002060006101000a81548160ff021916908315150217905550611aa5610e90565b73ffffffffffffffffffffffffffffffffffffffff168173ffffffffffffffffffffffffffffffffffffffff16837ff6391f5c32d9c69d2a47ea670b442974b53935d1edc7fd64eb21e047a839171b60405160405180910390a45b5050565b6000611b2c836000018373ffffffffffffffffffffffffffffffffffffffff1660001b611e27565b905092915050565b6000826000018281548110611b4c57611b4b612ec3565b5b9060005260206000200154905092915050565b600081600001805490509050919050565b600080836001016000848152602001908152602001600020541415905092915050565b611b9e838383611f3b565b611ba661092c565b15611be6576040517f08c379a0000000000000000000000000000000000000000000000000000000008152600401611bdd90612f64565b60405180910390fd5b505050565b606060006002836002611bfe9190612f84565b611c089190612535565b67ffffffffffffffff811115611c2157611c20612fde565b5b6040519080825280601f01601f191660200182016040528015611c535781602001600182028036833780820191505090505b5090507f300000000000000000000000000000000000000000000000000000000000000081600081518110611c8b57611c8a612ec3565b5b60200101907effffffffffffffffffffffffffffffffffffffffffffffffffffffffffffff1916908160001a9053507f780000000000000000000000000000000000000000000000000000000000000081600181518110611cef57611cee612ec3565b5b60200101907effffffffffffffffffffffffffffffffffffffffffffffffffffffffffffff1916908160001a90535060006001846002611d2f9190612f84565b611d399190612535565b90505b6001811115611dd9577f3031323334353637383961626364656600000000000000000000000000000000600f861660108110611d7b57611d7a612ec3565b5b1a60f81b828281518110611d9257611d91612ec3565b5b60200101907effffffffffffffffffffffffffffffffffffffffffffffffffffffffffffff1916908160001a905350600485901c945080611dd29061300d565b9050611d3c565b5060008414611e1d576040517f08c379a0000000000000000000000000000000000000000000000000000000008152600401611e1490613082565b60405180910390fd5b8091505092915050565b60008083600101600084815260200190815260200160002054905060008114611f2f576000600182611e599190612d15565b9050600060018660000180549050611e719190612d15565b9050818114611ee0576000866000018281548110611e9257611e91612ec3565b5b9060005260206000200154905080876000018481548110611eb657611eb5612ec3565b5b90600052602060002001819055508387600101600083815260200190815260200160002081905550505b85600001805480611ef457611ef36130a2565b5b600190038181906000526020600020016000905590558560010160008681526020019081526020016000206000905560019350505050611f35565b60009150505b92915050565b505050565b600080fd5b60007fffffffff0000000000000000000000000000000000000000000000000000000082169050919050565b611f7a81611f45565b8114611f8557600080fd5b50565b600081359050611f9781611f71565b92915050565b600060208284031215611fb357611fb2611f40565b5b6000611fc184828501611f88565b91505092915050565b60008115159050919050565b611fdf81611fca565b82525050565b6000602082019050611ffa6000830184611fd6565b92915050565b600081519050919050565b600082825260208201905092915050565b60005b8381101561203a57808201518184015260208101905061201f565b83811115612049576000848401525b50505050565b6000601f19601f8301169050919050565b600061206b82612000565b612075818561200b565b935061208581856020860161201c565b61208e8161204f565b840191505092915050565b600060208201905081810360008301526120b38184612060565b905092915050565b600073ffffffffffffffffffffffffffffffffffffffff82169050919050565b60006120e6826120bb565b9050919050565b6120f6816120db565b811461210157600080fd5b50565b600081359050612113816120ed565b92915050565b6000819050919050565b61212c81612119565b811461213757600080fd5b50565b60008135905061214981612123565b92915050565b6000806040838503121561216657612165611f40565b5b600061217485828601612104565b92505060206121858582860161213a565b9150509250929050565b61219881612119565b82525050565b60006020820190506121b3600083018461218f565b92915050565b6000806000606084860312156121d2576121d1611f40565b5b60006121e086828701612104565b93505060206121f186828701612104565b92505060406122028682870161213a565b9150509250925092565b6000819050919050565b61221f8161220c565b811461222a57600080fd5b50565b60008135905061223c81612216565b92915050565b60006020828403121561225857612257611f40565b5b60006122668482850161222d565b91505092915050565b6122788161220c565b82525050565b6000602082019050612293600083018461226f565b92915050565b600080604083850312156122b0576122af611f40565b5b60006122be8582860161222d565b92505060206122cf85828601612104565b9150509250929050565b600060ff82169050919050565b6122ef816122d9565b82525050565b600060208201905061230a60008301846122e6565b92915050565b60006020828403121561232657612325611f40565b5b60006123348482850161213a565b91505092915050565b60006020828403121561235357612352611f40565b5b600061236184828501612104565b91505092915050565b6000806040838503121561238157612380611f40565b5b600061238f8582860161222d565b92505060206123a08582860161213a565b9150509250929050565b6123b3816120db565b82525050565b60006020820190506123ce60008301846123aa565b92915050565b600080604083850312156123eb576123ea611f40565b5b60006123f985828601612104565b925050602061240a85828601612104565b9150509250929050565b7f4e487b7100000000000000000000000000000000000000000000000000000000600052602260045260246000fd5b6000600282049050600182168061245b57607f821691505b60208210810361246e5761246d612414565b5b50919050565b7f416363657373436f6e74726f6c3a2063616e206f6e6c792072656e6f756e636560008201527f20726f6c657320666f722073656c660000000000000000000000000000000000602082015250565b60006124d0602f8361200b565b91506124db82612474565b604082019050919050565b600060208201905081810360008301526124ff816124c3565b9050919050565b7f4e487b7100000000000000000000000000000000000000000000000000000000600052601160045260246000fd5b600061254082612119565b915061254b83612119565b9250827fffffffffffffffffffffffffffffffffffffffffffffffffffffffffffffffff038211156125805761257f612506565b5b828201905092915050565b7f45524332305072657365744d696e7465725061757365723a206d75737420686160008201527f76652070617573657220726f6c6520746f20756e706175736500000000000000602082015250565b60006125e760398361200b565b91506125f28261258b565b604082019050919050565b60006020820190508181036000830152612616816125da565b9050919050565b7f45524332305072657365744d696e7465725061757365723a206d75737420686160008201527f7665206d696e74657220726f6c6520746f206d696e7400000000000000000000602082015250565b600061267960368361200b565b91506126848261261d565b604082019050919050565b600060208201905081810360008301526126a88161266c565b9050919050565b7f45524332305072657365744d696e7465725061757365723a206d75737420686160008201527f76652070617573657220726f6c6520746f207061757365000000000000000000602082015250565b600061270b60378361200b565b9150612716826126af565b604082019050919050565b6000602082019050818103600083015261273a816126fe565b9050919050565b7f45524332303a2064656372656173656420616c6c6f77616e63652062656c6f7760008201527f207a65726f000000000000000000000000000000000000000000000000000000602082015250565b600061279d60258361200b565b91506127a882612741565b604082019050919050565b600060208201905081810360008301526127cc81612790565b9050919050565b7f45524332303a20617070726f76652066726f6d20746865207a65726f2061646460008201527f7265737300000000000000000000000000000000000000000000000000000000602082015250565b600061282f60248361200b565b915061283a826127d3565b604082019050919050565b6000602082019050818103600083015261285e81612822565b9050919050565b7f45524332303a20617070726f766520746f20746865207a65726f20616464726560008201527f7373000000000000000000000000000000000000000000000000000000000000602082015250565b60006128c160228361200b565b91506128cc82612865565b604082019050919050565b600060208201905081810360008301526128f0816128b4565b9050919050565b7f45524332303a20696e73756666696369656e7420616c6c6f77616e6365000000600082015250565b600061292d601d8361200b565b9150612938826128f7565b602082019050919050565b6000602082019050818103600083015261295c81612920565b9050919050565b7f45524332303a207472616e736665722066726f6d20746865207a65726f20616460008201527f6472657373000000000000000000000000000000000000000000000000000000602082015250565b60006129bf60258361200b565b91506129ca82612963565b604082019050919050565b600060208201905081810360008301526129ee816129b2565b9050919050565b7f45524332303a207472616e7366657220746f20746865207a65726f206164647260008201527f6573730000000000000000000000000000000000000000000000000000000000602082015250565b6000612a5160238361200b565b9150612a5c826129f5565b604082019050919050565b60006020820190508181036000830152612a8081612a44565b9050919050565b7f45524332303a207472616e7366657220616d6f756e742065786365656473206260008201527f616c616e63650000000000000000000000000000000000000000000000000000602082015250565b6000612ae360268361200b565b9150612aee82612a87565b604082019050919050565b60006020820190508181036000830152612b1281612ad6565b9050919050565b7f5061757361626c653a206e6f7420706175736564000000000000000000000000600082015250565b6000612b4f60148361200b565b9150612b5a82612b19565b602082019050919050565b60006020820190508181036000830152612b7e81612b42565b9050919050565b7f45524332303a206d696e7420746f20746865207a65726f206164647265737300600082015250565b6000612bbb601f8361200b565b9150612bc682612b85565b602082019050919050565b60006020820190508181036000830152612bea81612bae565b9050919050565b7f45524332303a206275726e2066726f6d20746865207a65726f2061646472657360008201527f7300000000000000000000000000000000000000000000000000000000000000602082015250565b6000612c4d60218361200b565b9150612c5882612bf1565b604082019050919050565b60006020820190508181036000830152612c7c81612c40565b9050919050565b7f45524332303a206275726e20616d6f756e7420657863656564732062616c616e60008201527f6365000000000000000000000000000000000000000000000000000000000000602082015250565b6000612cdf60228361200b565b9150612cea82612c83565b604082019050919050565b60006020820190508181036000830152612d0e81612cd2565b9050919050565b6000612d2082612119565b9150612d2b83612119565b925082821015612d3e57612d3d612506565b5b828203905092915050565b7f5061757361626c653a2070617573656400000000000000000000000000000000600082015250565b6000612d7f60108361200b565b9150612d8a82612d49565b602082019050919050565b60006020820190508181036000830152612dae81612d72565b9050919050565b600081905092915050565b7f416363657373436f6e74726f6c3a206163636f756e7420000000000000000000600082015250565b6000612df6601783612db5565b9150612e0182612dc0565b601782019050919050565b6000612e1782612000565b612e218185612db5565b9350612e3181856020860161201c565b80840191505092915050565b7f206973206d697373696e6720726f6c6520000000000000000000000000000000600082015250565b6000612e73601183612db5565b9150612e7e82612e3d565b601182019050919050565b6000612e9482612de9565b9150612ea08285612e0c565b9150612eab82612e66565b9150612eb78284612e0c565b91508190509392505050565b7f4e487b7100000000000000000000000000000000000000000000000000000000600052603260045260246000fd5b7f45524332305061757361626c653a20746f6b656e207472616e7366657220776860008201527f696c652070617573656400000000000000000000000000000000000000000000602082015250565b6000612f4e602a8361200b565b9150612f5982612ef2565b604082019050919050565b60006020820190508181036000830152612f7d81612f41565b9050919050565b6000612f8f82612119565b9150612f9a83612119565b9250817fffffffffffffffffffffffffffffffffffffffffffffffffffffffffffffffff0483118215151615612fd357612fd2612506565b5b828202905092915050565b7f4e487b7100000000000000000000000000000000000000000000000000000000600052604160045260246000fd5b600061301882612119565b91506000820361302b5761302a612506565b5b600182039050919050565b7f537472696e67733a20686578206c656e67746820696e73756666696369656e74600082015250565b600061306c60208361200b565b915061307782613036565b602082019050919050565b6000602082019050818103600083015261309b8161305f565b9050919050565b7f4e487b7100000000000000000000000000000000000000000000000000000000600052603160045260246000fdfea2646970667358221220799db02a99e8e59f76f7c9d5939c9685cf5beb3148a84e78f7c730b0a59ccbe664736f6c634300080e0033",
  "immutableReferences": {},
  "source": "// SPDX-License-Identifier: MIT\n\npragma solidity ^0.8.0;\n\nimport \"./Insurance.sol\";\nimport \"./ERC721Land.sol\";\nimport \"./ERC20Dlc.sol\";\n\ncontract Exchange {\n\n    ERC721Land erc721land;\n    ERC20Dlc erc20dlc;\n    Insurance insurance;\n\n    constructor(\n        string memory ERC20name, string memory ERC20symbol, \n        string memory ERC721name, string memory ERC721symbol,\n        string memory ERC721baseTokenURI \n    ) {\n        erc20dlc = new ERC20Dlc(ERC20name, ERC20symbol);\n        // erc721land = new ERC721Land(\n        //         ERC721name, ERC721symbol,\n        //         ERC721baseTokenURI, erc20dlc\n        // );\n        // insurance = new Insurance(erc20dlc, erc721land);\n    }\n\n    function getERC721Land() public view returns(ERC721Land) {\n        return erc721land;\n    }\n\n    function getERC20Dlc() public view returns(ERC20Dlc) {\n        return erc20dlc;\n    }\n\n    function getInsurance() public view returns(Insurance) {\n        return insurance;\n    }\n}\n",
  "sourcePath": "/Users/arutoriawhite/Repos/deadline-champion/truffle-project/contracts/Exchange.sol",
  "compiler": {
    "name": "solc",
    "version": "0.8.14+commit.80d49f37.Emscripten.clang"
  },
  "schemaVersion": "3.4.7",
  "updatedAt": "2022-06-08T22:40:26.819Z",
  "networkType": "ethereum",
  "devdoc": {
    "kind": "dev",
    "methods": {},
    "version": 1
  },
  "userdoc": {
    "kind": "user",
    "methods": {},
    "version": 1
  }
}