{
  "contractName": "Insurance",
  "abi": [
    {
      "inputs": [
        {
          "internalType": "contract ERC20PresetMinterPauser",
          "name": "_erc20",
          "type": "address"
        },
        {
          "internalType": "contract ERC721",
          "name": "_erc721",
          "type": "address"
        }
      ],
      "stateMutability": "nonpayable",
      "type": "constructor"
    },
    {
      "anonymous": false,
      "inputs": [
        {
          "indexed": false,
          "internalType": "address",
          "name": "insurer",
          "type": "address"
        },
        {
          "indexed": false,
          "internalType": "address",
          "name": "guarantor",
          "type": "address"
        },
        {
          "indexed": false,
          "internalType": "address",
          "name": "beneficiary",
          "type": "address"
        },
        {
          "indexed": false,
          "internalType": "address",
          "name": "validator",
          "type": "address"
        },
        {
          "indexed": false,
          "internalType": "uint256",
          "name": "insuredTargetTokenId",
          "type": "uint256"
        },
        {
          "indexed": false,
          "internalType": "uint256",
          "name": "soldPrice",
          "type": "uint256"
        },
        {
          "indexed": false,
          "internalType": "uint256",
          "name": "sumInsured",
          "type": "uint256"
        },
        {
          "indexed": false,
          "internalType": "uint256",
          "name": "expireLn",
          "type": "uint256"
        },
        {
          "indexed": false,
          "internalType": "uint256",
          "name": "insuranceId",
          "type": "uint256"
        }
      ],
      "name": "newInsurance",
      "type": "event"
    },
    {
      "anonymous": false,
      "inputs": [
        {
          "indexed": false,
          "internalType": "address",
          "name": "insurer",
          "type": "address"
        },
        {
          "indexed": false,
          "internalType": "address",
          "name": "guarantor",
          "type": "address"
        },
        {
          "indexed": false,
          "internalType": "address",
          "name": "beneficiary",
          "type": "address"
        },
        {
          "indexed": false,
          "internalType": "uint256",
          "name": "insuredTargetTokenId",
          "type": "uint256"
        },
        {
          "indexed": false,
          "internalType": "uint256",
          "name": "sumInsured",
          "type": "uint256"
        },
        {
          "indexed": false,
          "internalType": "uint256",
          "name": "triggerTime",
          "type": "uint256"
        },
        {
          "indexed": false,
          "internalType": "uint256",
          "name": "sumInsuredPercentage",
          "type": "uint256"
        }
      ],
      "name": "triggerInsurance",
      "type": "event"
    },
    {
      "inputs": [],
      "name": "erc20",
      "outputs": [
        {
          "internalType": "contract ERC20PresetMinterPauser",
          "name": "",
          "type": "address"
        }
      ],
      "stateMutability": "view",
      "type": "function"
    },
    {
      "inputs": [],
      "name": "erc721",
      "outputs": [
        {
          "internalType": "contract ERC721",
          "name": "",
          "type": "address"
        }
      ],
      "stateMutability": "view",
      "type": "function"
    },
    {
      "inputs": [
        {
          "internalType": "address",
          "name": "_guarantor",
          "type": "address"
        },
        {
          "internalType": "address",
          "name": "_beneficiary",
          "type": "address"
        },
        {
          "internalType": "address",
          "name": "_validator",
          "type": "address"
        },
        {
          "internalType": "uint256",
          "name": "_insuredTarget",
          "type": "uint256"
        },
        {
          "internalType": "uint256",
          "name": "_soldPrice",
          "type": "uint256"
        },
        {
          "internalType": "uint256",
          "name": "_sumInsured",
          "type": "uint256"
        },
        {
          "internalType": "uint256",
          "name": "_expireLn",
          "type": "uint256"
        }
      ],
      "name": "buildInsurance",
      "outputs": [],
      "stateMutability": "nonpayable",
      "type": "function"
    },
    {
      "inputs": [
        {
          "internalType": "uint256",
          "name": "id",
          "type": "uint256"
        },
        {
          "internalType": "uint256",
          "name": "sumInsuredPercentage",
          "type": "uint256"
        }
      ],
      "name": "triggerCompensation",
      "outputs": [],
      "stateMutability": "nonpayable",
      "type": "function"
    },
    {
      "inputs": [
        {
          "internalType": "uint256",
          "name": "id",
          "type": "uint256"
        }
      ],
      "name": "stopContract",
      "outputs": [],
      "stateMutability": "nonpayable",
      "type": "function"
    },
    {
      "inputs": [
        {
          "internalType": "uint256",
          "name": "id",
          "type": "uint256"
        },
        {
          "internalType": "address",
          "name": "_beneficiary",
          "type": "address"
        }
      ],
      "name": "setBenificiary",
      "outputs": [],
      "stateMutability": "nonpayable",
      "type": "function"
    },
    {
      "inputs": [
        {
          "internalType": "uint256",
          "name": "id",
          "type": "uint256"
        }
      ],
      "name": "pay",
      "outputs": [],
      "stateMutability": "nonpayable",
      "type": "function"
    },
    {
      "inputs": [
        {
          "internalType": "uint256",
          "name": "id",
          "type": "uint256"
        }
      ],
      "name": "queryInsurer",
      "outputs": [
        {
          "internalType": "address",
          "name": "",
          "type": "address"
        }
      ],
      "stateMutability": "nonpayable",
      "type": "function"
    },
    {
      "inputs": [
        {
          "internalType": "uint256",
          "name": "id",
          "type": "uint256"
        }
      ],
      "name": "queryBeneficiary",
      "outputs": [
        {
          "internalType": "address",
          "name": "",
          "type": "address"
        }
      ],
      "stateMutability": "nonpayable",
      "type": "function"
    },
    {
      "inputs": [
        {
          "internalType": "uint256",
          "name": "id",
          "type": "uint256"
        }
      ],
      "name": "queryValidator",
      "outputs": [
        {
          "internalType": "address",
          "name": "",
          "type": "address"
        }
      ],
      "stateMutability": "nonpayable",
      "type": "function"
    },
    {
      "inputs": [
        {
          "internalType": "uint256",
          "name": "id",
          "type": "uint256"
        }
      ],
      "name": "queryInsuredTarget",
      "outputs": [
        {
          "internalType": "uint256",
          "name": "",
          "type": "uint256"
        }
      ],
      "stateMutability": "nonpayable",
      "type": "function"
    },
    {
      "inputs": [
        {
          "internalType": "uint256",
          "name": "id",
          "type": "uint256"
        }
      ],
      "name": "querySoldPrice",
      "outputs": [
        {
          "internalType": "uint256",
          "name": "",
          "type": "uint256"
        }
      ],
      "stateMutability": "nonpayable",
      "type": "function"
    },
    {
      "inputs": [
        {
          "internalType": "uint256",
          "name": "id",
          "type": "uint256"
        }
      ],
      "name": "querySumInsured",
      "outputs": [
        {
          "internalType": "uint256",
          "name": "",
          "type": "uint256"
        }
      ],
      "stateMutability": "nonpayable",
      "type": "function"
    },
    {
      "inputs": [
        {
          "internalType": "uint256",
          "name": "id",
          "type": "uint256"
        }
      ],
      "name": "queryExpireLn",
      "outputs": [
        {
          "internalType": "uint256",
          "name": "",
          "type": "uint256"
        }
      ],
      "stateMutability": "nonpayable",
      "type": "function"
    },
    {
      "inputs": [
        {
          "internalType": "uint256",
          "name": "id",
          "type": "uint256"
        }
      ],
      "name": "queryBank",
      "outputs": [
        {
          "internalType": "uint256",
          "name": "",
          "type": "uint256"
        }
      ],
      "stateMutability": "nonpayable",
      "type": "function"
    }
  ],
  "bytecode": "0x60806040523480156200001157600080fd5b50604051620027393803806200273983398181016040528101906200003791906200018b565b816000806101000a81548173ffffffffffffffffffffffffffffffffffffffff021916908373ffffffffffffffffffffffffffffffffffffffff16021790555080600160006101000a81548173ffffffffffffffffffffffffffffffffffffffff021916908373ffffffffffffffffffffffffffffffffffffffff1602179055506000600e819055505050620001d2565b600080fd5b600073ffffffffffffffffffffffffffffffffffffffff82169050919050565b6000620000fa82620000cd565b9050919050565b60006200010e82620000ed565b9050919050565b620001208162000101565b81146200012c57600080fd5b50565b600081519050620001408162000115565b92915050565b60006200015382620000ed565b9050919050565b620001658162000146565b81146200017157600080fd5b50565b60008151905062000185816200015a565b92915050565b60008060408385031215620001a557620001a4620000c8565b5b6000620001b5858286016200012f565b9250506020620001c88582860162000174565b9150509250929050565b61255780620001e26000396000f3fe608060405234801561001057600080fd5b50600436106100f55760003560e01c8063ab24650311610097578063bca6ce6411610066578063bca6ce64146102a8578063c290d691146102c6578063c4696ff9146102e2578063ced2b4de14610312576100f5565b8063ab24650314610210578063ae61207a14610240578063b15313d114610270578063bc59d5031461028c576100f5565b806343bfd33a116100d357806343bfd33a14610176578063785e9e86146101925780637c23b5c4146101b0578063810e0b20146101e0576100f5565b80630d266314146100fa5780631a2c15941461012a5780633ea1813c14610146575b600080fd5b610114600480360381019061010f9190611c39565b610342565b6040516101219190611c75565b60405180910390f35b610144600480360381019061013f9190611cee565b610404565b005b610160600480360381019061015b9190611c39565b6107b0565b60405161016d9190611c75565b60405180910390f35b610190600480360381019061018b9190611d90565b610872565b005b61019a610cea565b6040516101a79190611e2f565b60405180910390f35b6101ca60048036038101906101c59190611c39565b610d0e565b6040516101d79190611c75565b60405180910390f35b6101fa60048036038101906101f59190611c39565b610dd0565b6040516102079190611e59565b60405180910390f35b61022a60048036038101906102259190611c39565b610eb2565b6040516102379190611c75565b60405180910390f35b61025a60048036038101906102559190611c39565b610f74565b6040516102679190611c75565b60405180910390f35b61028a60048036038101906102859190611e74565b611036565b005b6102a660048036038101906102a19190611c39565b611325565b005b6102b06114ed565b6040516102bd9190611ed5565b60405180910390f35b6102e060048036038101906102db9190611c39565b611513565b005b6102fc60048036038101906102f79190611c39565b6117f8565b6040516103099190611e59565b60405180910390f35b61032c60048036038101906103279190611c39565b6118da565b6040516103399190611e59565b60405180910390f35b600081600a60008281526020019081526020016000205460096000838152602001908152602001600020546103779190611f1f565b4211156103885761038781611325565b5b600d600082815260200190815260200160002060009054906101000a900460ff166103e8576040517f08c379a00000000000000000000000000000000000000000000000000000000081526004016103df90611fd2565b60405180910390fd5b6006600084815260200190815260200160002054915050919050565b6000600e5490506001600e600082825461041e9190611f1f565b9250508190555061042f81846119bc565b336002600083815260200190815260200160002060006101000a81548173ffffffffffffffffffffffffffffffffffffffff021916908373ffffffffffffffffffffffffffffffffffffffff160217905550876003600083815260200190815260200160002060006101000a81548173ffffffffffffffffffffffffffffffffffffffff021916908373ffffffffffffffffffffffffffffffffffffffff160217905550866004600083815260200190815260200160002060006101000a81548173ffffffffffffffffffffffffffffffffffffffff021916908373ffffffffffffffffffffffffffffffffffffffff160217905550856005600083815260200190815260200160002060006101000a81548173ffffffffffffffffffffffffffffffffffffffff021916908373ffffffffffffffffffffffffffffffffffffffff1602179055508460066000838152602001908152602001600020819055508360076000838152602001908152602001600020819055508260086000838152602001908152602001600020819055508160096000838152602001908152602001600020819055506000600b600083815260200190815260200160002060006101000a81548160ff0219169083151502179055506001600d600083815260200190815260200160002060006101000a81548160ff02191690831515021790555042600a6000838152602001908152602001600020819055507f90f2fa1daa75c18af7bcbab1998d68308c81418460117187498dcf7e1e77faae6002600083815260200190815260200160002060009054906101000a900473ffffffffffffffffffffffffffffffffffffffff166003600084815260200190815260200160002060009054906101000a900473ffffffffffffffffffffffffffffffffffffffff166004600085815260200190815260200160002060009054906101000a900473ffffffffffffffffffffffffffffffffffffffff166005600086815260200190815260200160002060009054906101000a900473ffffffffffffffffffffffffffffffffffffffff16600660008781526020019081526020016000205460076000888152602001908152602001600020546008600089815260200190815260200160002054600960008a8152602001908152602001600020548960405161079e99989796959493929190611ff2565b60405180910390a15050505050505050565b600081600a60008281526020019081526020016000205460096000838152602001908152602001600020546107e59190611f1f565b4211156107f6576107f581611325565b5b600d600082815260200190815260200160002060009054906101000a900460ff16610856576040517f08c379a000000000000000000000000000000000000000000000000000000000815260040161084d90611fd2565b60405180910390fd5b600c600084815260200190815260200160002054915050919050565b81600a60008281526020019081526020016000205460096000838152602001908152602001600020546108a59190611f1f565b4211156108b6576108b581611325565b5b600d600082815260200190815260200160002060009054906101000a900460ff16610916576040517f08c379a000000000000000000000000000000000000000000000000000000000815260040161090d90611fd2565b60405180910390fd5b826005600082815260200190815260200160002060009054906101000a900473ffffffffffffffffffffffffffffffffffffffff1673ffffffffffffffffffffffffffffffffffffffff163373ffffffffffffffffffffffffffffffffffffffff16146109b8576040517f08c379a00000000000000000000000000000000000000000000000000000000081526004016109af906120cb565b60405180910390fd5b83600b600082815260200190815260200160002060009054906101000a900460ff16610a19576040517f08c379a0000000000000000000000000000000000000000000000000000000008152600401610a109061215d565b60405180910390fd5b846003600082815260200190815260200160002060009054906101000a900473ffffffffffffffffffffffffffffffffffffffff1673ffffffffffffffffffffffffffffffffffffffff16600160009054906101000a900473ffffffffffffffffffffffffffffffffffffffff1673ffffffffffffffffffffffffffffffffffffffff16636352211e60066000858152602001908152602001600020546040518263ffffffff1660e01b8152600401610ad29190611c75565b602060405180830381865afa158015610aef573d6000803e3d6000fd5b505050506040513d601f19601f82011682018060405250810190610b139190612192565b73ffffffffffffffffffffffffffffffffffffffff1614610b69576040517f08c379a0000000000000000000000000000000000000000000000000000000008152600401610b6090612231565b60405180910390fd5b6000606486600860008a815260200190815260200160002054610b8c9190612251565b610b9691906122da565b9050610bd687600460008a815260200190815260200160002060009054906101000a900473ffffffffffffffffffffffffffffffffffffffff1683611b2e565b610bdf87611325565b7f8aab6bbb90e38304bbfeba71b83080ad1bad8f76235d19b6de43a880e06c80b36002600089815260200190815260200160002060009054906101000a900473ffffffffffffffffffffffffffffffffffffffff16600360008a815260200190815260200160002060009054906101000a900473ffffffffffffffffffffffffffffffffffffffff16600460008b815260200190815260200160002060009054906101000a900473ffffffffffffffffffffffffffffffffffffffff16600660008c815260200190815260200160002054600860008d815260200190815260200160002054428c604051610cd9979695949392919061230b565b60405180910390a150505050505050565b60008054906101000a900473ffffffffffffffffffffffffffffffffffffffff1681565b600081600a6000828152602001908152602001600020546009600083815260200190815260200160002054610d439190611f1f565b421115610d5457610d5381611325565b5b600d600082815260200190815260200160002060009054906101000a900460ff16610db4576040517f08c379a0000000000000000000000000000000000000000000000000000000008152600401610dab90611fd2565b60405180910390fd5b6009600084815260200190815260200160002054915050919050565b600081600a6000828152602001908152602001600020546009600083815260200190815260200160002054610e059190611f1f565b421115610e1657610e1581611325565b5b600d600082815260200190815260200160002060009054906101000a900460ff16610e76576040517f08c379a0000000000000000000000000000000000000000000000000000000008152600401610e6d90611fd2565b60405180910390fd5b6003600084815260200190815260200160002060009054906101000a900473ffffffffffffffffffffffffffffffffffffffff16915050919050565b600081600a6000828152602001908152602001600020546009600083815260200190815260200160002054610ee79190611f1f565b421115610ef857610ef781611325565b5b600d600082815260200190815260200160002060009054906101000a900460ff16610f58576040517f08c379a0000000000000000000000000000000000000000000000000000000008152600401610f4f90611fd2565b60405180910390fd5b6008600084815260200190815260200160002054915050919050565b600081600a6000828152602001908152602001600020546009600083815260200190815260200160002054610fa99190611f1f565b421115610fba57610fb981611325565b5b600d600082815260200190815260200160002060009054906101000a900460ff1661101a576040517f08c379a000000000000000000000000000000000000000000000000000000000815260040161101190611fd2565b60405180910390fd5b6007600084815260200190815260200160002054915050919050565b81600a60008281526020019081526020016000205460096000838152602001908152602001600020546110699190611f1f565b42111561107a5761107981611325565b5b600d600082815260200190815260200160002060009054906101000a900460ff166110da576040517f08c379a00000000000000000000000000000000000000000000000000000000081526004016110d190611fd2565b60405180910390fd5b826003600082815260200190815260200160002060009054906101000a900473ffffffffffffffffffffffffffffffffffffffff1673ffffffffffffffffffffffffffffffffffffffff163373ffffffffffffffffffffffffffffffffffffffff161461117c576040517f08c379a0000000000000000000000000000000000000000000000000000000008152600401611173906123c6565b60405180910390fd5b836003600082815260200190815260200160002060009054906101000a900473ffffffffffffffffffffffffffffffffffffffff1673ffffffffffffffffffffffffffffffffffffffff16600160009054906101000a900473ffffffffffffffffffffffffffffffffffffffff1673ffffffffffffffffffffffffffffffffffffffff16636352211e60066000858152602001908152602001600020546040518263ffffffff1660e01b81526004016112359190611c75565b602060405180830381865afa158015611252573d6000803e3d6000fd5b505050506040513d601f19601f820116820180604052508101906112769190612192565b73ffffffffffffffffffffffffffffffffffffffff16146112cc576040517f08c379a00000000000000000000000000000000000000000000000000000000081526004016112c390612231565b60405180910390fd5b836004600087815260200190815260200160002060006101000a81548173ffffffffffffffffffffffffffffffffffffffff021916908373ffffffffffffffffffffffffffffffffffffffff1602179055505050505050565b80600a60008281526020019081526020016000205460096000838152602001908152602001600020546113589190611f1f565b4211156113695761136881611325565b5b600d600082815260200190815260200160002060009054906101000a900460ff166113c9576040517f08c379a00000000000000000000000000000000000000000000000000000000081526004016113c090611fd2565b60405180910390fd5b816003600082815260200190815260200160002060009054906101000a900473ffffffffffffffffffffffffffffffffffffffff1673ffffffffffffffffffffffffffffffffffffffff163373ffffffffffffffffffffffffffffffffffffffff161461146b576040517f08c379a0000000000000000000000000000000000000000000000000000000008152600401611462906123c6565b60405180910390fd5b6114bc836002600086815260200190815260200160002060009054906101000a900473ffffffffffffffffffffffffffffffffffffffff16600c600087815260200190815260200160002054611b2e565b6000600d600085815260200190815260200160002060006101000a81548160ff021916908315150217905550505050565b600160009054906101000a900473ffffffffffffffffffffffffffffffffffffffff1681565b80600a60008281526020019081526020016000205460096000838152602001908152602001600020546115469190611f1f565b4211156115575761155681611325565b5b600d600082815260200190815260200160002060009054906101000a900460ff166115b7576040517f08c379a00000000000000000000000000000000000000000000000000000000081526004016115ae90611fd2565b60405180910390fd5b816003600082815260200190815260200160002060009054906101000a900473ffffffffffffffffffffffffffffffffffffffff1673ffffffffffffffffffffffffffffffffffffffff163373ffffffffffffffffffffffffffffffffffffffff1614611659576040517f08c379a0000000000000000000000000000000000000000000000000000000008152600401611650906123c6565b60405180910390fd5b826003600082815260200190815260200160002060009054906101000a900473ffffffffffffffffffffffffffffffffffffffff1673ffffffffffffffffffffffffffffffffffffffff16600160009054906101000a900473ffffffffffffffffffffffffffffffffffffffff1673ffffffffffffffffffffffffffffffffffffffff16636352211e60066000858152602001908152602001600020546040518263ffffffff1660e01b81526004016117129190611c75565b602060405180830381865afa15801561172f573d6000803e3d6000fd5b505050506040513d601f19601f820116820180604052508101906117539190612192565b73ffffffffffffffffffffffffffffffffffffffff16146117a9576040517f08c379a00000000000000000000000000000000000000000000000000000000081526004016117a090612231565b60405180910390fd5b6117c68460076000878152602001908152602001600020546119bc565b6001600b600086815260200190815260200160002060006101000a81548160ff02191690831515021790555050505050565b600081600a600082815260200190815260200160002054600960008381526020019081526020016000205461182d9190611f1f565b42111561183e5761183d81611325565b5b600d600082815260200190815260200160002060009054906101000a900460ff1661189e576040517f08c379a000000000000000000000000000000000000000000000000000000000815260040161189590611fd2565b60405180910390fd5b6002600084815260200190815260200160002060009054906101000a900473ffffffffffffffffffffffffffffffffffffffff16915050919050565b600081600a600082815260200190815260200160002054600960008381526020019081526020016000205461190f9190611f1f565b4211156119205761191f81611325565b5b600d600082815260200190815260200160002060009054906101000a900460ff16611980576040517f08c379a000000000000000000000000000000000000000000000000000000000815260040161197790611fd2565b60405180910390fd5b6003600084815260200190815260200160002060009054906101000a900473ffffffffffffffffffffffffffffffffffffffff16915050919050565b8060008054906101000a900473ffffffffffffffffffffffffffffffffffffffff1673ffffffffffffffffffffffffffffffffffffffff166370a08231336040518263ffffffff1660e01b8152600401611a169190611e59565b602060405180830381865afa158015611a33573d6000803e3d6000fd5b505050506040513d601f19601f82011682018060405250810190611a5791906123fb565b11611a6157600080fd5b60008054906101000a900473ffffffffffffffffffffffffffffffffffffffff1673ffffffffffffffffffffffffffffffffffffffff1663a9059cbb30836040518363ffffffff1660e01b8152600401611abc929190612428565b6020604051808303816000875af1158015611adb573d6000803e3d6000fd5b505050506040513d601f19601f82011682018060405250810190611aff9190612489565b5080600c60008481526020019081526020016000206000828254611b239190611f1f565b925050819055505050565b60008054906101000a900473ffffffffffffffffffffffffffffffffffffffff1673ffffffffffffffffffffffffffffffffffffffff166323b872dd3084846040518463ffffffff1660e01b8152600401611b8b939291906124b6565b6020604051808303816000875af1158015611baa573d6000803e3d6000fd5b505050506040513d601f19601f82011682018060405250810190611bce9190612489565b5080600c60008581526020019081526020016000206000828254611bf291906124ed565b92505081905550505050565b600080fd5b6000819050919050565b611c1681611c03565b8114611c2157600080fd5b50565b600081359050611c3381611c0d565b92915050565b600060208284031215611c4f57611c4e611bfe565b5b6000611c5d84828501611c24565b91505092915050565b611c6f81611c03565b82525050565b6000602082019050611c8a6000830184611c66565b92915050565b600073ffffffffffffffffffffffffffffffffffffffff82169050919050565b6000611cbb82611c90565b9050919050565b611ccb81611cb0565b8114611cd657600080fd5b50565b600081359050611ce881611cc2565b92915050565b600080600080600080600060e0888a031215611d0d57611d0c611bfe565b5b6000611d1b8a828b01611cd9565b9750506020611d2c8a828b01611cd9565b9650506040611d3d8a828b01611cd9565b9550506060611d4e8a828b01611c24565b9450506080611d5f8a828b01611c24565b93505060a0611d708a828b01611c24565b92505060c0611d818a828b01611c24565b91505092959891949750929550565b60008060408385031215611da757611da6611bfe565b5b6000611db585828601611c24565b9250506020611dc685828601611c24565b9150509250929050565b6000819050919050565b6000611df5611df0611deb84611c90565b611dd0565b611c90565b9050919050565b6000611e0782611dda565b9050919050565b6000611e1982611dfc565b9050919050565b611e2981611e0e565b82525050565b6000602082019050611e446000830184611e20565b92915050565b611e5381611cb0565b82525050565b6000602082019050611e6e6000830184611e4a565b92915050565b60008060408385031215611e8b57611e8a611bfe565b5b6000611e9985828601611c24565b9250506020611eaa85828601611cd9565b9150509250929050565b6000611ebf82611dfc565b9050919050565b611ecf81611eb4565b82525050565b6000602082019050611eea6000830184611ec6565b92915050565b7f4e487b7100000000000000000000000000000000000000000000000000000000600052601160045260246000fd5b6000611f2a82611c03565b9150611f3583611c03565b9250827fffffffffffffffffffffffffffffffffffffffffffffffffffffffffffffffff03821115611f6a57611f69611ef0565b5b828201905092915050565b600082825260208201905092915050565b7f5468697320696e737572616e6365206964206973206e6f742065786973740000600082015250565b6000611fbc601e83611f75565b9150611fc782611f86565b602082019050919050565b60006020820190508181036000830152611feb81611faf565b9050919050565b600061012082019050612008600083018c611e4a565b612015602083018b611e4a565b612022604083018a611e4a565b61202f6060830189611e4a565b61203c6080830188611c66565b61204960a0830187611c66565b61205660c0830186611c66565b61206360e0830185611c66565b612071610100830184611c66565b9a9950505050505050505050565b7f486f757365496e737572616e63653a2076616c696461746f72206f6e6c790000600082015250565b60006120b5601e83611f75565b91506120c08261207f565b602082019050919050565b600060208201905081810360008301526120e4816120a8565b9050919050565b7f486f757365496e737572616e63653a2067756172616e746f722073686f756c6460008201527f2070617920666972737400000000000000000000000000000000000000000000602082015250565b6000612147602a83611f75565b9150612152826120eb565b604082019050919050565b600060208201905081810360008301526121768161213a565b9050919050565b60008151905061218c81611cc2565b92915050565b6000602082840312156121a8576121a7611bfe565b5b60006121b68482850161217d565b91505092915050565b7f496e737572616e63653a2047756172616e746f72206973206e6f74206f776e6560008201527f72206f662074617267657420746f6b656e2e0000000000000000000000000000602082015250565b600061221b603283611f75565b9150612226826121bf565b604082019050919050565b6000602082019050818103600083015261224a8161220e565b9050919050565b600061225c82611c03565b915061226783611c03565b9250817fffffffffffffffffffffffffffffffffffffffffffffffffffffffffffffffff04831182151516156122a05761229f611ef0565b5b828202905092915050565b7f4e487b7100000000000000000000000000000000000000000000000000000000600052601260045260246000fd5b60006122e582611c03565b91506122f083611c03565b925082612300576122ff6122ab565b5b828204905092915050565b600060e082019050612320600083018a611e4a565b61232d6020830189611e4a565b61233a6040830188611e4a565b6123476060830187611c66565b6123546080830186611c66565b61236160a0830185611c66565b61236e60c0830184611c66565b98975050505050505050565b7f486f757365496e737572616e63653a2067756172616e746f72206f6e6c790000600082015250565b60006123b0601e83611f75565b91506123bb8261237a565b602082019050919050565b600060208201905081810360008301526123df816123a3565b9050919050565b6000815190506123f581611c0d565b92915050565b60006020828403121561241157612410611bfe565b5b600061241f848285016123e6565b91505092915050565b600060408201905061243d6000830185611e4a565b61244a6020830184611c66565b9392505050565b60008115159050919050565b61246681612451565b811461247157600080fd5b50565b6000815190506124838161245d565b92915050565b60006020828403121561249f5761249e611bfe565b5b60006124ad84828501612474565b91505092915050565b60006060820190506124cb6000830186611e4a565b6124d86020830185611e4a565b6124e56040830184611c66565b949350505050565b60006124f882611c03565b915061250383611c03565b92508282101561251657612515611ef0565b5b82820390509291505056fea2646970667358221220e6c0cdb3c07895893da1df25c0c80f46304243e97e20db23aa444b332174fcc464736f6c634300080e0033",
  "immutableReferences": {},
  "source": "// SPDX-License-Identifier: MIT\n\npragma solidity ^0.8.0;\n\nimport \"../node_modules/@openzeppelin/contracts/token/ERC20/presets/ERC20PresetMinterPauser.sol\";\nimport \"../node_modules/@openzeppelin/contracts/token/ERC721/ERC721.sol\";\n\ncontract Insurance {\n\n    ERC20PresetMinterPauser public erc20;\n    ERC721 public erc721;\n\n    mapping (uint256 => address) insurer;\n    mapping (uint256 => address) guarantor;\n    mapping (uint256 => address) beneficiary;\n    mapping (uint256 => address) validator;\n\n    mapping (uint256 => uint256) insuredTargetTokenId;\n    mapping (uint256 => uint256) soldPrice;\n    mapping (uint256 => uint256) sumInsured;\n    mapping (uint256 => uint256) expireLn;\n    mapping (uint256 => uint256) createdTime;\n\n    mapping (uint256 => bool) getPaid;\n    mapping (uint256 => uint256) bank;\n    mapping (uint256 => bool) exists;\n\n    uint256 insuranceIdCounter;\n\n    event newInsurance (\n        address insurer,\n        address guarantor,\n        address beneficiary,\n        address validator,\n        uint256 insuredTargetTokenId,\n        uint256 soldPrice,\n        uint256 sumInsured,\n        uint256 expireLn,\n        uint256 insuranceId\n    );\n\n    event triggerInsurance (\n        address insurer,\n        address guarantor,\n        address beneficiary,\n        uint256 insuredTargetTokenId,\n        uint256 sumInsured,\n        uint256 triggerTime,\n        uint256 sumInsuredPercentage\n    );        \n\n    constructor (ERC20PresetMinterPauser _erc20, ERC721 _erc721) {\n        erc20 = _erc20;\n        erc721 = _erc721;\n        insuranceIdCounter = 0;\n    }\n\n    modifier insurerOnly(uint256 id) {\n        require(msg.sender == insurer[id], \"HouseInsurance: insurer only\");\n        _;\n    }\n    modifier guarantorOnly(uint256 id) {\n        require(msg.sender == guarantor[id], \"HouseInsurance: guarantor only\");\n        _;\n    }\n    modifier beneficiaryOnly(uint256 id) {\n        require(msg.sender == beneficiary[id], \"HouseInsurance: beneficiary only\");\n        _;\n    }\n    modifier validatorOnly(uint256 id) {\n        require(msg.sender == validator[id], \"HouseInsurance: validator only\");\n        _;\n    }\n    modifier requirePaid(uint256 id) {\n        require(getPaid[id], \"HouseInsurance: guarantor should pay first\");\n        _;\n    }\n\n    modifier requireExist(uint256 id) {\n        if (block.timestamp > expireLn[id]+createdTime[id]) {\n            stopContract(id);\n        }\n        require(exists[id], \"This insurance id is not exist\");\n        _;\n    }\n\n    modifier guarantorIsOwner(uint256 id)  {\n        require(erc721.ownerOf(insuredTargetTokenId[id]) == guarantor[id], \"Insurance: Guarantor is not owner of target token.\");\n        _;\n\n    }\n\n    function _saveTokenInBank(\n        uint256 id,\n        uint256 amount\n    ) internal {\n        require(erc20.balanceOf(msg.sender) > amount);\n        erc20.transfer(address(this), amount);\n        bank[id] += amount;\n    }\n\n    function _takeTokenOutBank(\n        uint256 id, \n        address to, \n        uint256 amount\n    ) internal {\n        erc20.transferFrom(address(this), to, amount);\n        bank[id] -= amount;\n    }\n\n\n    function buildInsurance(\n        address _guarantor,\n        address _beneficiary,\n        address _validator,\n        uint256 _insuredTarget,\n        uint256 _soldPrice,\n        uint256 _sumInsured,\n        uint256 _expireLn\n    ) public {\n\n        uint256 id = insuranceIdCounter;\n        insuranceIdCounter += 1;\n\n        //transfer insurer's money into contract\n        _saveTokenInBank(id, _sumInsured);\n\n        //set info\n        insurer[id] = msg.sender;\n        guarantor[id] = _guarantor;\n        beneficiary[id] = _beneficiary;\n        validator[id] = _validator;\n\n        insuredTargetTokenId[id] = _insuredTarget;\n        soldPrice[id] = _soldPrice;\n        sumInsured[id] = _sumInsured;\n        expireLn[id] = _expireLn;\n\n        getPaid[id] = false;\n        exists[id] = true;\n        createdTime[id] = block.timestamp;\n\n        emit newInsurance(\n            insurer[id],\n            guarantor[id],\n            beneficiary[id],\n            validator[id],\n            insuredTargetTokenId[id],\n            soldPrice[id],\n            sumInsured[id],\n            expireLn[id],\n            id\n        );\n    }\n\n    function triggerCompensation(\n        uint256 id,\n        uint256 sumInsuredPercentage\n    ) public requireExist(id) validatorOnly(id) requirePaid(id) guarantorIsOwner(id) {\n        //send required money to beneficiary\n        uint256 claim = sumInsured[id]*sumInsuredPercentage/100;\n        _takeTokenOutBank(id, beneficiary[id], claim);\n        //stop contract\n        stopContract(id);\n\n        emit triggerInsurance (\n            insurer[id],\n            guarantor[id],\n            beneficiary[id],\n            insuredTargetTokenId[id],\n            sumInsured[id],\n            block.timestamp,\n            sumInsuredPercentage\n        );        \n    }\n\n    function stopContract(\n        uint256 id\n    ) public requireExist(id) guarantorOnly(id) { \n        // transfer money to company\n        _takeTokenOutBank(\n            id,\n            insurer[id],\n            bank[id]\n        );\n        // exist = false\n        exists[id] = false;\n    }\n\n    function setBenificiary(\n        uint256 id, address _beneficiary\n    ) public requireExist(id) guarantorOnly(id) guarantorIsOwner(id){\n            beneficiary[id] = _beneficiary;\n    }\n\n    function pay(\n        uint256 id\n    ) public requireExist(id) guarantorOnly(id) guarantorIsOwner(id){\n        _saveTokenInBank(id,soldPrice[id]);\n        getPaid[id] = true;\n    }\n\n    function queryInsurer(uint256 id) public requireExist(id) returns(address) {\n        return insurer[id];\n    }\n\n    function queryBeneficiary(uint256 id) public  requireExist(id) returns(address) {\n        return guarantor[id];\n    }   \n\n    function queryValidator(uint256 id) public  requireExist(id) returns(address) {\n        return guarantor[id];\n    }       \n\n    function queryInsuredTarget(uint256 id) public  requireExist(id) returns(uint256) {\n        return insuredTargetTokenId[id];\n    }   \n\n    function querySoldPrice(uint256 id) public  requireExist(id) returns(uint256) {\n        return soldPrice[id];\n    }   \n\n    function querySumInsured(uint256 id) public  requireExist(id) returns(uint256) {\n        return sumInsured[id];\n    }   \n\n    function queryExpireLn(uint256 id) public  requireExist(id) returns(uint256) {\n        return expireLn[id];\n    }   \n\n    function queryBank(uint256 id) public  requireExist(id) returns(uint256) {\n        return bank[id];\n    }                   \n}",
  "sourcePath": "/Users/arutoriawhite/Repos/deadline-champion/truffle-project/contracts/Insurance.sol",
  "compiler": {
    "name": "solc",
    "version": "0.8.14+commit.80d49f37.Emscripten.clang"
  },
  "schemaVersion": "3.4.7",
  "updatedAt": "2022-06-08T13:49:37.957Z",
  "devdoc": {
    "kind": "dev",
    "methods": {},
    "version": 1
  },
  "userdoc": {
    "kind": "user",
    "methods": {},
    "version": 1
  }
}